{
	"Marketplace.sol": {
		"Marketplace": {
			"abi": [
				{
					"inputs": [
						{
							"internalType": "address",
							"name": "feeRecipient_",
							"type": "address"
						}
					],
					"stateMutability": "nonpayable",
					"type": "constructor"
				},
				{
					"inputs": [],
					"name": "FailedCall",
					"type": "error"
				},
				{
					"inputs": [
						{
							"internalType": "uint256",
							"name": "balance",
							"type": "uint256"
						},
						{
							"internalType": "uint256",
							"name": "needed",
							"type": "uint256"
						}
					],
					"name": "InsufficientBalance",
					"type": "error"
				},
				{
					"inputs": [
						{
							"internalType": "address",
							"name": "owner",
							"type": "address"
						}
					],
					"name": "OwnableInvalidOwner",
					"type": "error"
				},
				{
					"inputs": [
						{
							"internalType": "address",
							"name": "account",
							"type": "address"
						}
					],
					"name": "OwnableUnauthorizedAccount",
					"type": "error"
				},
				{
					"inputs": [],
					"name": "ReentrancyGuardReentrantCall",
					"type": "error"
				},
				{
					"anonymous": false,
					"inputs": [
						{
							"indexed": true,
							"internalType": "uint256",
							"name": "listingId",
							"type": "uint256"
						},
						{
							"indexed": true,
							"internalType": "address",
							"name": "buyer",
							"type": "address"
						},
						{
							"indexed": true,
							"internalType": "address",
							"name": "seller",
							"type": "address"
						},
						{
							"indexed": false,
							"internalType": "uint256",
							"name": "price",
							"type": "uint256"
						},
						{
							"indexed": false,
							"internalType": "address",
							"name": "paymentToken",
							"type": "address"
						},
						{
							"indexed": false,
							"internalType": "uint96",
							"name": "marketFeeBps",
							"type": "uint96"
						},
						{
							"indexed": false,
							"internalType": "uint256",
							"name": "marketFeeAmount",
							"type": "uint256"
						},
						{
							"indexed": false,
							"internalType": "address",
							"name": "feeRecipient",
							"type": "address"
						},
						{
							"indexed": false,
							"internalType": "address",
							"name": "royaltyReceiver",
							"type": "address"
						},
						{
							"indexed": false,
							"internalType": "uint256",
							"name": "royaltyAmount",
							"type": "uint256"
						},
						{
							"indexed": false,
							"internalType": "uint256",
							"name": "sellerProceeds",
							"type": "uint256"
						}
					],
					"name": "Bought",
					"type": "event"
				},
				{
					"anonymous": false,
					"inputs": [
						{
							"indexed": true,
							"internalType": "uint256",
							"name": "listingId",
							"type": "uint256"
						},
						{
							"indexed": true,
							"internalType": "address",
							"name": "seller",
							"type": "address"
						}
					],
					"name": "Cancelled",
					"type": "event"
				},
				{
					"anonymous": false,
					"inputs": [
						{
							"indexed": true,
							"internalType": "uint256",
							"name": "listingId",
							"type": "uint256"
						},
						{
							"indexed": true,
							"internalType": "address",
							"name": "seller",
							"type": "address"
						},
						{
							"indexed": true,
							"internalType": "address",
							"name": "nft",
							"type": "address"
						},
						{
							"indexed": false,
							"internalType": "uint256",
							"name": "tokenId",
							"type": "uint256"
						},
						{
							"indexed": false,
							"internalType": "uint256",
							"name": "price",
							"type": "uint256"
						},
						{
							"indexed": false,
							"internalType": "address",
							"name": "paymentToken",
							"type": "address"
						},
						{
							"indexed": false,
							"internalType": "string",
							"name": "transactionCode",
							"type": "string"
						}
					],
					"name": "Listed",
					"type": "event"
				},
				{
					"anonymous": false,
					"inputs": [
						{
							"indexed": true,
							"internalType": "address",
							"name": "previousOwner",
							"type": "address"
						},
						{
							"indexed": true,
							"internalType": "address",
							"name": "newOwner",
							"type": "address"
						}
					],
					"name": "OwnershipTransferred",
					"type": "event"
				},
				{
					"stateMutability": "payable",
					"type": "fallback"
				},
				{
					"inputs": [
						{
							"internalType": "address",
							"name": "",
							"type": "address"
						},
						{
							"internalType": "uint256",
							"name": "",
							"type": "uint256"
						}
					],
					"name": "activeListingOf",
					"outputs": [
						{
							"internalType": "uint256",
							"name": "",
							"type": "uint256"
						}
					],
					"stateMutability": "view",
					"type": "function"
				},
				{
					"inputs": [
						{
							"internalType": "uint256",
							"name": "listingId",
							"type": "uint256"
						}
					],
					"name": "buyItem",
					"outputs": [],
					"stateMutability": "payable",
					"type": "function"
				},
				{
					"inputs": [
						{
							"internalType": "uint256",
							"name": "listingId",
							"type": "uint256"
						},
						{
							"internalType": "uint256",
							"name": "amount",
							"type": "uint256"
						}
					],
					"name": "buyItemWithERC20",
					"outputs": [],
					"stateMutability": "nonpayable",
					"type": "function"
				},
				{
					"inputs": [
						{
							"internalType": "uint256",
							"name": "listingId",
							"type": "uint256"
						}
					],
					"name": "cancelListing",
					"outputs": [],
					"stateMutability": "nonpayable",
					"type": "function"
				},
				{
					"inputs": [],
					"name": "feeRecipient",
					"outputs": [
						{
							"internalType": "address",
							"name": "",
							"type": "address"
						}
					],
					"stateMutability": "view",
					"type": "function"
				},
				{
					"inputs": [],
					"name": "getMarketFeeInfo",
					"outputs": [
						{
							"internalType": "uint96",
							"name": "",
							"type": "uint96"
						},
						{
							"internalType": "address",
							"name": "",
							"type": "address"
						}
					],
					"stateMutability": "view",
					"type": "function"
				},
				{
					"inputs": [
						{
							"internalType": "address",
							"name": "nftAddress",
							"type": "address"
						},
						{
							"internalType": "uint256",
							"name": "tokenId",
							"type": "uint256"
						},
						{
							"internalType": "uint256",
							"name": "price",
							"type": "uint256"
						},
						{
							"internalType": "address",
							"name": "paymentToken",
							"type": "address"
						},
						{
							"internalType": "string",
							"name": "transactionCode",
							"type": "string"
						}
					],
					"name": "listItem",
					"outputs": [],
					"stateMutability": "nonpayable",
					"type": "function"
				},
				{
					"inputs": [
						{
							"internalType": "uint256",
							"name": "",
							"type": "uint256"
						}
					],
					"name": "listings",
					"outputs": [
						{
							"internalType": "address",
							"name": "seller",
							"type": "address"
						},
						{
							"internalType": "address",
							"name": "nftAddress",
							"type": "address"
						},
						{
							"internalType": "uint256",
							"name": "tokenId",
							"type": "uint256"
						},
						{
							"internalType": "uint256",
							"name": "price",
							"type": "uint256"
						},
						{
							"internalType": "address",
							"name": "paymentToken",
							"type": "address"
						},
						{
							"internalType": "bool",
							"name": "active",
							"type": "bool"
						}
					],
					"stateMutability": "view",
					"type": "function"
				},
				{
					"inputs": [],
					"name": "marketFeeBps",
					"outputs": [
						{
							"internalType": "uint96",
							"name": "",
							"type": "uint96"
						}
					],
					"stateMutability": "view",
					"type": "function"
				},
				{
					"inputs": [],
					"name": "owner",
					"outputs": [
						{
							"internalType": "address",
							"name": "",
							"type": "address"
						}
					],
					"stateMutability": "view",
					"type": "function"
				},
				{
					"inputs": [],
					"name": "renounceOwnership",
					"outputs": [],
					"stateMutability": "nonpayable",
					"type": "function"
				},
				{
					"inputs": [
						{
							"internalType": "address",
							"name": "recipient",
							"type": "address"
						}
					],
					"name": "setFeeRecipient",
					"outputs": [],
					"stateMutability": "nonpayable",
					"type": "function"
				},
				{
					"inputs": [
						{
							"internalType": "uint96",
							"name": "bps",
							"type": "uint96"
						}
					],
					"name": "setMarketFee",
					"outputs": [],
					"stateMutability": "nonpayable",
					"type": "function"
				},
				{
					"inputs": [
						{
							"internalType": "address",
							"name": "newOwner",
							"type": "address"
						}
					],
					"name": "transferOwnership",
					"outputs": [],
					"stateMutability": "nonpayable",
					"type": "function"
				},
				{
					"inputs": [
						{
							"internalType": "address",
							"name": "tokenAddress",
							"type": "address"
						},
						{
							"internalType": "uint256",
							"name": "amount",
							"type": "uint256"
						},
						{
							"internalType": "address",
							"name": "to",
							"type": "address"
						}
					],
					"name": "withdrawERC20",
					"outputs": [],
					"stateMutability": "nonpayable",
					"type": "function"
				},
				{
					"inputs": [
						{
							"internalType": "uint256",
							"name": "amount",
							"type": "uint256"
						},
						{
							"internalType": "address",
							"name": "to",
							"type": "address"
						}
					],
					"name": "withdrawETH",
					"outputs": [],
					"stateMutability": "nonpayable",
					"type": "function"
				},
				{
					"stateMutability": "payable",
					"type": "receive"
				}
			],
			"devdoc": {
				"errors": {
					"FailedCall()": [
						{
							"details": "A call to an address target failed. The target may have reverted."
						}
					],
					"InsufficientBalance(uint256,uint256)": [
						{
							"details": "The ETH balance of the account is not enough to perform the operation."
						}
					],
					"OwnableInvalidOwner(address)": [
						{
							"details": "The owner is not a valid owner account. (eg. `address(0)`)"
						}
					],
					"OwnableUnauthorizedAccount(address)": [
						{
							"details": "The caller account is not authorized to perform an operation."
						}
					],
					"ReentrancyGuardReentrantCall()": [
						{
							"details": "Unauthorized reentrant call."
						}
					]
				},
				"kind": "dev",
				"methods": {
					"owner()": {
						"details": "Returns the address of the current owner."
					},
					"renounceOwnership()": {
						"details": "Leaves the contract without owner. It will not be possible to call `onlyOwner` functions. Can only be called by the current owner. NOTE: Renouncing ownership will leave the contract without an owner, thereby disabling any functionality that is only available to the owner."
					},
					"transferOwnership(address)": {
						"details": "Transfers ownership of the contract to a new account (`newOwner`). Can only be called by the current owner."
					}
				},
				"version": 1
			},
			"evm": {
				"assembly": "    /* \"Marketplace.sol\":496:8395  contract Marketplace is ReentrancyGuard, Ownable {... */\n  mstore(0x40, 0x80)\n    /* \"Marketplace.sol\":938:941  250 */\n  0xfa\n    /* \"Marketplace.sol\":909:941  uint96 public marketFeeBps = 250 */\n  0x01\n  exp(0x0100, 0x14)\n  dup2\n  sload\n  dup2\n  0xffffffffffffffffffffffff\n  mul\n  not\n  and\n  swap1\n  dup4\n  0xffffffffffffffffffffffff\n  and\n  mul\n  or\n  swap1\n  sstore\n  pop\n    /* \"Marketplace.sol\":1872:1972  constructor(address feeRecipient_) Ownable(msg.sender) {... */\n  callvalue\n  dup1\n  iszero\n  tag_1\n  jumpi\n  revert(0x00, 0x00)\ntag_1:\n  pop\n  mload(0x40)\n  sub(codesize, bytecodeSize)\n  dup1\n  bytecodeSize\n  dup4\n  codecopy\n  dup2\n  dup2\n  add\n  0x40\n  mstore\n  dup2\n  add\n  swap1\n  tag_2\n  swap2\n  swap1\n  tag_3\n  jump\t// in\ntag_2:\n    /* \"Marketplace.sol\":1915:1925  msg.sender */\n  caller\n    /* \"@openzeppelin/contracts/utils/ReentrancyGuard.sol\":1857:1858  1 */\n  0x01\n    /* \"@openzeppelin/contracts/utils/ReentrancyGuard.sol\":2061:2068  _status */\n  0x00\n    /* \"@openzeppelin/contracts/utils/ReentrancyGuard.sol\":2061:2082  _status = NOT_ENTERED */\n  dup2\n  swap1\n  sstore\n  pop\n    /* \"@openzeppelin/contracts/access/Ownable.sol\":1297:1298  0 */\n  0x00\n    /* \"@openzeppelin/contracts/access/Ownable.sol\":1273:1299  initialOwner == address(0) */\n  0xffffffffffffffffffffffffffffffffffffffff\n  and\n    /* \"@openzeppelin/contracts/access/Ownable.sol\":1273:1285  initialOwner */\n  dup2\n    /* \"@openzeppelin/contracts/access/Ownable.sol\":1273:1299  initialOwner == address(0) */\n  0xffffffffffffffffffffffffffffffffffffffff\n  and\n  sub\n    /* \"@openzeppelin/contracts/access/Ownable.sol\":1269:1364  if (initialOwner == address(0)) {... */\n  tag_9\n  jumpi\n    /* \"@openzeppelin/contracts/access/Ownable.sol\":1350:1351  0 */\n  0x00\n    /* \"@openzeppelin/contracts/access/Ownable.sol\":1322:1353  OwnableInvalidOwner(address(0)) */\n  mload(0x40)\n  0x1e4fbdf700000000000000000000000000000000000000000000000000000000\n  dup2\n  mstore\n  0x04\n  add\n  tag_10\n  swap2\n  swap1\n  tag_11\n  jump\t// in\ntag_10:\n  mload(0x40)\n  dup1\n  swap2\n  sub\n  swap1\n  revert\n    /* \"@openzeppelin/contracts/access/Ownable.sol\":1269:1364  if (initialOwner == address(0)) {... */\ntag_9:\n    /* \"@openzeppelin/contracts/access/Ownable.sol\":1373:1405  _transferOwnership(initialOwner) */\n  tag_12\n    /* \"@openzeppelin/contracts/access/Ownable.sol\":1392:1404  initialOwner */\n  dup2\n    /* \"@openzeppelin/contracts/access/Ownable.sol\":1373:1391  _transferOwnership */\n  shl(0x20, tag_13)\n    /* \"@openzeppelin/contracts/access/Ownable.sol\":1373:1405  _transferOwnership(initialOwner) */\n  0x20\n  shr\n  jump\t// in\ntag_12:\n    /* \"@openzeppelin/contracts/access/Ownable.sol\":1225:1412  constructor(address initialOwner) {... */\n  pop\n    /* \"Marketplace.sol\":1952:1965  feeRecipient_ */\n  dup1\n    /* \"Marketplace.sol\":1937:1949  feeRecipient */\n  0x02\n  0x00\n    /* \"Marketplace.sol\":1937:1965  feeRecipient = feeRecipient_ */\n  0x0100\n  exp\n  dup2\n  sload\n  dup2\n  0xffffffffffffffffffffffffffffffffffffffff\n  mul\n  not\n  and\n  swap1\n  dup4\n  0xffffffffffffffffffffffffffffffffffffffff\n  and\n  mul\n  or\n  swap1\n  sstore\n  pop\n    /* \"Marketplace.sol\":1872:1972  constructor(address feeRecipient_) Ownable(msg.sender) {... */\n  pop\n    /* \"Marketplace.sol\":496:8395  contract Marketplace is ReentrancyGuard, Ownable {... */\n  jump(tag_15)\n    /* \"@openzeppelin/contracts/access/Ownable.sol\":2912:3099  function _transferOwnership(address newOwner) internal virtual {... */\ntag_13:\n    /* \"@openzeppelin/contracts/access/Ownable.sol\":2985:3001  address oldOwner */\n  0x00\n    /* \"@openzeppelin/contracts/access/Ownable.sol\":3004:3010  _owner */\n  0x01\n  0x00\n  swap1\n  sload\n  swap1\n  0x0100\n  exp\n  swap1\n  div\n  0xffffffffffffffffffffffffffffffffffffffff\n  and\n    /* \"@openzeppelin/contracts/access/Ownable.sol\":2985:3010  address oldOwner = _owner */\n  swap1\n  pop\n    /* \"@openzeppelin/contracts/access/Ownable.sol\":3029:3037  newOwner */\n  dup2\n    /* \"@openzeppelin/contracts/access/Ownable.sol\":3020:3026  _owner */\n  0x01\n  0x00\n    /* \"@openzeppelin/contracts/access/Ownable.sol\":3020:3037  _owner = newOwner */\n  0x0100\n  exp\n  dup2\n  sload\n  dup2\n  0xffffffffffffffffffffffffffffffffffffffff\n  mul\n  not\n  and\n  swap1\n  dup4\n  0xffffffffffffffffffffffffffffffffffffffff\n  and\n  mul\n  or\n  swap1\n  sstore\n  pop\n    /* \"@openzeppelin/contracts/access/Ownable.sol\":3083:3091  newOwner */\n  dup2\n    /* \"@openzeppelin/contracts/access/Ownable.sol\":3052:3092  OwnershipTransferred(oldOwner, newOwner) */\n  0xffffffffffffffffffffffffffffffffffffffff\n  and\n    /* \"@openzeppelin/contracts/access/Ownable.sol\":3073:3081  oldOwner */\n  dup2\n    /* \"@openzeppelin/contracts/access/Ownable.sol\":3052:3092  OwnershipTransferred(oldOwner, newOwner) */\n  0xffffffffffffffffffffffffffffffffffffffff\n  and\n  0x8be0079c531659141344cd1fd0a4f28419497f9722a3daafe3b4186f6b6457e0\n  mload(0x40)\n  mload(0x40)\n  dup1\n  swap2\n  sub\n  swap1\n  log3\n    /* \"@openzeppelin/contracts/access/Ownable.sol\":2975:3099  {... */\n  pop\n    /* \"@openzeppelin/contracts/access/Ownable.sol\":2912:3099  function _transferOwnership(address newOwner) internal virtual {... */\n  pop\n  jump\t// out\n    /* \"#utility.yul\":88:205   */\ntag_18:\n    /* \"#utility.yul\":197:198   */\n  0x00\n    /* \"#utility.yul\":194:195   */\n  0x00\n    /* \"#utility.yul\":187:199   */\n  revert\n    /* \"#utility.yul\":334:460   */\ntag_20:\n    /* \"#utility.yul\":371:378   */\n  0x00\n    /* \"#utility.yul\":411:453   */\n  0xffffffffffffffffffffffffffffffffffffffff\n    /* \"#utility.yul\":404:409   */\n  dup3\n    /* \"#utility.yul\":400:454   */\n  and\n    /* \"#utility.yul\":389:454   */\n  swap1\n  pop\n    /* \"#utility.yul\":334:460   */\n  swap2\n  swap1\n  pop\n  jump\t// out\n    /* \"#utility.yul\":466:562   */\ntag_21:\n    /* \"#utility.yul\":503:510   */\n  0x00\n    /* \"#utility.yul\":532:556   */\n  tag_31\n    /* \"#utility.yul\":550:555   */\n  dup3\n    /* \"#utility.yul\":532:556   */\n  tag_20\n  jump\t// in\ntag_31:\n    /* \"#utility.yul\":521:556   */\n  swap1\n  pop\n    /* \"#utility.yul\":466:562   */\n  swap2\n  swap1\n  pop\n  jump\t// out\n    /* \"#utility.yul\":568:690   */\ntag_22:\n    /* \"#utility.yul\":641:665   */\n  tag_33\n    /* \"#utility.yul\":659:664   */\n  dup2\n    /* \"#utility.yul\":641:665   */\n  tag_21\n  jump\t// in\ntag_33:\n    /* \"#utility.yul\":634:639   */\n  dup2\n    /* \"#utility.yul\":631:666   */\n  eq\n    /* \"#utility.yul\":621:684   */\n  tag_34\n  jumpi\n    /* \"#utility.yul\":680:681   */\n  0x00\n    /* \"#utility.yul\":677:678   */\n  0x00\n    /* \"#utility.yul\":670:682   */\n  revert\n    /* \"#utility.yul\":621:684   */\ntag_34:\n    /* \"#utility.yul\":568:690   */\n  pop\n  jump\t// out\n    /* \"#utility.yul\":696:839   */\ntag_23:\n    /* \"#utility.yul\":753:758   */\n  0x00\n    /* \"#utility.yul\":784:790   */\n  dup2\n    /* \"#utility.yul\":778:791   */\n  mload\n    /* \"#utility.yul\":769:791   */\n  swap1\n  pop\n    /* \"#utility.yul\":800:833   */\n  tag_36\n    /* \"#utility.yul\":827:832   */\n  dup2\n    /* \"#utility.yul\":800:833   */\n  tag_22\n  jump\t// in\ntag_36:\n    /* \"#utility.yul\":696:839   */\n  swap3\n  swap2\n  pop\n  pop\n  jump\t// out\n    /* \"#utility.yul\":845:1196   */\ntag_3:\n    /* \"#utility.yul\":915:921   */\n  0x00\n    /* \"#utility.yul\":964:966   */\n  0x20\n    /* \"#utility.yul\":952:961   */\n  dup3\n    /* \"#utility.yul\":943:950   */\n  dup5\n    /* \"#utility.yul\":939:962   */\n  sub\n    /* \"#utility.yul\":935:967   */\n  slt\n    /* \"#utility.yul\":932:1051   */\n  iszero\n  tag_38\n  jumpi\n    /* \"#utility.yul\":970:1049   */\n  tag_39\n  tag_18\n  jump\t// in\ntag_39:\n    /* \"#utility.yul\":932:1051   */\ntag_38:\n    /* \"#utility.yul\":1090:1091   */\n  0x00\n    /* \"#utility.yul\":1115:1179   */\n  tag_40\n    /* \"#utility.yul\":1171:1178   */\n  dup5\n    /* \"#utility.yul\":1162:1168   */\n  dup3\n    /* \"#utility.yul\":1151:1160   */\n  dup6\n    /* \"#utility.yul\":1147:1169   */\n  add\n    /* \"#utility.yul\":1115:1179   */\n  tag_23\n  jump\t// in\ntag_40:\n    /* \"#utility.yul\":1105:1179   */\n  swap2\n  pop\n    /* \"#utility.yul\":1061:1189   */\n  pop\n    /* \"#utility.yul\":845:1196   */\n  swap3\n  swap2\n  pop\n  pop\n  jump\t// out\n    /* \"#utility.yul\":1202:1320   */\ntag_24:\n    /* \"#utility.yul\":1289:1313   */\n  tag_42\n    /* \"#utility.yul\":1307:1312   */\n  dup2\n    /* \"#utility.yul\":1289:1313   */\n  tag_21\n  jump\t// in\ntag_42:\n    /* \"#utility.yul\":1284:1287   */\n  dup3\n    /* \"#utility.yul\":1277:1314   */\n  mstore\n    /* \"#utility.yul\":1202:1320   */\n  pop\n  pop\n  jump\t// out\n    /* \"#utility.yul\":1326:1548   */\ntag_11:\n    /* \"#utility.yul\":1419:1423   */\n  0x00\n    /* \"#utility.yul\":1457:1459   */\n  0x20\n    /* \"#utility.yul\":1446:1455   */\n  dup3\n    /* \"#utility.yul\":1442:1460   */\n  add\n    /* \"#utility.yul\":1434:1460   */\n  swap1\n  pop\n    /* \"#utility.yul\":1470:1541   */\n  tag_44\n    /* \"#utility.yul\":1538:1539   */\n  0x00\n    /* \"#utility.yul\":1527:1536   */\n  dup4\n    /* \"#utility.yul\":1523:1540   */\n  add\n    /* \"#utility.yul\":1514:1520   */\n  dup5\n    /* \"#utility.yul\":1470:1541   */\n  tag_24\n  jump\t// in\ntag_44:\n    /* \"#utility.yul\":1326:1548   */\n  swap3\n  swap2\n  pop\n  pop\n  jump\t// out\n    /* \"Marketplace.sol\":496:8395  contract Marketplace is ReentrancyGuard, Ownable {... */\ntag_15:\n  dataSize(sub_0)\n  dup1\n  dataOffset(sub_0)\n  0x00\n  codecopy\n  0x00\n  return\nstop\n\nsub_0: assembly {\n        /* \"Marketplace.sol\":496:8395  contract Marketplace is ReentrancyGuard, Ownable {... */\n      mstore(0x40, 0x80)\n      jumpi(tag_1, lt(calldatasize, 0x04))\n      shr(0xe0, calldataload(0x00))\n      dup1\n      0x73851d46\n      gt\n      tag_19\n      jumpi\n      dup1\n      0xe74b981b\n      gt\n      tag_20\n      jumpi\n      dup1\n      0xe74b981b\n      eq\n      tag_15\n      jumpi\n      dup1\n      0xe7fb74c7\n      eq\n      tag_16\n      jumpi\n      dup1\n      0xf2fde38b\n      eq\n      tag_17\n      jumpi\n      dup1\n      0xfad86b69\n      eq\n      tag_18\n      jumpi\n      jump(tag_2)\n    tag_20:\n      dup1\n      0x73851d46\n      eq\n      tag_11\n      jumpi\n      dup1\n      0x8da5cb5b\n      eq\n      tag_12\n      jumpi\n      dup1\n      0xb915bf42\n      eq\n      tag_13\n      jumpi\n      dup1\n      0xde74e57b\n      eq\n      tag_14\n      jumpi\n      jump(tag_2)\n    tag_19:\n      dup1\n      0x46904840\n      gt\n      tag_21\n      jumpi\n      dup1\n      0x46904840\n      eq\n      tag_7\n      jumpi\n      dup1\n      0x5e9bf9ad\n      eq\n      tag_8\n      jumpi\n      dup1\n      0x5fc3ea0b\n      eq\n      tag_9\n      jumpi\n      dup1\n      0x715018a6\n      eq\n      tag_10\n      jumpi\n      jump(tag_2)\n    tag_21:\n      dup1\n      0x305a67a8\n      eq\n      tag_3\n      jumpi\n      dup1\n      0x36118b52\n      eq\n      tag_4\n      jumpi\n      dup1\n      0x3f5c3e87\n      eq\n      tag_5\n      jumpi\n      dup1\n      0x41cccad5\n      eq\n      tag_6\n      jumpi\n      jump(tag_2)\n    tag_1:\n    tag_2:\n      stop\n        /* \"Marketplace.sol\":3517:3886  function cancelListing(uint256 listingId) external nonReentrant {... */\n    tag_3:\n      callvalue\n      dup1\n      iszero\n      tag_26\n      jumpi\n      revert(0x00, 0x00)\n    tag_26:\n      pop\n      tag_27\n      0x04\n      dup1\n      calldatasize\n      sub\n      dup2\n      add\n      swap1\n      tag_28\n      swap2\n      swap1\n      tag_29\n      jump\t// in\n    tag_28:\n      tag_30\n      jump\t// in\n    tag_27:\n      stop\n        /* \"Marketplace.sol\":7843:7957  function withdrawETH(uint256 amount, address to) external onlyOwner {... */\n    tag_4:\n      callvalue\n      dup1\n      iszero\n      tag_31\n      jumpi\n      revert(0x00, 0x00)\n    tag_31:\n      pop\n      tag_32\n      0x04\n      dup1\n      calldatasize\n      sub\n      dup2\n      add\n      swap1\n      tag_33\n      swap2\n      swap1\n      tag_34\n      jump\t// in\n    tag_33:\n      tag_35\n      jump\t// in\n    tag_32:\n      stop\n        /* \"Marketplace.sol\":909:941  uint96 public marketFeeBps = 250 */\n    tag_5:\n      callvalue\n      dup1\n      iszero\n      tag_36\n      jumpi\n      revert(0x00, 0x00)\n    tag_36:\n      pop\n      tag_37\n      tag_38\n      jump\t// in\n    tag_37:\n      mload(0x40)\n      tag_39\n      swap2\n      swap1\n      tag_40\n      jump\t// in\n    tag_39:\n      mload(0x40)\n      dup1\n      swap2\n      sub\n      swap1\n      return\n        /* \"Marketplace.sol\":4310:4878  function buyItemWithERC20(uint256 listingId, uint256 amount) external nonReentrant {... */\n    tag_6:\n      callvalue\n      dup1\n      iszero\n      tag_41\n      jumpi\n      revert(0x00, 0x00)\n    tag_41:\n      pop\n      tag_42\n      0x04\n      dup1\n      calldatasize\n      sub\n      dup2\n      add\n      swap1\n      tag_43\n      swap2\n      swap1\n      tag_44\n      jump\t// in\n    tag_43:\n      tag_45\n      jump\t// in\n    tag_42:\n      stop\n        /* \"Marketplace.sol\":963:990  address public feeRecipient */\n    tag_7:\n      callvalue\n      dup1\n      iszero\n      tag_46\n      jumpi\n      revert(0x00, 0x00)\n    tag_46:\n      pop\n      tag_47\n      tag_48\n      jump\t// in\n    tag_47:\n      mload(0x40)\n      tag_49\n      swap2\n      swap1\n      tag_50\n      jump\t// in\n    tag_49:\n      mload(0x40)\n      dup1\n      swap2\n      sub\n      swap1\n      return\n        /* \"Marketplace.sol\":2001:2135  function setMarketFee(uint96 bps) external onlyOwner {... */\n    tag_8:\n      callvalue\n      dup1\n      iszero\n      tag_51\n      jumpi\n      revert(0x00, 0x00)\n    tag_51:\n      pop\n      tag_52\n      0x04\n      dup1\n      calldatasize\n      sub\n      dup2\n      add\n      swap1\n      tag_53\n      swap2\n      swap1\n      tag_54\n      jump\t// in\n    tag_53:\n      tag_55\n      jump\t// in\n    tag_52:\n      stop\n        /* \"Marketplace.sol\":7963:8279  function withdrawERC20(address tokenAddress, uint256 amount, address to) external onlyOwner {... */\n    tag_9:\n      callvalue\n      dup1\n      iszero\n      tag_56\n      jumpi\n      revert(0x00, 0x00)\n    tag_56:\n      pop\n      tag_57\n      0x04\n      dup1\n      calldatasize\n      sub\n      dup2\n      add\n      swap1\n      tag_58\n      swap2\n      swap1\n      tag_59\n      jump\t// in\n    tag_58:\n      tag_60\n      jump\t// in\n    tag_57:\n      stop\n        /* \"@openzeppelin/contracts/access/Ownable.sol\":2293:2394  function renounceOwnership() public virtual onlyOwner {... */\n    tag_10:\n      callvalue\n      dup1\n      iszero\n      tag_61\n      jumpi\n      revert(0x00, 0x00)\n    tag_61:\n      pop\n      tag_62\n      tag_63\n      jump\t// in\n    tag_62:\n      stop\n        /* \"Marketplace.sol\":2456:3511  function listItem(address nftAddress, uint256 tokenId, uint256 price, address paymentToken,string calldata transactionCode) external nonReentrant {... */\n    tag_11:\n      callvalue\n      dup1\n      iszero\n      tag_64\n      jumpi\n      revert(0x00, 0x00)\n    tag_64:\n      pop\n      tag_65\n      0x04\n      dup1\n      calldatasize\n      sub\n      dup2\n      add\n      swap1\n      tag_66\n      swap2\n      swap1\n      tag_67\n      jump\t// in\n    tag_66:\n      tag_68\n      jump\t// in\n    tag_65:\n      stop\n        /* \"@openzeppelin/contracts/access/Ownable.sol\":1638:1723  function owner() public view virtual returns (address) {... */\n    tag_12:\n      callvalue\n      dup1\n      iszero\n      tag_69\n      jumpi\n      revert(0x00, 0x00)\n    tag_69:\n      pop\n      tag_70\n      tag_71\n      jump\t// in\n    tag_70:\n      mload(0x40)\n      tag_72\n      swap2\n      swap1\n      tag_50\n      jump\t// in\n    tag_72:\n      mload(0x40)\n      dup1\n      swap2\n      sub\n      swap1\n      return\n        /* \"Marketplace.sol\":2296:2425  function getMarketFeeInfo() external view onlyOwner returns(uint96, address) {... */\n    tag_13:\n      callvalue\n      dup1\n      iszero\n      tag_73\n      jumpi\n      revert(0x00, 0x00)\n    tag_73:\n      pop\n      tag_74\n      tag_75\n      jump\t// in\n    tag_74:\n      mload(0x40)\n      tag_76\n      swap3\n      swap2\n      swap1\n      tag_77\n      jump\t// in\n    tag_76:\n      mload(0x40)\n      dup1\n      swap2\n      sub\n      swap1\n      return\n        /* \"Marketplace.sol\":1065:1108  mapping(uint256 => Listing) public listings */\n    tag_14:\n      callvalue\n      dup1\n      iszero\n      tag_78\n      jumpi\n      revert(0x00, 0x00)\n    tag_78:\n      pop\n      tag_79\n      0x04\n      dup1\n      calldatasize\n      sub\n      dup2\n      add\n      swap1\n      tag_80\n      swap2\n      swap1\n      tag_29\n      jump\t// in\n    tag_80:\n      tag_81\n      jump\t// in\n    tag_79:\n      mload(0x40)\n      tag_82\n      swap7\n      swap6\n      swap5\n      swap4\n      swap3\n      swap2\n      swap1\n      tag_83\n      jump\t// in\n    tag_82:\n      mload(0x40)\n      dup1\n      swap2\n      sub\n      swap1\n      return\n        /* \"Marketplace.sol\":2164:2268  function setFeeRecipient(address recipient) external onlyOwner {... */\n    tag_15:\n      callvalue\n      dup1\n      iszero\n      tag_84\n      jumpi\n      revert(0x00, 0x00)\n    tag_84:\n      pop\n      tag_85\n      0x04\n      dup1\n      calldatasize\n      sub\n      dup2\n      add\n      swap1\n      tag_86\n      swap2\n      swap1\n      tag_87\n      jump\t// in\n    tag_86:\n      tag_88\n      jump\t// in\n    tag_85:\n      stop\n        /* \"Marketplace.sol\":3922:4272  function buyItem(uint256 listingId) external payable nonReentrant {... */\n    tag_16:\n      tag_89\n      0x04\n      dup1\n      calldatasize\n      sub\n      dup2\n      add\n      swap1\n      tag_90\n      swap2\n      swap1\n      tag_29\n      jump\t// in\n    tag_90:\n      tag_91\n      jump\t// in\n    tag_89:\n      stop\n        /* \"@openzeppelin/contracts/access/Ownable.sol\":2543:2758  function transferOwnership(address newOwner) public virtual onlyOwner {... */\n    tag_17:\n      callvalue\n      dup1\n      iszero\n      tag_92\n      jumpi\n      revert(0x00, 0x00)\n    tag_92:\n      pop\n      tag_93\n      0x04\n      dup1\n      calldatasize\n      sub\n      dup2\n      add\n      swap1\n      tag_94\n      swap2\n      swap1\n      tag_87\n      jump\t// in\n    tag_94:\n      tag_95\n      jump\t// in\n    tag_93:\n      stop\n        /* \"Marketplace.sol\":1190:1260  mapping(address => mapping(uint256 => uint256)) public activeListingOf */\n    tag_18:\n      callvalue\n      dup1\n      iszero\n      tag_96\n      jumpi\n      revert(0x00, 0x00)\n    tag_96:\n      pop\n      tag_97\n      0x04\n      dup1\n      calldatasize\n      sub\n      dup2\n      add\n      swap1\n      tag_98\n      swap2\n      swap1\n      tag_99\n      jump\t// in\n    tag_98:\n      tag_100\n      jump\t// in\n    tag_97:\n      mload(0x40)\n      tag_101\n      swap2\n      swap1\n      tag_102\n      jump\t// in\n    tag_101:\n      mload(0x40)\n      dup1\n      swap2\n      sub\n      swap1\n      return\n        /* \"Marketplace.sol\":3517:3886  function cancelListing(uint256 listingId) external nonReentrant {... */\n    tag_30:\n        /* \"@openzeppelin/contracts/utils/ReentrancyGuard.sol\":2500:2521  _nonReentrantBefore() */\n      tag_104\n        /* \"@openzeppelin/contracts/utils/ReentrancyGuard.sol\":2500:2519  _nonReentrantBefore */\n      tag_105\n        /* \"@openzeppelin/contracts/utils/ReentrancyGuard.sol\":2500:2521  _nonReentrantBefore() */\n      jump\t// in\n    tag_104:\n        /* \"Marketplace.sol\":3591:3608  Listing storage l */\n      0x00\n        /* \"Marketplace.sol\":3611:3619  listings */\n      0x04\n        /* \"Marketplace.sol\":3611:3630  listings[listingId] */\n      0x00\n        /* \"Marketplace.sol\":3620:3629  listingId */\n      dup4\n        /* \"Marketplace.sol\":3611:3630  listings[listingId] */\n      dup2\n      mstore\n      0x20\n      add\n      swap1\n      dup2\n      mstore\n      0x20\n      add\n      0x00\n      keccak256\n        /* \"Marketplace.sol\":3591:3630  Listing storage l = listings[listingId] */\n      swap1\n      pop\n        /* \"Marketplace.sol\":3648:3649  l */\n      dup1\n        /* \"Marketplace.sol\":3648:3656  l.active */\n      0x04\n      add\n      0x14\n      swap1\n      sload\n      swap1\n      0x0100\n      exp\n      swap1\n      div\n      0xff\n      and\n        /* \"Marketplace.sol\":3640:3671  require(l.active, \"not active\") */\n      tag_107\n      jumpi\n      mload(0x40)\n      0x08c379a000000000000000000000000000000000000000000000000000000000\n      dup2\n      mstore\n      0x04\n      add\n      tag_108\n      swap1\n      tag_109\n      jump\t// in\n    tag_108:\n      mload(0x40)\n      dup1\n      swap2\n      sub\n      swap1\n      revert\n    tag_107:\n        /* \"Marketplace.sol\":3701:3711  msg.sender */\n      caller\n        /* \"Marketplace.sol\":3689:3711  l.seller == msg.sender */\n      0xffffffffffffffffffffffffffffffffffffffff\n      and\n        /* \"Marketplace.sol\":3689:3690  l */\n      dup2\n        /* \"Marketplace.sol\":3689:3697  l.seller */\n      0x00\n      add\n      0x00\n      swap1\n      sload\n      swap1\n      0x0100\n      exp\n      swap1\n      div\n      0xffffffffffffffffffffffffffffffffffffffff\n      and\n        /* \"Marketplace.sol\":3689:3711  l.seller == msg.sender */\n      0xffffffffffffffffffffffffffffffffffffffff\n      and\n      eq\n        /* \"Marketplace.sol\":3689:3736  l.seller == msg.sender || owner() == msg.sender */\n      dup1\n      tag_110\n      jumpi\n      pop\n        /* \"Marketplace.sol\":3726:3736  msg.sender */\n      caller\n        /* \"Marketplace.sol\":3715:3736  owner() == msg.sender */\n      0xffffffffffffffffffffffffffffffffffffffff\n      and\n        /* \"Marketplace.sol\":3715:3722  owner() */\n      tag_111\n        /* \"Marketplace.sol\":3715:3720  owner */\n      tag_71\n        /* \"Marketplace.sol\":3715:3722  owner() */\n      jump\t// in\n    tag_111:\n        /* \"Marketplace.sol\":3715:3736  owner() == msg.sender */\n      0xffffffffffffffffffffffffffffffffffffffff\n      and\n      eq\n        /* \"Marketplace.sol\":3689:3736  l.seller == msg.sender || owner() == msg.sender */\n    tag_110:\n        /* \"Marketplace.sol\":3681:3752  require(l.seller == msg.sender || owner() == msg.sender, \"not allowed\") */\n      tag_112\n      jumpi\n      mload(0x40)\n      0x08c379a000000000000000000000000000000000000000000000000000000000\n      dup2\n      mstore\n      0x04\n      add\n      tag_113\n      swap1\n      tag_114\n      jump\t// in\n    tag_113:\n      mload(0x40)\n      dup1\n      swap2\n      sub\n      swap1\n      revert\n    tag_112:\n        /* \"Marketplace.sol\":3773:3778  false */\n      0x00\n        /* \"Marketplace.sol\":3762:3763  l */\n      dup2\n        /* \"Marketplace.sol\":3762:3770  l.active */\n      0x04\n      add\n      0x14\n        /* \"Marketplace.sol\":3762:3778  l.active = false */\n      0x0100\n      exp\n      dup2\n      sload\n      dup2\n      0xff\n      mul\n      not\n      and\n      swap1\n      dup4\n      iszero\n      iszero\n      mul\n      or\n      swap1\n      sstore\n      pop\n        /* \"Marketplace.sol\":3831:3832  0 */\n      0x00\n        /* \"Marketplace.sol\":3788:3803  activeListingOf */\n      0x05\n        /* \"Marketplace.sol\":3788:3817  activeListingOf[l.nftAddress] */\n      0x00\n        /* \"Marketplace.sol\":3804:3805  l */\n      dup4\n        /* \"Marketplace.sol\":3804:3816  l.nftAddress */\n      0x01\n      add\n      0x00\n      swap1\n      sload\n      swap1\n      0x0100\n      exp\n      swap1\n      div\n      0xffffffffffffffffffffffffffffffffffffffff\n      and\n        /* \"Marketplace.sol\":3788:3817  activeListingOf[l.nftAddress] */\n      0xffffffffffffffffffffffffffffffffffffffff\n      and\n      0xffffffffffffffffffffffffffffffffffffffff\n      and\n      dup2\n      mstore\n      0x20\n      add\n      swap1\n      dup2\n      mstore\n      0x20\n      add\n      0x00\n      keccak256\n        /* \"Marketplace.sol\":3788:3828  activeListingOf[l.nftAddress][l.tokenId] */\n      0x00\n        /* \"Marketplace.sol\":3818:3819  l */\n      dup4\n        /* \"Marketplace.sol\":3818:3827  l.tokenId */\n      0x02\n      add\n      sload\n        /* \"Marketplace.sol\":3788:3828  activeListingOf[l.nftAddress][l.tokenId] */\n      dup2\n      mstore\n      0x20\n      add\n      swap1\n      dup2\n      mstore\n      0x20\n      add\n      0x00\n      keccak256\n        /* \"Marketplace.sol\":3788:3832  activeListingOf[l.nftAddress][l.tokenId] = 0 */\n      dup2\n      swap1\n      sstore\n      pop\n        /* \"Marketplace.sol\":3868:3878  msg.sender */\n      caller\n        /* \"Marketplace.sol\":3847:3879  Cancelled(listingId, msg.sender) */\n      0xffffffffffffffffffffffffffffffffffffffff\n      and\n        /* \"Marketplace.sol\":3857:3866  listingId */\n      dup3\n        /* \"Marketplace.sol\":3847:3879  Cancelled(listingId, msg.sender) */\n      0x26deca31ff8139a06c52453ce8985d34f7648a6d9af1d283c4063d052c355a0f\n      mload(0x40)\n      mload(0x40)\n      dup1\n      swap2\n      sub\n      swap1\n      log3\n        /* \"Marketplace.sol\":3581:3886  {... */\n      pop\n        /* \"@openzeppelin/contracts/utils/ReentrancyGuard.sol\":2542:2562  _nonReentrantAfter() */\n      tag_115\n        /* \"@openzeppelin/contracts/utils/ReentrancyGuard.sol\":2542:2560  _nonReentrantAfter */\n      tag_116\n        /* \"@openzeppelin/contracts/utils/ReentrancyGuard.sol\":2542:2562  _nonReentrantAfter() */\n      jump\t// in\n    tag_115:\n        /* \"Marketplace.sol\":3517:3886  function cancelListing(uint256 listingId) external nonReentrant {... */\n      pop\n      jump\t// out\n        /* \"Marketplace.sol\":7843:7957  function withdrawETH(uint256 amount, address to) external onlyOwner {... */\n    tag_35:\n        /* \"@openzeppelin/contracts/access/Ownable.sol\":1531:1544  _checkOwner() */\n      tag_118\n        /* \"@openzeppelin/contracts/access/Ownable.sol\":1531:1542  _checkOwner */\n      tag_119\n        /* \"@openzeppelin/contracts/access/Ownable.sol\":1531:1544  _checkOwner() */\n      jump\t// in\n    tag_118:\n        /* \"Marketplace.sol\":7921:7950  payable(to).sendValue(amount) */\n      tag_121\n        /* \"Marketplace.sol\":7943:7949  amount */\n      dup3\n        /* \"Marketplace.sol\":7929:7931  to */\n      dup3\n        /* \"Marketplace.sol\":7921:7942  payable(to).sendValue */\n      0xffffffffffffffffffffffffffffffffffffffff\n      and\n      tag_122\n      swap1\n        /* \"Marketplace.sol\":7921:7950  payable(to).sendValue(amount) */\n      swap2\n      swap1\n      0xffffffff\n      and\n      jump\t// in\n    tag_121:\n        /* \"Marketplace.sol\":7843:7957  function withdrawETH(uint256 amount, address to) external onlyOwner {... */\n      pop\n      pop\n      jump\t// out\n        /* \"Marketplace.sol\":909:941  uint96 public marketFeeBps = 250 */\n    tag_38:\n      0x01\n      0x14\n      swap1\n      sload\n      swap1\n      0x0100\n      exp\n      swap1\n      div\n      0xffffffffffffffffffffffff\n      and\n      dup2\n      jump\t// out\n        /* \"Marketplace.sol\":4310:4878  function buyItemWithERC20(uint256 listingId, uint256 amount) external nonReentrant {... */\n    tag_45:\n        /* \"@openzeppelin/contracts/utils/ReentrancyGuard.sol\":2500:2521  _nonReentrantBefore() */\n      tag_124\n        /* \"@openzeppelin/contracts/utils/ReentrancyGuard.sol\":2500:2519  _nonReentrantBefore */\n      tag_105\n        /* \"@openzeppelin/contracts/utils/ReentrancyGuard.sol\":2500:2521  _nonReentrantBefore() */\n      jump\t// in\n    tag_124:\n        /* \"Marketplace.sol\":4403:4420  Listing storage l */\n      0x00\n        /* \"Marketplace.sol\":4423:4431  listings */\n      0x04\n        /* \"Marketplace.sol\":4423:4442  listings[listingId] */\n      0x00\n        /* \"Marketplace.sol\":4432:4441  listingId */\n      dup5\n        /* \"Marketplace.sol\":4423:4442  listings[listingId] */\n      dup2\n      mstore\n      0x20\n      add\n      swap1\n      dup2\n      mstore\n      0x20\n      add\n      0x00\n      keccak256\n        /* \"Marketplace.sol\":4403:4442  Listing storage l = listings[listingId] */\n      swap1\n      pop\n        /* \"Marketplace.sol\":4460:4461  l */\n      dup1\n        /* \"Marketplace.sol\":4460:4468  l.active */\n      0x04\n      add\n      0x14\n      swap1\n      sload\n      swap1\n      0x0100\n      exp\n      swap1\n      div\n      0xff\n      and\n        /* \"Marketplace.sol\":4452:4483  require(l.active, \"not active\") */\n      tag_126\n      jumpi\n      mload(0x40)\n      0x08c379a000000000000000000000000000000000000000000000000000000000\n      dup2\n      mstore\n      0x04\n      add\n      tag_127\n      swap1\n      tag_109\n      jump\t// in\n    tag_127:\n      mload(0x40)\n      dup1\n      swap2\n      sub\n      swap1\n      revert\n    tag_126:\n        /* \"Marketplace.sol\":4527:4528  0 */\n      0x00\n        /* \"Marketplace.sol\":4501:4529  l.paymentToken != address(0) */\n      0xffffffffffffffffffffffffffffffffffffffff\n      and\n        /* \"Marketplace.sol\":4501:4502  l */\n      dup2\n        /* \"Marketplace.sol\":4501:4515  l.paymentToken */\n      0x04\n      add\n      0x00\n      swap1\n      sload\n      swap1\n      0x0100\n      exp\n      swap1\n      div\n      0xffffffffffffffffffffffffffffffffffffffff\n      and\n        /* \"Marketplace.sol\":4501:4529  l.paymentToken != address(0) */\n      0xffffffffffffffffffffffffffffffffffffffff\n      and\n      sub\n        /* \"Marketplace.sol\":4493:4553  require(l.paymentToken != address(0), \"paymentToken is ETH\") */\n      tag_128\n      jumpi\n      mload(0x40)\n      0x08c379a000000000000000000000000000000000000000000000000000000000\n      dup2\n      mstore\n      0x04\n      add\n      tag_129\n      swap1\n      tag_130\n      jump\t// in\n    tag_129:\n      mload(0x40)\n      dup1\n      swap2\n      sub\n      swap1\n      revert\n    tag_128:\n        /* \"Marketplace.sol\":4581:4582  l */\n      dup1\n        /* \"Marketplace.sol\":4581:4588  l.price */\n      0x03\n      add\n      sload\n        /* \"Marketplace.sol\":4571:4577  amount */\n      dup3\n        /* \"Marketplace.sol\":4571:4588  amount == l.price */\n      eq\n        /* \"Marketplace.sol\":4563:4605  require(amount == l.price, \"wrong amount\") */\n      tag_131\n      jumpi\n      mload(0x40)\n      0x08c379a000000000000000000000000000000000000000000000000000000000\n      dup2\n      mstore\n      0x04\n      add\n      tag_132\n      swap1\n      tag_133\n      jump\t// in\n    tag_132:\n      mload(0x40)\n      dup1\n      swap2\n      sub\n      swap1\n      revert\n    tag_131:\n        /* \"Marketplace.sol\":4616:4628  IERC20 token */\n      0x00\n        /* \"Marketplace.sol\":4638:4639  l */\n      dup2\n        /* \"Marketplace.sol\":4638:4652  l.paymentToken */\n      0x04\n      add\n      0x00\n      swap1\n      sload\n      swap1\n      0x0100\n      exp\n      swap1\n      div\n      0xffffffffffffffffffffffffffffffffffffffff\n      and\n        /* \"Marketplace.sol\":4616:4653  IERC20 token = IERC20(l.paymentToken) */\n      swap1\n      pop\n        /* \"Marketplace.sol\":4724:4729  token */\n      dup1\n        /* \"Marketplace.sol\":4724:4742  token.transferFrom */\n      0xffffffffffffffffffffffffffffffffffffffff\n      and\n      0x23b872dd\n        /* \"Marketplace.sol\":4743:4753  msg.sender */\n      caller\n        /* \"Marketplace.sol\":4763:4767  this */\n      address\n        /* \"Marketplace.sol\":4770:4776  amount */\n      dup7\n        /* \"Marketplace.sol\":4724:4777  token.transferFrom(msg.sender, address(this), amount) */\n      mload(0x40)\n      dup5\n      0xffffffff\n      and\n      0xe0\n      shl\n      dup2\n      mstore\n      0x04\n      add\n      tag_134\n      swap4\n      swap3\n      swap2\n      swap1\n      tag_135\n      jump\t// in\n    tag_134:\n      0x20\n      mload(0x40)\n      dup1\n      dup4\n      sub\n      dup2\n      0x00\n      dup8\n      gas\n      call\n      iszero\n      dup1\n      iszero\n      tag_137\n      jumpi\n      returndatacopy(0x00, 0x00, returndatasize)\n      revert(0x00, returndatasize)\n    tag_137:\n      pop\n      pop\n      pop\n      pop\n      mload(0x40)\n      returndatasize\n      not(0x1f)\n      0x1f\n      dup3\n      add\n      and\n      dup3\n      add\n      dup1\n      0x40\n      mstore\n      pop\n      dup2\n      add\n      swap1\n      tag_138\n      swap2\n      swap1\n      tag_139\n      jump\t// in\n    tag_138:\n        /* \"Marketplace.sol\":4716:4801  require(token.transferFrom(msg.sender, address(this), amount), \"transferFrom failed\") */\n      tag_140\n      jumpi\n      mload(0x40)\n      0x08c379a000000000000000000000000000000000000000000000000000000000\n      dup2\n      mstore\n      0x04\n      add\n      tag_141\n      swap1\n      tag_142\n      jump\t// in\n    tag_141:\n      mload(0x40)\n      dup1\n      swap2\n      sub\n      swap1\n      revert\n    tag_140:\n        /* \"Marketplace.sol\":4812:4871  _executeSale(listingId, msg.sender, amount, l.paymentToken) */\n      tag_143\n        /* \"Marketplace.sol\":4825:4834  listingId */\n      dup5\n        /* \"Marketplace.sol\":4836:4846  msg.sender */\n      caller\n        /* \"Marketplace.sol\":4848:4854  amount */\n      dup6\n        /* \"Marketplace.sol\":4856:4857  l */\n      dup6\n        /* \"Marketplace.sol\":4856:4870  l.paymentToken */\n      0x04\n      add\n      0x00\n      swap1\n      sload\n      swap1\n      0x0100\n      exp\n      swap1\n      div\n      0xffffffffffffffffffffffffffffffffffffffff\n      and\n        /* \"Marketplace.sol\":4812:4824  _executeSale */\n      tag_144\n        /* \"Marketplace.sol\":4812:4871  _executeSale(listingId, msg.sender, amount, l.paymentToken) */\n      jump\t// in\n    tag_143:\n        /* \"Marketplace.sol\":4393:4878  {... */\n      pop\n      pop\n        /* \"@openzeppelin/contracts/utils/ReentrancyGuard.sol\":2542:2562  _nonReentrantAfter() */\n      tag_145\n        /* \"@openzeppelin/contracts/utils/ReentrancyGuard.sol\":2542:2560  _nonReentrantAfter */\n      tag_116\n        /* \"@openzeppelin/contracts/utils/ReentrancyGuard.sol\":2542:2562  _nonReentrantAfter() */\n      jump\t// in\n    tag_145:\n        /* \"Marketplace.sol\":4310:4878  function buyItemWithERC20(uint256 listingId, uint256 amount) external nonReentrant {... */\n      pop\n      pop\n      jump\t// out\n        /* \"Marketplace.sol\":963:990  address public feeRecipient */\n    tag_48:\n      0x02\n      0x00\n      swap1\n      sload\n      swap1\n      0x0100\n      exp\n      swap1\n      div\n      0xffffffffffffffffffffffffffffffffffffffff\n      and\n      dup2\n      jump\t// out\n        /* \"Marketplace.sol\":2001:2135  function setMarketFee(uint96 bps) external onlyOwner {... */\n    tag_55:\n        /* \"@openzeppelin/contracts/access/Ownable.sol\":1531:1544  _checkOwner() */\n      tag_147\n        /* \"@openzeppelin/contracts/access/Ownable.sol\":1531:1542  _checkOwner */\n      tag_119\n        /* \"@openzeppelin/contracts/access/Ownable.sol\":1531:1544  _checkOwner() */\n      jump\t// in\n    tag_147:\n        /* \"Marketplace.sol\":2079:2084  10000 */\n      0x2710\n        /* \"Marketplace.sol\":2072:2075  bps */\n      dup2\n        /* \"Marketplace.sol\":2072:2084  bps <= 10000 */\n      0xffffffffffffffffffffffff\n      and\n      gt\n      iszero\n        /* \"Marketplace.sol\":2064:2100  require(bps <= 10000, \"invalid bps\") */\n      tag_149\n      jumpi\n      mload(0x40)\n      0x08c379a000000000000000000000000000000000000000000000000000000000\n      dup2\n      mstore\n      0x04\n      add\n      tag_150\n      swap1\n      tag_151\n      jump\t// in\n    tag_150:\n      mload(0x40)\n      dup1\n      swap2\n      sub\n      swap1\n      revert\n    tag_149:\n        /* \"Marketplace.sol\":2125:2128  bps */\n      dup1\n        /* \"Marketplace.sol\":2110:2122  marketFeeBps */\n      0x01\n      0x14\n        /* \"Marketplace.sol\":2110:2128  marketFeeBps = bps */\n      0x0100\n      exp\n      dup2\n      sload\n      dup2\n      0xffffffffffffffffffffffff\n      mul\n      not\n      and\n      swap1\n      dup4\n      0xffffffffffffffffffffffff\n      and\n      mul\n      or\n      swap1\n      sstore\n      pop\n        /* \"Marketplace.sol\":2001:2135  function setMarketFee(uint96 bps) external onlyOwner {... */\n      pop\n      jump\t// out\n        /* \"Marketplace.sol\":7963:8279  function withdrawERC20(address tokenAddress, uint256 amount, address to) external onlyOwner {... */\n    tag_60:\n        /* \"@openzeppelin/contracts/access/Ownable.sol\":1531:1544  _checkOwner() */\n      tag_153\n        /* \"@openzeppelin/contracts/access/Ownable.sol\":1531:1542  _checkOwner */\n      tag_119\n        /* \"@openzeppelin/contracts/access/Ownable.sol\":1531:1544  _checkOwner() */\n      jump\t// in\n    tag_153:\n        /* \"Marketplace.sol\":8167:8179  IERC20 token */\n      0x00\n        /* \"Marketplace.sol\":8189:8201  tokenAddress */\n      dup4\n        /* \"Marketplace.sol\":8167:8202  IERC20 token = IERC20(tokenAddress) */\n      swap1\n      pop\n        /* \"Marketplace.sol\":8220:8225  token */\n      dup1\n        /* \"Marketplace.sol\":8220:8234  token.transfer */\n      0xffffffffffffffffffffffffffffffffffffffff\n      and\n      0xa9059cbb\n        /* \"Marketplace.sol\":8235:8237  to */\n      dup4\n        /* \"Marketplace.sol\":8239:8245  amount */\n      dup6\n        /* \"Marketplace.sol\":8220:8246  token.transfer(to, amount) */\n      mload(0x40)\n      dup4\n      0xffffffff\n      and\n      0xe0\n      shl\n      dup2\n      mstore\n      0x04\n      add\n      tag_155\n      swap3\n      swap2\n      swap1\n      tag_156\n      jump\t// in\n    tag_155:\n      0x20\n      mload(0x40)\n      dup1\n      dup4\n      sub\n      dup2\n      0x00\n      dup8\n      gas\n      call\n      iszero\n      dup1\n      iszero\n      tag_158\n      jumpi\n      returndatacopy(0x00, 0x00, returndatasize)\n      revert(0x00, returndatasize)\n    tag_158:\n      pop\n      pop\n      pop\n      pop\n      mload(0x40)\n      returndatasize\n      not(0x1f)\n      0x1f\n      dup3\n      add\n      and\n      dup3\n      add\n      dup1\n      0x40\n      mstore\n      pop\n      dup2\n      add\n      swap1\n      tag_159\n      swap2\n      swap1\n      tag_139\n      jump\t// in\n    tag_159:\n        /* \"Marketplace.sol\":8212:8272  require(token.transfer(to, amount), \"ERC20 transfer failed\") */\n      tag_160\n      jumpi\n      mload(0x40)\n      0x08c379a000000000000000000000000000000000000000000000000000000000\n      dup2\n      mstore\n      0x04\n      add\n      tag_161\n      swap1\n      tag_162\n      jump\t// in\n    tag_161:\n      mload(0x40)\n      dup1\n      swap2\n      sub\n      swap1\n      revert\n    tag_160:\n        /* \"Marketplace.sol\":8055:8279  {... */\n      pop\n        /* \"Marketplace.sol\":7963:8279  function withdrawERC20(address tokenAddress, uint256 amount, address to) external onlyOwner {... */\n      pop\n      pop\n      pop\n      jump\t// out\n        /* \"@openzeppelin/contracts/access/Ownable.sol\":2293:2394  function renounceOwnership() public virtual onlyOwner {... */\n    tag_63:\n        /* \"@openzeppelin/contracts/access/Ownable.sol\":1531:1544  _checkOwner() */\n      tag_164\n        /* \"@openzeppelin/contracts/access/Ownable.sol\":1531:1542  _checkOwner */\n      tag_119\n        /* \"@openzeppelin/contracts/access/Ownable.sol\":1531:1544  _checkOwner() */\n      jump\t// in\n    tag_164:\n        /* \"@openzeppelin/contracts/access/Ownable.sol\":2357:2387  _transferOwnership(address(0)) */\n      tag_166\n        /* \"@openzeppelin/contracts/access/Ownable.sol\":2384:2385  0 */\n      0x00\n        /* \"@openzeppelin/contracts/access/Ownable.sol\":2357:2375  _transferOwnership */\n      tag_167\n        /* \"@openzeppelin/contracts/access/Ownable.sol\":2357:2387  _transferOwnership(address(0)) */\n      jump\t// in\n    tag_166:\n        /* \"@openzeppelin/contracts/access/Ownable.sol\":2293:2394  function renounceOwnership() public virtual onlyOwner {... */\n      jump\t// out\n        /* \"Marketplace.sol\":2456:3511  function listItem(address nftAddress, uint256 tokenId, uint256 price, address paymentToken,string calldata transactionCode) external nonReentrant {... */\n    tag_68:\n        /* \"@openzeppelin/contracts/utils/ReentrancyGuard.sol\":2500:2521  _nonReentrantBefore() */\n      tag_169\n        /* \"@openzeppelin/contracts/utils/ReentrancyGuard.sol\":2500:2519  _nonReentrantBefore */\n      tag_105\n        /* \"@openzeppelin/contracts/utils/ReentrancyGuard.sol\":2500:2521  _nonReentrantBefore() */\n      jump\t// in\n    tag_169:\n        /* \"Marketplace.sol\":2628:2629  0 */\n      0x00\n        /* \"Marketplace.sol\":2620:2625  price */\n      dup5\n        /* \"Marketplace.sol\":2620:2629  price > 0 */\n      gt\n        /* \"Marketplace.sol\":2612:2643  require(price > 0, \"price > 0\") */\n      tag_171\n      jumpi\n      mload(0x40)\n      0x08c379a000000000000000000000000000000000000000000000000000000000\n      dup2\n      mstore\n      0x04\n      add\n      tag_172\n      swap1\n      tag_173\n      jump\t// in\n    tag_172:\n      mload(0x40)\n      dup1\n      swap2\n      sub\n      swap1\n      revert\n    tag_171:\n        /* \"Marketplace.sol\":2653:2664  IERC721 nft */\n      0x00\n        /* \"Marketplace.sol\":2675:2685  nftAddress */\n      dup7\n        /* \"Marketplace.sol\":2653:2686  IERC721 nft = IERC721(nftAddress) */\n      swap1\n      pop\n        /* \"Marketplace.sol\":2696:2716  address ownerOfToken */\n      0x00\n        /* \"Marketplace.sol\":2719:2722  nft */\n      dup2\n        /* \"Marketplace.sol\":2719:2730  nft.ownerOf */\n      0xffffffffffffffffffffffffffffffffffffffff\n      and\n      0x6352211e\n        /* \"Marketplace.sol\":2731:2738  tokenId */\n      dup9\n        /* \"Marketplace.sol\":2719:2739  nft.ownerOf(tokenId) */\n      mload(0x40)\n      dup3\n      0xffffffff\n      and\n      0xe0\n      shl\n      dup2\n      mstore\n      0x04\n      add\n      tag_174\n      swap2\n      swap1\n      tag_102\n      jump\t// in\n    tag_174:\n      0x20\n      mload(0x40)\n      dup1\n      dup4\n      sub\n      dup2\n      dup7\n      gas\n      staticcall\n      iszero\n      dup1\n      iszero\n      tag_176\n      jumpi\n      returndatacopy(0x00, 0x00, returndatasize)\n      revert(0x00, returndatasize)\n    tag_176:\n      pop\n      pop\n      pop\n      pop\n      mload(0x40)\n      returndatasize\n      not(0x1f)\n      0x1f\n      dup3\n      add\n      and\n      dup3\n      add\n      dup1\n      0x40\n      mstore\n      pop\n      dup2\n      add\n      swap1\n      tag_177\n      swap2\n      swap1\n      tag_178\n      jump\t// in\n    tag_177:\n        /* \"Marketplace.sol\":2696:2739  address ownerOfToken = nft.ownerOf(tokenId) */\n      swap1\n      pop\n        /* \"Marketplace.sol\":2773:2783  msg.sender */\n      caller\n        /* \"Marketplace.sol\":2757:2783  ownerOfToken == msg.sender */\n      0xffffffffffffffffffffffffffffffffffffffff\n      and\n        /* \"Marketplace.sol\":2757:2769  ownerOfToken */\n      dup2\n        /* \"Marketplace.sol\":2757:2783  ownerOfToken == msg.sender */\n      0xffffffffffffffffffffffffffffffffffffffff\n      and\n      eq\n        /* \"Marketplace.sol\":2749:2797  require(ownerOfToken == msg.sender, \"not owner\") */\n      tag_179\n      jumpi\n      mload(0x40)\n      0x08c379a000000000000000000000000000000000000000000000000000000000\n      dup2\n      mstore\n      0x04\n      add\n      tag_180\n      swap1\n      tag_181\n      jump\t// in\n    tag_180:\n      mload(0x40)\n      dup1\n      swap2\n      sub\n      swap1\n      revert\n    tag_179:\n        /* \"Marketplace.sol\":2851:2855  this */\n      address\n        /* \"Marketplace.sol\":2815:2856  nft.getApproved(tokenId) == address(this) */\n      0xffffffffffffffffffffffffffffffffffffffff\n      and\n        /* \"Marketplace.sol\":2815:2818  nft */\n      dup3\n        /* \"Marketplace.sol\":2815:2830  nft.getApproved */\n      0xffffffffffffffffffffffffffffffffffffffff\n      and\n      0x081812fc\n        /* \"Marketplace.sol\":2831:2838  tokenId */\n      dup10\n        /* \"Marketplace.sol\":2815:2839  nft.getApproved(tokenId) */\n      mload(0x40)\n      dup3\n      0xffffffff\n      and\n      0xe0\n      shl\n      dup2\n      mstore\n      0x04\n      add\n      tag_182\n      swap2\n      swap1\n      tag_102\n      jump\t// in\n    tag_182:\n      0x20\n      mload(0x40)\n      dup1\n      dup4\n      sub\n      dup2\n      dup7\n      gas\n      staticcall\n      iszero\n      dup1\n      iszero\n      tag_184\n      jumpi\n      returndatacopy(0x00, 0x00, returndatasize)\n      revert(0x00, returndatasize)\n    tag_184:\n      pop\n      pop\n      pop\n      pop\n      mload(0x40)\n      returndatasize\n      not(0x1f)\n      0x1f\n      dup3\n      add\n      and\n      dup3\n      add\n      dup1\n      0x40\n      mstore\n      pop\n      dup2\n      add\n      swap1\n      tag_185\n      swap2\n      swap1\n      tag_178\n      jump\t// in\n    tag_185:\n        /* \"Marketplace.sol\":2815:2856  nft.getApproved(tokenId) == address(this) */\n      0xffffffffffffffffffffffffffffffffffffffff\n      and\n      eq\n        /* \"Marketplace.sol\":2815:2907  nft.getApproved(tokenId) == address(this) || nft.isApprovedForAll(msg.sender, address(this)) */\n      dup1\n      tag_186\n      jumpi\n      pop\n        /* \"Marketplace.sol\":2860:2863  nft */\n      dup2\n        /* \"Marketplace.sol\":2860:2880  nft.isApprovedForAll */\n      0xffffffffffffffffffffffffffffffffffffffff\n      and\n      0xe985e9c5\n        /* \"Marketplace.sol\":2881:2891  msg.sender */\n      caller\n        /* \"Marketplace.sol\":2901:2905  this */\n      address\n        /* \"Marketplace.sol\":2860:2907  nft.isApprovedForAll(msg.sender, address(this)) */\n      mload(0x40)\n      dup4\n      0xffffffff\n      and\n      0xe0\n      shl\n      dup2\n      mstore\n      0x04\n      add\n      tag_187\n      swap3\n      swap2\n      swap1\n      tag_188\n      jump\t// in\n    tag_187:\n      0x20\n      mload(0x40)\n      dup1\n      dup4\n      sub\n      dup2\n      dup7\n      gas\n      staticcall\n      iszero\n      dup1\n      iszero\n      tag_190\n      jumpi\n      returndatacopy(0x00, 0x00, returndatasize)\n      revert(0x00, returndatasize)\n    tag_190:\n      pop\n      pop\n      pop\n      pop\n      mload(0x40)\n      returndatasize\n      not(0x1f)\n      0x1f\n      dup3\n      add\n      and\n      dup3\n      add\n      dup1\n      0x40\n      mstore\n      pop\n      dup2\n      add\n      swap1\n      tag_191\n      swap2\n      swap1\n      tag_139\n      jump\t// in\n    tag_191:\n        /* \"Marketplace.sol\":2815:2907  nft.getApproved(tokenId) == address(this) || nft.isApprovedForAll(msg.sender, address(this)) */\n    tag_186:\n        /* \"Marketplace.sol\":2807:2936  require(nft.getApproved(tokenId) == address(this) || nft.isApprovedForAll(msg.sender, address(this)), \"marketplace not approved\") */\n      tag_192\n      jumpi\n      mload(0x40)\n      0x08c379a000000000000000000000000000000000000000000000000000000000\n      dup2\n      mstore\n      0x04\n      add\n      tag_193\n      swap1\n      tag_194\n      jump\t// in\n    tag_193:\n      mload(0x40)\n      dup1\n      swap2\n      sub\n      swap1\n      revert\n    tag_192:\n        /* \"Marketplace.sol\":3029:3030  0 */\n      0x00\n        /* \"Marketplace.sol\":2989:3004  activeListingOf */\n      0x05\n        /* \"Marketplace.sol\":2989:3016  activeListingOf[nftAddress] */\n      0x00\n        /* \"Marketplace.sol\":3005:3015  nftAddress */\n      dup11\n        /* \"Marketplace.sol\":2989:3016  activeListingOf[nftAddress] */\n      0xffffffffffffffffffffffffffffffffffffffff\n      and\n      0xffffffffffffffffffffffffffffffffffffffff\n      and\n      dup2\n      mstore\n      0x20\n      add\n      swap1\n      dup2\n      mstore\n      0x20\n      add\n      0x00\n      keccak256\n        /* \"Marketplace.sol\":2989:3025  activeListingOf[nftAddress][tokenId] */\n      0x00\n        /* \"Marketplace.sol\":3017:3024  tokenId */\n      dup10\n        /* \"Marketplace.sol\":2989:3025  activeListingOf[nftAddress][tokenId] */\n      dup2\n      mstore\n      0x20\n      add\n      swap1\n      dup2\n      mstore\n      0x20\n      add\n      0x00\n      keccak256\n      sload\n        /* \"Marketplace.sol\":2989:3030  activeListingOf[nftAddress][tokenId] == 0 */\n      eq\n        /* \"Marketplace.sol\":2981:3049  require(activeListingOf[nftAddress][tokenId] == 0, \"already listed\") */\n      tag_195\n      jumpi\n      mload(0x40)\n      0x08c379a000000000000000000000000000000000000000000000000000000000\n      dup2\n      mstore\n      0x04\n      add\n      tag_196\n      swap1\n      tag_197\n      jump\t// in\n    tag_196:\n      mload(0x40)\n      dup1\n      swap2\n      sub\n      swap1\n      revert\n    tag_195:\n        /* \"Marketplace.sol\":3060:3077  _listingIdCounter */\n      0x03\n      0x00\n        /* \"Marketplace.sol\":3060:3079  _listingIdCounter++ */\n      dup2\n      sload\n      dup1\n      swap3\n      swap2\n      swap1\n      tag_198\n      swap1\n      tag_199\n      jump\t// in\n    tag_198:\n      swap2\n      swap1\n      pop\n      sstore\n      pop\n        /* \"Marketplace.sol\":3089:3100  uint256 lid */\n      0x00\n        /* \"Marketplace.sol\":3103:3120  _listingIdCounter */\n      sload(0x03)\n        /* \"Marketplace.sol\":3089:3120  uint256 lid = _listingIdCounter */\n      swap1\n      pop\n        /* \"Marketplace.sol\":3146:3355  Listing({... */\n      mload(0x40)\n      dup1\n      0xc0\n      add\n      0x40\n      mstore\n      dup1\n        /* \"Marketplace.sol\":3176:3186  msg.sender */\n      caller\n        /* \"Marketplace.sol\":3146:3355  Listing({... */\n      0xffffffffffffffffffffffffffffffffffffffff\n      and\n      dup2\n      mstore\n      0x20\n      add\n        /* \"Marketplace.sol\":3212:3222  nftAddress */\n      dup11\n        /* \"Marketplace.sol\":3146:3355  Listing({... */\n      0xffffffffffffffffffffffffffffffffffffffff\n      and\n      dup2\n      mstore\n      0x20\n      add\n        /* \"Marketplace.sol\":3245:3252  tokenId */\n      dup10\n        /* \"Marketplace.sol\":3146:3355  Listing({... */\n      dup2\n      mstore\n      0x20\n      add\n        /* \"Marketplace.sol\":3273:3278  price */\n      dup9\n        /* \"Marketplace.sol\":3146:3355  Listing({... */\n      dup2\n      mstore\n      0x20\n      add\n        /* \"Marketplace.sol\":3306:3318  paymentToken */\n      dup8\n        /* \"Marketplace.sol\":3146:3355  Listing({... */\n      0xffffffffffffffffffffffffffffffffffffffff\n      and\n      dup2\n      mstore\n      0x20\n      add\n        /* \"Marketplace.sol\":3340:3344  true */\n      0x01\n        /* \"Marketplace.sol\":3146:3355  Listing({... */\n      iszero\n      iszero\n      dup2\n      mstore\n      pop\n        /* \"Marketplace.sol\":3130:3138  listings */\n      0x04\n        /* \"Marketplace.sol\":3130:3143  listings[lid] */\n      0x00\n        /* \"Marketplace.sol\":3139:3142  lid */\n      dup4\n        /* \"Marketplace.sol\":3130:3143  listings[lid] */\n      dup2\n      mstore\n      0x20\n      add\n      swap1\n      dup2\n      mstore\n      0x20\n      add\n      0x00\n      keccak256\n        /* \"Marketplace.sol\":3130:3355  listings[lid] = Listing({... */\n      0x00\n      dup3\n      add\n      mload\n      dup2\n      0x00\n      add\n      exp(0x0100, 0x00)\n      dup2\n      sload\n      dup2\n      0xffffffffffffffffffffffffffffffffffffffff\n      mul\n      not\n      and\n      swap1\n      dup4\n      0xffffffffffffffffffffffffffffffffffffffff\n      and\n      mul\n      or\n      swap1\n      sstore\n      pop\n      0x20\n      dup3\n      add\n      mload\n      dup2\n      0x01\n      add\n      exp(0x0100, 0x00)\n      dup2\n      sload\n      dup2\n      0xffffffffffffffffffffffffffffffffffffffff\n      mul\n      not\n      and\n      swap1\n      dup4\n      0xffffffffffffffffffffffffffffffffffffffff\n      and\n      mul\n      or\n      swap1\n      sstore\n      pop\n      0x40\n      dup3\n      add\n      mload\n      dup2\n      0x02\n      add\n      sstore\n      0x60\n      dup3\n      add\n      mload\n      dup2\n      0x03\n      add\n      sstore\n      0x80\n      dup3\n      add\n      mload\n      dup2\n      0x04\n      add\n      exp(0x0100, 0x00)\n      dup2\n      sload\n      dup2\n      0xffffffffffffffffffffffffffffffffffffffff\n      mul\n      not\n      and\n      swap1\n      dup4\n      0xffffffffffffffffffffffffffffffffffffffff\n      and\n      mul\n      or\n      swap1\n      sstore\n      pop\n      0xa0\n      dup3\n      add\n      mload\n      dup2\n      0x04\n      add\n      exp(0x0100, 0x14)\n      dup2\n      sload\n      dup2\n      0xff\n      mul\n      not\n      and\n      swap1\n      dup4\n      iszero\n      iszero\n      mul\n      or\n      swap1\n      sstore\n      pop\n      swap1\n      pop\n      pop\n        /* \"Marketplace.sol\":3404:3407  lid */\n      dup1\n        /* \"Marketplace.sol\":3365:3380  activeListingOf */\n      0x05\n        /* \"Marketplace.sol\":3365:3392  activeListingOf[nftAddress] */\n      0x00\n        /* \"Marketplace.sol\":3381:3391  nftAddress */\n      dup12\n        /* \"Marketplace.sol\":3365:3392  activeListingOf[nftAddress] */\n      0xffffffffffffffffffffffffffffffffffffffff\n      and\n      0xffffffffffffffffffffffffffffffffffffffff\n      and\n      dup2\n      mstore\n      0x20\n      add\n      swap1\n      dup2\n      mstore\n      0x20\n      add\n      0x00\n      keccak256\n        /* \"Marketplace.sol\":3365:3401  activeListingOf[nftAddress][tokenId] */\n      0x00\n        /* \"Marketplace.sol\":3393:3400  tokenId */\n      dup11\n        /* \"Marketplace.sol\":3365:3401  activeListingOf[nftAddress][tokenId] */\n      dup2\n      mstore\n      0x20\n      add\n      swap1\n      dup2\n      mstore\n      0x20\n      add\n      0x00\n      keccak256\n        /* \"Marketplace.sol\":3365:3407  activeListingOf[nftAddress][tokenId] = lid */\n      dup2\n      swap1\n      sstore\n      pop\n        /* \"Marketplace.sol\":3447:3457  nftAddress */\n      dup9\n        /* \"Marketplace.sol\":3423:3504  Listed(lid, msg.sender, nftAddress, tokenId, price, paymentToken,transactionCode) */\n      0xffffffffffffffffffffffffffffffffffffffff\n      and\n        /* \"Marketplace.sol\":3435:3445  msg.sender */\n      caller\n        /* \"Marketplace.sol\":3423:3504  Listed(lid, msg.sender, nftAddress, tokenId, price, paymentToken,transactionCode) */\n      0xffffffffffffffffffffffffffffffffffffffff\n      and\n        /* \"Marketplace.sol\":3430:3433  lid */\n      dup3\n        /* \"Marketplace.sol\":3423:3504  Listed(lid, msg.sender, nftAddress, tokenId, price, paymentToken,transactionCode) */\n      0x22d936527e415743fc8ea2031ba3768b0118924bc8aab73baa57178a4e19dddf\n        /* \"Marketplace.sol\":3459:3466  tokenId */\n      dup12\n        /* \"Marketplace.sol\":3468:3473  price */\n      dup12\n        /* \"Marketplace.sol\":3475:3487  paymentToken */\n      dup12\n        /* \"Marketplace.sol\":3488:3503  transactionCode */\n      dup12\n      dup12\n        /* \"Marketplace.sol\":3423:3504  Listed(lid, msg.sender, nftAddress, tokenId, price, paymentToken,transactionCode) */\n      mload(0x40)\n      tag_200\n      swap6\n      swap5\n      swap4\n      swap3\n      swap2\n      swap1\n      tag_201\n      jump\t// in\n    tag_200:\n      mload(0x40)\n      dup1\n      swap2\n      sub\n      swap1\n      log4\n        /* \"Marketplace.sol\":2602:3511  {... */\n      pop\n      pop\n      pop\n        /* \"@openzeppelin/contracts/utils/ReentrancyGuard.sol\":2542:2562  _nonReentrantAfter() */\n      tag_202\n        /* \"@openzeppelin/contracts/utils/ReentrancyGuard.sol\":2542:2560  _nonReentrantAfter */\n      tag_116\n        /* \"@openzeppelin/contracts/utils/ReentrancyGuard.sol\":2542:2562  _nonReentrantAfter() */\n      jump\t// in\n    tag_202:\n        /* \"Marketplace.sol\":2456:3511  function listItem(address nftAddress, uint256 tokenId, uint256 price, address paymentToken,string calldata transactionCode) external nonReentrant {... */\n      pop\n      pop\n      pop\n      pop\n      pop\n      pop\n      jump\t// out\n        /* \"@openzeppelin/contracts/access/Ownable.sol\":1638:1723  function owner() public view virtual returns (address) {... */\n    tag_71:\n        /* \"@openzeppelin/contracts/access/Ownable.sol\":1684:1691  address */\n      0x00\n        /* \"@openzeppelin/contracts/access/Ownable.sol\":1710:1716  _owner */\n      0x01\n      0x00\n      swap1\n      sload\n      swap1\n      0x0100\n      exp\n      swap1\n      div\n      0xffffffffffffffffffffffffffffffffffffffff\n      and\n        /* \"@openzeppelin/contracts/access/Ownable.sol\":1703:1716  return _owner */\n      swap1\n      pop\n        /* \"@openzeppelin/contracts/access/Ownable.sol\":1638:1723  function owner() public view virtual returns (address) {... */\n      swap1\n      jump\t// out\n        /* \"Marketplace.sol\":2296:2425  function getMarketFeeInfo() external view onlyOwner returns(uint96, address) {... */\n    tag_75:\n        /* \"Marketplace.sol\":2356:2362  uint96 */\n      0x00\n        /* \"Marketplace.sol\":2364:2371  address */\n      0x00\n        /* \"@openzeppelin/contracts/access/Ownable.sol\":1531:1544  _checkOwner() */\n      tag_205\n        /* \"@openzeppelin/contracts/access/Ownable.sol\":1531:1542  _checkOwner */\n      tag_119\n        /* \"@openzeppelin/contracts/access/Ownable.sol\":1531:1544  _checkOwner() */\n      jump\t// in\n    tag_205:\n        /* \"Marketplace.sol\":2391:2403  marketFeeBps */\n      0x01\n      0x14\n      swap1\n      sload\n      swap1\n      0x0100\n      exp\n      swap1\n      div\n      0xffffffffffffffffffffffff\n      and\n        /* \"Marketplace.sol\":2405:2417  feeRecipient */\n      0x02\n      0x00\n      swap1\n      sload\n      swap1\n      0x0100\n      exp\n      swap1\n      div\n      0xffffffffffffffffffffffffffffffffffffffff\n      and\n        /* \"Marketplace.sol\":2383:2418  return (marketFeeBps, feeRecipient) */\n      swap2\n      pop\n      swap2\n      pop\n        /* \"Marketplace.sol\":2296:2425  function getMarketFeeInfo() external view onlyOwner returns(uint96, address) {... */\n      swap1\n      swap2\n      jump\t// out\n        /* \"Marketplace.sol\":1065:1108  mapping(uint256 => Listing) public listings */\n    tag_81:\n      mstore(0x20, 0x04)\n      dup1\n      0x00\n      mstore\n      keccak256(0x00, 0x40)\n      0x00\n      swap2\n      pop\n      swap1\n      pop\n      dup1\n      0x00\n      add\n      0x00\n      swap1\n      sload\n      swap1\n      0x0100\n      exp\n      swap1\n      div\n      0xffffffffffffffffffffffffffffffffffffffff\n      and\n      swap1\n      dup1\n      0x01\n      add\n      0x00\n      swap1\n      sload\n      swap1\n      0x0100\n      exp\n      swap1\n      div\n      0xffffffffffffffffffffffffffffffffffffffff\n      and\n      swap1\n      dup1\n      0x02\n      add\n      sload\n      swap1\n      dup1\n      0x03\n      add\n      sload\n      swap1\n      dup1\n      0x04\n      add\n      0x00\n      swap1\n      sload\n      swap1\n      0x0100\n      exp\n      swap1\n      div\n      0xffffffffffffffffffffffffffffffffffffffff\n      and\n      swap1\n      dup1\n      0x04\n      add\n      0x14\n      swap1\n      sload\n      swap1\n      0x0100\n      exp\n      swap1\n      div\n      0xff\n      and\n      swap1\n      pop\n      dup7\n      jump\t// out\n        /* \"Marketplace.sol\":2164:2268  function setFeeRecipient(address recipient) external onlyOwner {... */\n    tag_88:\n        /* \"@openzeppelin/contracts/access/Ownable.sol\":1531:1544  _checkOwner() */\n      tag_208\n        /* \"@openzeppelin/contracts/access/Ownable.sol\":1531:1542  _checkOwner */\n      tag_119\n        /* \"@openzeppelin/contracts/access/Ownable.sol\":1531:1544  _checkOwner() */\n      jump\t// in\n    tag_208:\n        /* \"Marketplace.sol\":2252:2261  recipient */\n      dup1\n        /* \"Marketplace.sol\":2237:2249  feeRecipient */\n      0x02\n      0x00\n        /* \"Marketplace.sol\":2237:2261  feeRecipient = recipient */\n      0x0100\n      exp\n      dup2\n      sload\n      dup2\n      0xffffffffffffffffffffffffffffffffffffffff\n      mul\n      not\n      and\n      swap1\n      dup4\n      0xffffffffffffffffffffffffffffffffffffffff\n      and\n      mul\n      or\n      swap1\n      sstore\n      pop\n        /* \"Marketplace.sol\":2164:2268  function setFeeRecipient(address recipient) external onlyOwner {... */\n      pop\n      jump\t// out\n        /* \"Marketplace.sol\":3922:4272  function buyItem(uint256 listingId) external payable nonReentrant {... */\n    tag_91:\n        /* \"@openzeppelin/contracts/utils/ReentrancyGuard.sol\":2500:2521  _nonReentrantBefore() */\n      tag_211\n        /* \"@openzeppelin/contracts/utils/ReentrancyGuard.sol\":2500:2519  _nonReentrantBefore */\n      tag_105\n        /* \"@openzeppelin/contracts/utils/ReentrancyGuard.sol\":2500:2521  _nonReentrantBefore() */\n      jump\t// in\n    tag_211:\n        /* \"Marketplace.sol\":3998:4015  Listing storage l */\n      0x00\n        /* \"Marketplace.sol\":4018:4026  listings */\n      0x04\n        /* \"Marketplace.sol\":4018:4037  listings[listingId] */\n      0x00\n        /* \"Marketplace.sol\":4027:4036  listingId */\n      dup4\n        /* \"Marketplace.sol\":4018:4037  listings[listingId] */\n      dup2\n      mstore\n      0x20\n      add\n      swap1\n      dup2\n      mstore\n      0x20\n      add\n      0x00\n      keccak256\n        /* \"Marketplace.sol\":3998:4037  Listing storage l = listings[listingId] */\n      swap1\n      pop\n        /* \"Marketplace.sol\":4055:4056  l */\n      dup1\n        /* \"Marketplace.sol\":4055:4063  l.active */\n      0x04\n      add\n      0x14\n      swap1\n      sload\n      swap1\n      0x0100\n      exp\n      swap1\n      div\n      0xff\n      and\n        /* \"Marketplace.sol\":4047:4078  require(l.active, \"not active\") */\n      tag_213\n      jumpi\n      mload(0x40)\n      0x08c379a000000000000000000000000000000000000000000000000000000000\n      dup2\n      mstore\n      0x04\n      add\n      tag_214\n      swap1\n      tag_109\n      jump\t// in\n    tag_214:\n      mload(0x40)\n      dup1\n      swap2\n      sub\n      swap1\n      revert\n    tag_213:\n        /* \"Marketplace.sol\":4122:4123  0 */\n      0x00\n        /* \"Marketplace.sol\":4096:4124  l.paymentToken == address(0) */\n      0xffffffffffffffffffffffffffffffffffffffff\n      and\n        /* \"Marketplace.sol\":4096:4097  l */\n      dup2\n        /* \"Marketplace.sol\":4096:4110  l.paymentToken */\n      0x04\n      add\n      0x00\n      swap1\n      sload\n      swap1\n      0x0100\n      exp\n      swap1\n      div\n      0xffffffffffffffffffffffffffffffffffffffff\n      and\n        /* \"Marketplace.sol\":4096:4124  l.paymentToken == address(0) */\n      0xffffffffffffffffffffffffffffffffffffffff\n      and\n      eq\n        /* \"Marketplace.sol\":4088:4144  require(l.paymentToken == address(0), \"not ETH payment\") */\n      tag_215\n      jumpi\n      mload(0x40)\n      0x08c379a000000000000000000000000000000000000000000000000000000000\n      dup2\n      mstore\n      0x04\n      add\n      tag_216\n      swap1\n      tag_217\n      jump\t// in\n    tag_216:\n      mload(0x40)\n      dup1\n      swap2\n      sub\n      swap1\n      revert\n    tag_215:\n        /* \"Marketplace.sol\":4175:4176  l */\n      dup1\n        /* \"Marketplace.sol\":4175:4182  l.price */\n      0x03\n      add\n      sload\n        /* \"Marketplace.sol\":4162:4171  msg.value */\n      callvalue\n        /* \"Marketplace.sol\":4162:4182  msg.value == l.price */\n      eq\n        /* \"Marketplace.sol\":4154:4199  require(msg.value == l.price, \"wrong amount\") */\n      tag_218\n      jumpi\n      mload(0x40)\n      0x08c379a000000000000000000000000000000000000000000000000000000000\n      dup2\n      mstore\n      0x04\n      add\n      tag_219\n      swap1\n      tag_133\n      jump\t// in\n    tag_219:\n      mload(0x40)\n      dup1\n      swap2\n      sub\n      swap1\n      revert\n    tag_218:\n        /* \"Marketplace.sol\":4209:4265  _executeSale(listingId, msg.sender, l.price, address(0)) */\n      tag_220\n        /* \"Marketplace.sol\":4222:4231  listingId */\n      dup3\n        /* \"Marketplace.sol\":4233:4243  msg.sender */\n      caller\n        /* \"Marketplace.sol\":4245:4246  l */\n      dup4\n        /* \"Marketplace.sol\":4245:4252  l.price */\n      0x03\n      add\n      sload\n        /* \"Marketplace.sol\":4262:4263  0 */\n      0x00\n        /* \"Marketplace.sol\":4209:4221  _executeSale */\n      tag_144\n        /* \"Marketplace.sol\":4209:4265  _executeSale(listingId, msg.sender, l.price, address(0)) */\n      jump\t// in\n    tag_220:\n        /* \"Marketplace.sol\":3988:4272  {... */\n      pop\n        /* \"@openzeppelin/contracts/utils/ReentrancyGuard.sol\":2542:2562  _nonReentrantAfter() */\n      tag_221\n        /* \"@openzeppelin/contracts/utils/ReentrancyGuard.sol\":2542:2560  _nonReentrantAfter */\n      tag_116\n        /* \"@openzeppelin/contracts/utils/ReentrancyGuard.sol\":2542:2562  _nonReentrantAfter() */\n      jump\t// in\n    tag_221:\n        /* \"Marketplace.sol\":3922:4272  function buyItem(uint256 listingId) external payable nonReentrant {... */\n      pop\n      jump\t// out\n        /* \"@openzeppelin/contracts/access/Ownable.sol\":2543:2758  function transferOwnership(address newOwner) public virtual onlyOwner {... */\n    tag_95:\n        /* \"@openzeppelin/contracts/access/Ownable.sol\":1531:1544  _checkOwner() */\n      tag_223\n        /* \"@openzeppelin/contracts/access/Ownable.sol\":1531:1542  _checkOwner */\n      tag_119\n        /* \"@openzeppelin/contracts/access/Ownable.sol\":1531:1544  _checkOwner() */\n      jump\t// in\n    tag_223:\n        /* \"@openzeppelin/contracts/access/Ownable.sol\":2647:2648  0 */\n      0x00\n        /* \"@openzeppelin/contracts/access/Ownable.sol\":2627:2649  newOwner == address(0) */\n      0xffffffffffffffffffffffffffffffffffffffff\n      and\n        /* \"@openzeppelin/contracts/access/Ownable.sol\":2627:2635  newOwner */\n      dup2\n        /* \"@openzeppelin/contracts/access/Ownable.sol\":2627:2649  newOwner == address(0) */\n      0xffffffffffffffffffffffffffffffffffffffff\n      and\n      sub\n        /* \"@openzeppelin/contracts/access/Ownable.sol\":2623:2714  if (newOwner == address(0)) {... */\n      tag_225\n      jumpi\n        /* \"@openzeppelin/contracts/access/Ownable.sol\":2700:2701  0 */\n      0x00\n        /* \"@openzeppelin/contracts/access/Ownable.sol\":2672:2703  OwnableInvalidOwner(address(0)) */\n      mload(0x40)\n      0x1e4fbdf700000000000000000000000000000000000000000000000000000000\n      dup2\n      mstore\n      0x04\n      add\n      tag_226\n      swap2\n      swap1\n      tag_50\n      jump\t// in\n    tag_226:\n      mload(0x40)\n      dup1\n      swap2\n      sub\n      swap1\n      revert\n        /* \"@openzeppelin/contracts/access/Ownable.sol\":2623:2714  if (newOwner == address(0)) {... */\n    tag_225:\n        /* \"@openzeppelin/contracts/access/Ownable.sol\":2723:2751  _transferOwnership(newOwner) */\n      tag_227\n        /* \"@openzeppelin/contracts/access/Ownable.sol\":2742:2750  newOwner */\n      dup2\n        /* \"@openzeppelin/contracts/access/Ownable.sol\":2723:2741  _transferOwnership */\n      tag_167\n        /* \"@openzeppelin/contracts/access/Ownable.sol\":2723:2751  _transferOwnership(newOwner) */\n      jump\t// in\n    tag_227:\n        /* \"@openzeppelin/contracts/access/Ownable.sol\":2543:2758  function transferOwnership(address newOwner) public virtual onlyOwner {... */\n      pop\n      jump\t// out\n        /* \"Marketplace.sol\":1190:1260  mapping(address => mapping(uint256 => uint256)) public activeListingOf */\n    tag_100:\n      mstore(0x20, 0x05)\n      dup2\n      0x00\n      mstore\n      mstore(0x20, keccak256(0x00, 0x40))\n      dup1\n      0x00\n      mstore\n      keccak256(0x00, 0x40)\n      0x00\n      swap2\n      pop\n      swap2\n      pop\n      pop\n      sload\n      dup2\n      jump\t// out\n        /* \"@openzeppelin/contracts/utils/ReentrancyGuard.sol\":2575:2882  function _nonReentrantBefore() private {... */\n    tag_105:\n        /* \"@openzeppelin/contracts/utils/ReentrancyGuard.sol\":1899:1900  2 */\n      0x02\n        /* \"@openzeppelin/contracts/utils/ReentrancyGuard.sol\":2702:2709  _status */\n      sload(0x00)\n        /* \"@openzeppelin/contracts/utils/ReentrancyGuard.sol\":2702:2720  _status == ENTERED */\n      sub\n        /* \"@openzeppelin/contracts/utils/ReentrancyGuard.sol\":2698:2784  if (_status == ENTERED) {... */\n      tag_229\n      jumpi\n        /* \"@openzeppelin/contracts/utils/ReentrancyGuard.sol\":2743:2773  ReentrancyGuardReentrantCall() */\n      mload(0x40)\n      0x3ee5aeb500000000000000000000000000000000000000000000000000000000\n      dup2\n      mstore\n      0x04\n      add\n      mload(0x40)\n      dup1\n      swap2\n      sub\n      swap1\n      revert\n        /* \"@openzeppelin/contracts/utils/ReentrancyGuard.sol\":2698:2784  if (_status == ENTERED) {... */\n    tag_229:\n        /* \"@openzeppelin/contracts/utils/ReentrancyGuard.sol\":1899:1900  2 */\n      0x02\n        /* \"@openzeppelin/contracts/utils/ReentrancyGuard.sol\":2858:2865  _status */\n      0x00\n        /* \"@openzeppelin/contracts/utils/ReentrancyGuard.sol\":2858:2875  _status = ENTERED */\n      dup2\n      swap1\n      sstore\n      pop\n        /* \"@openzeppelin/contracts/utils/ReentrancyGuard.sol\":2575:2882  function _nonReentrantBefore() private {... */\n      jump\t// out\n        /* \"@openzeppelin/contracts/utils/ReentrancyGuard.sol\":2888:3096  function _nonReentrantAfter() private {... */\n    tag_116:\n        /* \"@openzeppelin/contracts/utils/ReentrancyGuard.sol\":1857:1858  1 */\n      0x01\n        /* \"@openzeppelin/contracts/utils/ReentrancyGuard.sol\":3068:3075  _status */\n      0x00\n        /* \"@openzeppelin/contracts/utils/ReentrancyGuard.sol\":3068:3089  _status = NOT_ENTERED */\n      dup2\n      swap1\n      sstore\n      pop\n        /* \"@openzeppelin/contracts/utils/ReentrancyGuard.sol\":2888:3096  function _nonReentrantAfter() private {... */\n      jump\t// out\n        /* \"@openzeppelin/contracts/access/Ownable.sol\":1796:1958  function _checkOwner() internal view virtual {... */\n    tag_119:\n        /* \"@openzeppelin/contracts/access/Ownable.sol\":1866:1878  _msgSender() */\n      tag_232\n        /* \"@openzeppelin/contracts/access/Ownable.sol\":1866:1876  _msgSender */\n      tag_233\n        /* \"@openzeppelin/contracts/access/Ownable.sol\":1866:1878  _msgSender() */\n      jump\t// in\n    tag_232:\n        /* \"@openzeppelin/contracts/access/Ownable.sol\":1855:1878  owner() != _msgSender() */\n      0xffffffffffffffffffffffffffffffffffffffff\n      and\n        /* \"@openzeppelin/contracts/access/Ownable.sol\":1855:1862  owner() */\n      tag_234\n        /* \"@openzeppelin/contracts/access/Ownable.sol\":1855:1860  owner */\n      tag_71\n        /* \"@openzeppelin/contracts/access/Ownable.sol\":1855:1862  owner() */\n      jump\t// in\n    tag_234:\n        /* \"@openzeppelin/contracts/access/Ownable.sol\":1855:1878  owner() != _msgSender() */\n      0xffffffffffffffffffffffffffffffffffffffff\n      and\n      eq\n        /* \"@openzeppelin/contracts/access/Ownable.sol\":1851:1952  if (owner() != _msgSender()) {... */\n      tag_235\n      jumpi\n        /* \"@openzeppelin/contracts/access/Ownable.sol\":1928:1940  _msgSender() */\n      tag_236\n        /* \"@openzeppelin/contracts/access/Ownable.sol\":1928:1938  _msgSender */\n      tag_233\n        /* \"@openzeppelin/contracts/access/Ownable.sol\":1928:1940  _msgSender() */\n      jump\t// in\n    tag_236:\n        /* \"@openzeppelin/contracts/access/Ownable.sol\":1901:1941  OwnableUnauthorizedAccount(_msgSender()) */\n      mload(0x40)\n      0x118cdaa700000000000000000000000000000000000000000000000000000000\n      dup2\n      mstore\n      0x04\n      add\n      tag_237\n      swap2\n      swap1\n      tag_50\n      jump\t// in\n    tag_237:\n      mload(0x40)\n      dup1\n      swap2\n      sub\n      swap1\n      revert\n        /* \"@openzeppelin/contracts/access/Ownable.sol\":1851:1952  if (owner() != _msgSender()) {... */\n    tag_235:\n        /* \"@openzeppelin/contracts/access/Ownable.sol\":1796:1958  function _checkOwner() internal view virtual {... */\n      jump\t// out\n        /* \"@openzeppelin/contracts/utils/Address.sol\":1290:1655  function sendValue(address payable recipient, uint256 amount) internal {... */\n    tag_122:\n        /* \"@openzeppelin/contracts/utils/Address.sol\":1399:1405  amount */\n      dup1\n        /* \"@openzeppelin/contracts/utils/Address.sol\":1375:1396  address(this).balance */\n      selfbalance\n        /* \"@openzeppelin/contracts/utils/Address.sol\":1375:1405  address(this).balance < amount */\n      lt\n        /* \"@openzeppelin/contracts/utils/Address.sol\":1371:1496  if (address(this).balance < amount) {... */\n      iszero\n      tag_239\n      jumpi\n        /* \"@openzeppelin/contracts/utils/Address.sol\":1455:1476  address(this).balance */\n      selfbalance\n        /* \"@openzeppelin/contracts/utils/Address.sol\":1478:1484  amount */\n      dup2\n        /* \"@openzeppelin/contracts/utils/Address.sol\":1428:1485  Errors.InsufficientBalance(address(this).balance, amount) */\n      mload(0x40)\n      0xcf47918100000000000000000000000000000000000000000000000000000000\n      dup2\n      mstore\n      0x04\n      add\n      tag_240\n      swap3\n      swap2\n      swap1\n      tag_241\n      jump\t// in\n    tag_240:\n      mload(0x40)\n      dup1\n      swap2\n      sub\n      swap1\n      revert\n        /* \"@openzeppelin/contracts/utils/Address.sol\":1371:1496  if (address(this).balance < amount) {... */\n    tag_239:\n        /* \"@openzeppelin/contracts/utils/Address.sol\":1507:1519  bool success */\n      0x00\n        /* \"@openzeppelin/contracts/utils/Address.sol\":1521:1544  bytes memory returndata */\n      0x00\n        /* \"@openzeppelin/contracts/utils/Address.sol\":1548:1557  recipient */\n      dup4\n        /* \"@openzeppelin/contracts/utils/Address.sol\":1548:1562  recipient.call */\n      0xffffffffffffffffffffffffffffffffffffffff\n      and\n        /* \"@openzeppelin/contracts/utils/Address.sol\":1570:1576  amount */\n      dup4\n        /* \"@openzeppelin/contracts/utils/Address.sol\":1548:1581  recipient.call{value: amount}(\"\") */\n      mload(0x40)\n      tag_242\n      swap1\n      tag_243\n      jump\t// in\n    tag_242:\n      0x00\n      mload(0x40)\n      dup1\n      dup4\n      sub\n      dup2\n      dup6\n      dup8\n      gas\n      call\n      swap3\n      pop\n      pop\n      pop\n      returndatasize\n      dup1\n      0x00\n      dup2\n      eq\n      tag_246\n      jumpi\n      mload(0x40)\n      swap2\n      pop\n      and(add(returndatasize, 0x3f), not(0x1f))\n      dup3\n      add\n      0x40\n      mstore\n      returndatasize\n      dup3\n      mstore\n      returndatasize\n      0x00\n      0x20\n      dup5\n      add\n      returndatacopy\n      jump(tag_245)\n    tag_246:\n      0x60\n      swap2\n      pop\n    tag_245:\n      pop\n        /* \"@openzeppelin/contracts/utils/Address.sol\":1506:1581  (bool success, bytes memory returndata) = recipient.call{value: amount}(\"\") */\n      swap2\n      pop\n      swap2\n      pop\n        /* \"@openzeppelin/contracts/utils/Address.sol\":1596:1603  success */\n      dup2\n        /* \"@openzeppelin/contracts/utils/Address.sol\":1591:1649  if (!success) {... */\n      tag_247\n      jumpi\n        /* \"@openzeppelin/contracts/utils/Address.sol\":1619:1638  _revert(returndata) */\n      tag_248\n        /* \"@openzeppelin/contracts/utils/Address.sol\":1627:1637  returndata */\n      dup2\n        /* \"@openzeppelin/contracts/utils/Address.sol\":1619:1626  _revert */\n      tag_249\n        /* \"@openzeppelin/contracts/utils/Address.sol\":1619:1638  _revert(returndata) */\n      jump\t// in\n    tag_248:\n        /* \"@openzeppelin/contracts/utils/Address.sol\":1591:1649  if (!success) {... */\n    tag_247:\n        /* \"@openzeppelin/contracts/utils/Address.sol\":1361:1655  {... */\n      pop\n      pop\n        /* \"@openzeppelin/contracts/utils/Address.sol\":1290:1655  function sendValue(address payable recipient, uint256 amount) internal {... */\n      pop\n      pop\n      jump\t// out\n        /* \"Marketplace.sol\":4925:7376  function _executeSale(uint256 listingId, address buyer, uint256 amount, address paymentToken) internal {... */\n    tag_144:\n        /* \"Marketplace.sol\":5038:5055  Listing storage l */\n      0x00\n        /* \"Marketplace.sol\":5058:5066  listings */\n      0x04\n        /* \"Marketplace.sol\":5058:5077  listings[listingId] */\n      0x00\n        /* \"Marketplace.sol\":5067:5076  listingId */\n      dup7\n        /* \"Marketplace.sol\":5058:5077  listings[listingId] */\n      dup2\n      mstore\n      0x20\n      add\n      swap1\n      dup2\n      mstore\n      0x20\n      add\n      0x00\n      keccak256\n        /* \"Marketplace.sol\":5038:5077  Listing storage l = listings[listingId] */\n      swap1\n      pop\n        /* \"Marketplace.sol\":5095:5096  l */\n      dup1\n        /* \"Marketplace.sol\":5095:5103  l.active */\n      0x04\n      add\n      0x14\n      swap1\n      sload\n      swap1\n      0x0100\n      exp\n      swap1\n      div\n      0xff\n      and\n        /* \"Marketplace.sol\":5087:5118  require(l.active, \"not active\") */\n      tag_251\n      jumpi\n      mload(0x40)\n      0x08c379a000000000000000000000000000000000000000000000000000000000\n      dup2\n      mstore\n      0x04\n      add\n      tag_252\n      swap1\n      tag_109\n      jump\t// in\n    tag_252:\n      mload(0x40)\n      dup1\n      swap2\n      sub\n      swap1\n      revert\n    tag_251:\n        /* \"Marketplace.sol\":5170:5175  false */\n      0x00\n        /* \"Marketplace.sol\":5159:5160  l */\n      dup2\n        /* \"Marketplace.sol\":5159:5167  l.active */\n      0x04\n      add\n      0x14\n        /* \"Marketplace.sol\":5159:5175  l.active = false */\n      0x0100\n      exp\n      dup2\n      sload\n      dup2\n      0xff\n      mul\n      not\n      and\n      swap1\n      dup4\n      iszero\n      iszero\n      mul\n      or\n      swap1\n      sstore\n      pop\n        /* \"Marketplace.sol\":5228:5229  0 */\n      0x00\n        /* \"Marketplace.sol\":5185:5200  activeListingOf */\n      0x05\n        /* \"Marketplace.sol\":5185:5214  activeListingOf[l.nftAddress] */\n      0x00\n        /* \"Marketplace.sol\":5201:5202  l */\n      dup4\n        /* \"Marketplace.sol\":5201:5213  l.nftAddress */\n      0x01\n      add\n      0x00\n      swap1\n      sload\n      swap1\n      0x0100\n      exp\n      swap1\n      div\n      0xffffffffffffffffffffffffffffffffffffffff\n      and\n        /* \"Marketplace.sol\":5185:5214  activeListingOf[l.nftAddress] */\n      0xffffffffffffffffffffffffffffffffffffffff\n      and\n      0xffffffffffffffffffffffffffffffffffffffff\n      and\n      dup2\n      mstore\n      0x20\n      add\n      swap1\n      dup2\n      mstore\n      0x20\n      add\n      0x00\n      keccak256\n        /* \"Marketplace.sol\":5185:5225  activeListingOf[l.nftAddress][l.tokenId] */\n      0x00\n        /* \"Marketplace.sol\":5215:5216  l */\n      dup4\n        /* \"Marketplace.sol\":5215:5224  l.tokenId */\n      0x02\n      add\n      sload\n        /* \"Marketplace.sol\":5185:5225  activeListingOf[l.nftAddress][l.tokenId] */\n      dup2\n      mstore\n      0x20\n      add\n      swap1\n      dup2\n      mstore\n      0x20\n      add\n      0x00\n      keccak256\n        /* \"Marketplace.sol\":5185:5229  activeListingOf[l.nftAddress][l.tokenId] = 0 */\n      dup2\n      swap1\n      sstore\n      pop\n        /* \"Marketplace.sol\":5270:5287  uint256 marketFee */\n      0x00\n        /* \"Marketplace.sol\":5316:5321  10000 */\n      0x2710\n        /* \"Marketplace.sol\":5300:5312  marketFeeBps */\n      0x01\n      0x14\n      swap1\n      sload\n      swap1\n      0x0100\n      exp\n      swap1\n      div\n      0xffffffffffffffffffffffff\n      and\n        /* \"Marketplace.sol\":5291:5312  amount * marketFeeBps */\n      0xffffffffffffffffffffffff\n      and\n        /* \"Marketplace.sol\":5291:5297  amount */\n      dup6\n        /* \"Marketplace.sol\":5291:5312  amount * marketFeeBps */\n      tag_253\n      swap2\n      swap1\n      tag_254\n      jump\t// in\n    tag_253:\n        /* \"Marketplace.sol\":5290:5321  (amount * marketFeeBps) / 10000 */\n      tag_255\n      swap2\n      swap1\n      tag_256\n      jump\t// in\n    tag_255:\n        /* \"Marketplace.sol\":5270:5321  uint256 marketFee = (amount * marketFeeBps) / 10000 */\n      swap1\n      pop\n        /* \"Marketplace.sol\":5331:5348  uint256 remainder */\n      0x00\n        /* \"Marketplace.sol\":5360:5369  marketFee */\n      dup2\n        /* \"Marketplace.sol\":5351:5357  amount */\n      dup6\n        /* \"Marketplace.sol\":5351:5369  amount - marketFee */\n      tag_257\n      swap2\n      swap1\n      tag_258\n      jump\t// in\n    tag_257:\n        /* \"Marketplace.sol\":5331:5369  uint256 remainder = amount - marketFee */\n      swap1\n      pop\n        /* \"Marketplace.sol\":5435:5458  address royaltyReceiver */\n      0x00\n        /* \"Marketplace.sol\":5460:5481  uint256 royaltyAmount */\n      0x00\n        /* \"Marketplace.sol\":5485:5533  _getRoyaltyInfo(l.nftAddress, l.tokenId, amount) */\n      tag_259\n        /* \"Marketplace.sol\":5501:5502  l */\n      dup6\n        /* \"Marketplace.sol\":5501:5513  l.nftAddress */\n      0x01\n      add\n      0x00\n      swap1\n      sload\n      swap1\n      0x0100\n      exp\n      swap1\n      div\n      0xffffffffffffffffffffffffffffffffffffffff\n      and\n        /* \"Marketplace.sol\":5515:5516  l */\n      dup7\n        /* \"Marketplace.sol\":5515:5524  l.tokenId */\n      0x02\n      add\n      sload\n        /* \"Marketplace.sol\":5526:5532  amount */\n      dup10\n        /* \"Marketplace.sol\":5485:5500  _getRoyaltyInfo */\n      tag_260\n        /* \"Marketplace.sol\":5485:5533  _getRoyaltyInfo(l.nftAddress, l.tokenId, amount) */\n      jump\t// in\n    tag_259:\n        /* \"Marketplace.sol\":5434:5533  (address royaltyReceiver, uint256 royaltyAmount) = _getRoyaltyInfo(l.nftAddress, l.tokenId, amount) */\n      swap2\n      pop\n      swap2\n      pop\n        /* \"Marketplace.sol\":5563:5572  remainder */\n      dup3\n        /* \"Marketplace.sol\":5547:5560  royaltyAmount */\n      dup2\n        /* \"Marketplace.sol\":5547:5572  royaltyAmount > remainder */\n      gt\n        /* \"Marketplace.sol\":5543:5661  if (royaltyAmount > remainder) {... */\n      iszero\n      tag_261\n      jumpi\n        /* \"Marketplace.sol\":5641:5650  remainder */\n      dup3\n        /* \"Marketplace.sol\":5625:5650  royaltyAmount = remainder */\n      swap1\n      pop\n        /* \"Marketplace.sol\":5543:5661  if (royaltyAmount > remainder) {... */\n    tag_261:\n        /* \"Marketplace.sol\":5694:5707  royaltyAmount */\n      dup1\n        /* \"Marketplace.sol\":5682:5691  remainder */\n      dup4\n        /* \"Marketplace.sol\":5682:5707  remainder - royaltyAmount */\n      tag_262\n      swap2\n      swap1\n      tag_258\n      jump\t// in\n    tag_262:\n        /* \"Marketplace.sol\":5670:5707  remainder = remainder - royaltyAmount */\n      swap3\n      pop\n        /* \"Marketplace.sol\":5828:5829  l */\n      dup5\n        /* \"Marketplace.sol\":5828:5840  l.nftAddress */\n      0x01\n      add\n      0x00\n      swap1\n      sload\n      swap1\n      0x0100\n      exp\n      swap1\n      div\n      0xffffffffffffffffffffffffffffffffffffffff\n      and\n        /* \"Marketplace.sol\":5820:5858  IERC721(l.nftAddress).safeTransferFrom */\n      0xffffffffffffffffffffffffffffffffffffffff\n      and\n      0x42842e0e\n        /* \"Marketplace.sol\":5859:5860  l */\n      dup7\n        /* \"Marketplace.sol\":5859:5867  l.seller */\n      0x00\n      add\n      0x00\n      swap1\n      sload\n      swap1\n      0x0100\n      exp\n      swap1\n      div\n      0xffffffffffffffffffffffffffffffffffffffff\n      and\n        /* \"Marketplace.sol\":5869:5874  buyer */\n      dup11\n        /* \"Marketplace.sol\":5876:5877  l */\n      dup9\n        /* \"Marketplace.sol\":5876:5885  l.tokenId */\n      0x02\n      add\n      sload\n        /* \"Marketplace.sol\":5820:5886  IERC721(l.nftAddress).safeTransferFrom(l.seller, buyer, l.tokenId) */\n      mload(0x40)\n      dup5\n      0xffffffff\n      and\n      0xe0\n      shl\n      dup2\n      mstore\n      0x04\n      add\n      tag_263\n      swap4\n      swap3\n      swap2\n      swap1\n      tag_135\n      jump\t// in\n    tag_263:\n      0x00\n      mload(0x40)\n      dup1\n      dup4\n      sub\n      dup2\n      0x00\n      dup8\n      dup1\n      extcodesize\n      iszero\n      dup1\n      iszero\n      tag_264\n      jumpi\n      revert(0x00, 0x00)\n    tag_264:\n      pop\n      gas\n      call\n      iszero\n      dup1\n      iszero\n      tag_266\n      jumpi\n      returndatacopy(0x00, 0x00, returndatasize)\n      revert(0x00, returndatasize)\n    tag_266:\n      pop\n      pop\n      pop\n      pop\n        /* \"Marketplace.sol\":6011:6012  0 */\n      0x00\n        /* \"Marketplace.sol\":5987:6013  paymentToken == address(0) */\n      0xffffffffffffffffffffffffffffffffffffffff\n      and\n        /* \"Marketplace.sol\":5987:5999  paymentToken */\n      dup7\n        /* \"Marketplace.sol\":5987:6013  paymentToken == address(0) */\n      0xffffffffffffffffffffffffffffffffffffffff\n      and\n      sub\n        /* \"Marketplace.sol\":5983:7021  if (paymentToken == address(0)) {... */\n      tag_267\n      jumpi\n        /* \"Marketplace.sol\":6078:6079  0 */\n      0x00\n        /* \"Marketplace.sol\":6062:6075  royaltyAmount */\n      dup2\n        /* \"Marketplace.sol\":6062:6079  royaltyAmount > 0 */\n      gt\n        /* \"Marketplace.sol\":6062:6112  royaltyAmount > 0 && royaltyReceiver != address(0) */\n      dup1\n      iszero\n      tag_268\n      jumpi\n      pop\n        /* \"Marketplace.sol\":6110:6111  0 */\n      0x00\n        /* \"Marketplace.sol\":6083:6112  royaltyReceiver != address(0) */\n      0xffffffffffffffffffffffffffffffffffffffff\n      and\n        /* \"Marketplace.sol\":6083:6098  royaltyReceiver */\n      dup3\n        /* \"Marketplace.sol\":6083:6112  royaltyReceiver != address(0) */\n      0xffffffffffffffffffffffffffffffffffffffff\n      and\n      eq\n      iszero\n        /* \"Marketplace.sol\":6062:6112  royaltyAmount > 0 && royaltyReceiver != address(0) */\n    tag_268:\n        /* \"Marketplace.sol\":6058:6196  if (royaltyAmount > 0 && royaltyReceiver != address(0)) {... */\n      iszero\n      tag_269\n      jumpi\n        /* \"Marketplace.sol\":6132:6181  payable(royaltyReceiver).sendValue(royaltyAmount) */\n      tag_270\n        /* \"Marketplace.sol\":6167:6180  royaltyAmount */\n      dup2\n        /* \"Marketplace.sol\":6140:6155  royaltyReceiver */\n      dup4\n        /* \"Marketplace.sol\":6132:6166  payable(royaltyReceiver).sendValue */\n      0xffffffffffffffffffffffffffffffffffffffff\n      and\n      tag_122\n      swap1\n        /* \"Marketplace.sol\":6132:6181  payable(royaltyReceiver).sendValue(royaltyAmount) */\n      swap2\n      swap1\n      0xffffffff\n      and\n      jump\t// in\n    tag_270:\n        /* \"Marketplace.sol\":6058:6196  if (royaltyAmount > 0 && royaltyReceiver != address(0)) {... */\n    tag_269:\n        /* \"Marketplace.sol\":6231:6269  payable(l.seller).sendValue(remainder) */\n      tag_271\n        /* \"Marketplace.sol\":6259:6268  remainder */\n      dup4\n        /* \"Marketplace.sol\":6239:6240  l */\n      dup7\n        /* \"Marketplace.sol\":6239:6247  l.seller */\n      0x00\n      add\n      0x00\n      swap1\n      sload\n      swap1\n      0x0100\n      exp\n      swap1\n      div\n      0xffffffffffffffffffffffffffffffffffffffff\n      and\n        /* \"Marketplace.sol\":6231:6258  payable(l.seller).sendValue */\n      0xffffffffffffffffffffffffffffffffffffffff\n      and\n      tag_122\n      swap1\n        /* \"Marketplace.sol\":6231:6269  payable(l.seller).sendValue(remainder) */\n      swap2\n      swap1\n      0xffffffff\n      and\n      jump\t// in\n    tag_271:\n        /* \"Marketplace.sol\":6325:6326  0 */\n      0x00\n        /* \"Marketplace.sol\":6313:6322  marketFee */\n      dup5\n        /* \"Marketplace.sol\":6313:6326  marketFee > 0 */\n      gt\n        /* \"Marketplace.sol\":6313:6356  marketFee > 0 && feeRecipient != address(0) */\n      dup1\n      iszero\n      tag_272\n      jumpi\n      pop\n        /* \"Marketplace.sol\":6354:6355  0 */\n      0x00\n        /* \"Marketplace.sol\":6330:6356  feeRecipient != address(0) */\n      0xffffffffffffffffffffffffffffffffffffffff\n      and\n        /* \"Marketplace.sol\":6330:6342  feeRecipient */\n      0x02\n      0x00\n      swap1\n      sload\n      swap1\n      0x0100\n      exp\n      swap1\n      div\n      0xffffffffffffffffffffffffffffffffffffffff\n      and\n        /* \"Marketplace.sol\":6330:6356  feeRecipient != address(0) */\n      0xffffffffffffffffffffffffffffffffffffffff\n      and\n      eq\n      iszero\n        /* \"Marketplace.sol\":6313:6356  marketFee > 0 && feeRecipient != address(0) */\n    tag_272:\n        /* \"Marketplace.sol\":6309:6433  if (marketFee > 0 && feeRecipient != address(0)) {... */\n      iszero\n      tag_273\n      jumpi\n        /* \"Marketplace.sol\":6376:6418  payable(feeRecipient).sendValue(marketFee) */\n      tag_274\n        /* \"Marketplace.sol\":6408:6417  marketFee */\n      dup5\n        /* \"Marketplace.sol\":6384:6396  feeRecipient */\n      0x02\n      0x00\n      swap1\n      sload\n      swap1\n      0x0100\n      exp\n      swap1\n      div\n      0xffffffffffffffffffffffffffffffffffffffff\n      and\n        /* \"Marketplace.sol\":6376:6407  payable(feeRecipient).sendValue */\n      0xffffffffffffffffffffffffffffffffffffffff\n      and\n      tag_122\n      swap1\n        /* \"Marketplace.sol\":6376:6418  payable(feeRecipient).sendValue(marketFee) */\n      swap2\n      swap1\n      0xffffffff\n      and\n      jump\t// in\n    tag_274:\n        /* \"Marketplace.sol\":6309:6433  if (marketFee > 0 && feeRecipient != address(0)) {... */\n    tag_273:\n        /* \"Marketplace.sol\":5983:7021  if (paymentToken == address(0)) {... */\n      jump(tag_275)\n    tag_267:\n        /* \"Marketplace.sol\":6541:6553  IERC20 token */\n      0x00\n        /* \"Marketplace.sol\":6563:6575  paymentToken */\n      dup7\n        /* \"Marketplace.sol\":6541:6576  IERC20 token = IERC20(paymentToken) */\n      swap1\n      pop\n        /* \"Marketplace.sol\":6610:6611  0 */\n      0x00\n        /* \"Marketplace.sol\":6594:6607  royaltyAmount */\n      dup3\n        /* \"Marketplace.sol\":6594:6611  royaltyAmount > 0 */\n      gt\n        /* \"Marketplace.sol\":6594:6644  royaltyAmount > 0 && royaltyReceiver != address(0) */\n      dup1\n      iszero\n      tag_276\n      jumpi\n      pop\n        /* \"Marketplace.sol\":6642:6643  0 */\n      0x00\n        /* \"Marketplace.sol\":6615:6644  royaltyReceiver != address(0) */\n      0xffffffffffffffffffffffffffffffffffffffff\n      and\n        /* \"Marketplace.sol\":6615:6630  royaltyReceiver */\n      dup4\n        /* \"Marketplace.sol\":6615:6644  royaltyReceiver != address(0) */\n      0xffffffffffffffffffffffffffffffffffffffff\n      and\n      eq\n      iszero\n        /* \"Marketplace.sol\":6594:6644  royaltyAmount > 0 && royaltyReceiver != address(0) */\n    tag_276:\n        /* \"Marketplace.sol\":6590:6761  if (royaltyAmount > 0 && royaltyReceiver != address(0)) {... */\n      iszero\n      tag_277\n      jumpi\n        /* \"Marketplace.sol\":6672:6677  token */\n      dup1\n        /* \"Marketplace.sol\":6672:6686  token.transfer */\n      0xffffffffffffffffffffffffffffffffffffffff\n      and\n      0xa9059cbb\n        /* \"Marketplace.sol\":6687:6702  royaltyReceiver */\n      dup5\n        /* \"Marketplace.sol\":6704:6717  royaltyAmount */\n      dup5\n        /* \"Marketplace.sol\":6672:6718  token.transfer(royaltyReceiver, royaltyAmount) */\n      mload(0x40)\n      dup4\n      0xffffffff\n      and\n      0xe0\n      shl\n      dup2\n      mstore\n      0x04\n      add\n      tag_278\n      swap3\n      swap2\n      swap1\n      tag_156\n      jump\t// in\n    tag_278:\n      0x20\n      mload(0x40)\n      dup1\n      dup4\n      sub\n      dup2\n      0x00\n      dup8\n      gas\n      call\n      iszero\n      dup1\n      iszero\n      tag_280\n      jumpi\n      returndatacopy(0x00, 0x00, returndatasize)\n      revert(0x00, returndatasize)\n    tag_280:\n      pop\n      pop\n      pop\n      pop\n      mload(0x40)\n      returndatasize\n      not(0x1f)\n      0x1f\n      dup3\n      add\n      and\n      dup3\n      add\n      dup1\n      0x40\n      mstore\n      pop\n      dup2\n      add\n      swap1\n      tag_281\n      swap2\n      swap1\n      tag_139\n      jump\t// in\n    tag_281:\n        /* \"Marketplace.sol\":6664:6746  require(token.transfer(royaltyReceiver, royaltyAmount), \"royalty transfer failed\") */\n      tag_282\n      jumpi\n      mload(0x40)\n      0x08c379a000000000000000000000000000000000000000000000000000000000\n      dup2\n      mstore\n      0x04\n      add\n      tag_283\n      swap1\n      tag_284\n      jump\t// in\n    tag_283:\n      mload(0x40)\n      dup1\n      swap2\n      sub\n      swap1\n      revert\n    tag_282:\n        /* \"Marketplace.sol\":6590:6761  if (royaltyAmount > 0 && royaltyReceiver != address(0)) {... */\n    tag_277:\n        /* \"Marketplace.sol\":6782:6787  token */\n      dup1\n        /* \"Marketplace.sol\":6782:6796  token.transfer */\n      0xffffffffffffffffffffffffffffffffffffffff\n      and\n      0xa9059cbb\n        /* \"Marketplace.sol\":6797:6798  l */\n      dup8\n        /* \"Marketplace.sol\":6797:6805  l.seller */\n      0x00\n      add\n      0x00\n      swap1\n      sload\n      swap1\n      0x0100\n      exp\n      swap1\n      div\n      0xffffffffffffffffffffffffffffffffffffffff\n      and\n        /* \"Marketplace.sol\":6807:6816  remainder */\n      dup7\n        /* \"Marketplace.sol\":6782:6817  token.transfer(l.seller, remainder) */\n      mload(0x40)\n      dup4\n      0xffffffff\n      and\n      0xe0\n      shl\n      dup2\n      mstore\n      0x04\n      add\n      tag_285\n      swap3\n      swap2\n      swap1\n      tag_156\n      jump\t// in\n    tag_285:\n      0x20\n      mload(0x40)\n      dup1\n      dup4\n      sub\n      dup2\n      0x00\n      dup8\n      gas\n      call\n      iszero\n      dup1\n      iszero\n      tag_287\n      jumpi\n      returndatacopy(0x00, 0x00, returndatasize)\n      revert(0x00, returndatasize)\n    tag_287:\n      pop\n      pop\n      pop\n      pop\n      mload(0x40)\n      returndatasize\n      not(0x1f)\n      0x1f\n      dup3\n      add\n      and\n      dup3\n      add\n      dup1\n      0x40\n      mstore\n      pop\n      dup2\n      add\n      swap1\n      tag_288\n      swap2\n      swap1\n      tag_139\n      jump\t// in\n    tag_288:\n        /* \"Marketplace.sol\":6774:6844  require(token.transfer(l.seller, remainder), \"seller transfer failed\") */\n      tag_289\n      jumpi\n      mload(0x40)\n      0x08c379a000000000000000000000000000000000000000000000000000000000\n      dup2\n      mstore\n      0x04\n      add\n      tag_290\n      swap1\n      tag_291\n      jump\t// in\n    tag_290:\n      mload(0x40)\n      dup1\n      swap2\n      sub\n      swap1\n      revert\n    tag_289:\n        /* \"Marketplace.sol\":6874:6875  0 */\n      0x00\n        /* \"Marketplace.sol\":6862:6871  marketFee */\n      dup6\n        /* \"Marketplace.sol\":6862:6875  marketFee > 0 */\n      gt\n        /* \"Marketplace.sol\":6862:6905  marketFee > 0 && feeRecipient != address(0) */\n      dup1\n      iszero\n      tag_292\n      jumpi\n      pop\n        /* \"Marketplace.sol\":6903:6904  0 */\n      0x00\n        /* \"Marketplace.sol\":6879:6905  feeRecipient != address(0) */\n      0xffffffffffffffffffffffffffffffffffffffff\n      and\n        /* \"Marketplace.sol\":6879:6891  feeRecipient */\n      0x02\n      0x00\n      swap1\n      sload\n      swap1\n      0x0100\n      exp\n      swap1\n      div\n      0xffffffffffffffffffffffffffffffffffffffff\n      and\n        /* \"Marketplace.sol\":6879:6905  feeRecipient != address(0) */\n      0xffffffffffffffffffffffffffffffffffffffff\n      and\n      eq\n      iszero\n        /* \"Marketplace.sol\":6862:6905  marketFee > 0 && feeRecipient != address(0) */\n    tag_292:\n        /* \"Marketplace.sol\":6858:7011  if (marketFee > 0 && feeRecipient != address(0)) {... */\n      iszero\n      tag_293\n      jumpi\n        /* \"Marketplace.sol\":6933:6938  token */\n      dup1\n        /* \"Marketplace.sol\":6933:6947  token.transfer */\n      0xffffffffffffffffffffffffffffffffffffffff\n      and\n      0xa9059cbb\n        /* \"Marketplace.sol\":6948:6960  feeRecipient */\n      0x02\n      0x00\n      swap1\n      sload\n      swap1\n      0x0100\n      exp\n      swap1\n      div\n      0xffffffffffffffffffffffffffffffffffffffff\n      and\n        /* \"Marketplace.sol\":6962:6971  marketFee */\n      dup8\n        /* \"Marketplace.sol\":6933:6972  token.transfer(feeRecipient, marketFee) */\n      mload(0x40)\n      dup4\n      0xffffffff\n      and\n      0xe0\n      shl\n      dup2\n      mstore\n      0x04\n      add\n      tag_294\n      swap3\n      swap2\n      swap1\n      tag_156\n      jump\t// in\n    tag_294:\n      0x20\n      mload(0x40)\n      dup1\n      dup4\n      sub\n      dup2\n      0x00\n      dup8\n      gas\n      call\n      iszero\n      dup1\n      iszero\n      tag_296\n      jumpi\n      returndatacopy(0x00, 0x00, returndatasize)\n      revert(0x00, returndatasize)\n    tag_296:\n      pop\n      pop\n      pop\n      pop\n      mload(0x40)\n      returndatasize\n      not(0x1f)\n      0x1f\n      dup3\n      add\n      and\n      dup3\n      add\n      dup1\n      0x40\n      mstore\n      pop\n      dup2\n      add\n      swap1\n      tag_297\n      swap2\n      swap1\n      tag_139\n      jump\t// in\n    tag_297:\n        /* \"Marketplace.sol\":6925:6996  require(token.transfer(feeRecipient, marketFee), \"fee transfer failed\") */\n      tag_298\n      jumpi\n      mload(0x40)\n      0x08c379a000000000000000000000000000000000000000000000000000000000\n      dup2\n      mstore\n      0x04\n      add\n      tag_299\n      swap1\n      tag_300\n      jump\t// in\n    tag_299:\n      mload(0x40)\n      dup1\n      swap2\n      sub\n      swap1\n      revert\n    tag_298:\n        /* \"Marketplace.sol\":6858:7011  if (marketFee > 0 && feeRecipient != address(0)) {... */\n    tag_293:\n        /* \"Marketplace.sol\":6449:7021  {... */\n      pop\n        /* \"Marketplace.sol\":5983:7021  if (paymentToken == address(0)) {... */\n    tag_275:\n        /* \"Marketplace.sol\":7151:7152  l */\n      dup5\n        /* \"Marketplace.sol\":7151:7159  l.seller */\n      0x00\n      add\n      0x00\n      swap1\n      sload\n      swap1\n      0x0100\n      exp\n      swap1\n      div\n      0xffffffffffffffffffffffffffffffffffffffff\n      and\n        /* \"Marketplace.sol\":7089:7369  Bought(... */\n      0xffffffffffffffffffffffffffffffffffffffff\n      and\n        /* \"Marketplace.sol\":7132:7137  buyer */\n      dup9\n        /* \"Marketplace.sol\":7089:7369  Bought(... */\n      0xffffffffffffffffffffffffffffffffffffffff\n      and\n        /* \"Marketplace.sol\":7109:7118  listingId */\n      dup11\n        /* \"Marketplace.sol\":7089:7369  Bought(... */\n      0x5bb3415cb84063f8788ad18a4ef07c2d1fa95be951775726de10ca439bdaaada\n        /* \"Marketplace.sol\":7173:7179  amount */\n      dup11\n        /* \"Marketplace.sol\":7193:7205  paymentToken */\n      dup11\n        /* \"Marketplace.sol\":7219:7231  marketFeeBps */\n      0x01\n      0x14\n      swap1\n      sload\n      swap1\n      0x0100\n      exp\n      swap1\n      div\n      0xffffffffffffffffffffffff\n      and\n        /* \"Marketplace.sol\":7245:7254  marketFee */\n      dup11\n        /* \"Marketplace.sol\":7268:7280  feeRecipient */\n      0x02\n      0x00\n      swap1\n      sload\n      swap1\n      0x0100\n      exp\n      swap1\n      div\n      0xffffffffffffffffffffffffffffffffffffffff\n      and\n        /* \"Marketplace.sol\":7294:7309  royaltyReceiver */\n      dup11\n        /* \"Marketplace.sol\":7323:7336  royaltyAmount */\n      dup11\n        /* \"Marketplace.sol\":7350:7359  remainder */\n      dup14\n        /* \"Marketplace.sol\":7089:7369  Bought(... */\n      mload(0x40)\n      tag_301\n      swap9\n      swap8\n      swap7\n      swap6\n      swap5\n      swap4\n      swap3\n      swap2\n      swap1\n      tag_302\n      jump\t// in\n    tag_301:\n      mload(0x40)\n      dup1\n      swap2\n      sub\n      swap1\n      log4\n        /* \"Marketplace.sol\":5028:7376  {... */\n      pop\n      pop\n      pop\n      pop\n      pop\n        /* \"Marketplace.sol\":4925:7376  function _executeSale(uint256 listingId, address buyer, uint256 amount, address paymentToken) internal {... */\n      pop\n      pop\n      pop\n      pop\n      jump\t// out\n        /* \"@openzeppelin/contracts/access/Ownable.sol\":2912:3099  function _transferOwnership(address newOwner) internal virtual {... */\n    tag_167:\n        /* \"@openzeppelin/contracts/access/Ownable.sol\":2985:3001  address oldOwner */\n      0x00\n        /* \"@openzeppelin/contracts/access/Ownable.sol\":3004:3010  _owner */\n      0x01\n      0x00\n      swap1\n      sload\n      swap1\n      0x0100\n      exp\n      swap1\n      div\n      0xffffffffffffffffffffffffffffffffffffffff\n      and\n        /* \"@openzeppelin/contracts/access/Ownable.sol\":2985:3010  address oldOwner = _owner */\n      swap1\n      pop\n        /* \"@openzeppelin/contracts/access/Ownable.sol\":3029:3037  newOwner */\n      dup2\n        /* \"@openzeppelin/contracts/access/Ownable.sol\":3020:3026  _owner */\n      0x01\n      0x00\n        /* \"@openzeppelin/contracts/access/Ownable.sol\":3020:3037  _owner = newOwner */\n      0x0100\n      exp\n      dup2\n      sload\n      dup2\n      0xffffffffffffffffffffffffffffffffffffffff\n      mul\n      not\n      and\n      swap1\n      dup4\n      0xffffffffffffffffffffffffffffffffffffffff\n      and\n      mul\n      or\n      swap1\n      sstore\n      pop\n        /* \"@openzeppelin/contracts/access/Ownable.sol\":3083:3091  newOwner */\n      dup2\n        /* \"@openzeppelin/contracts/access/Ownable.sol\":3052:3092  OwnershipTransferred(oldOwner, newOwner) */\n      0xffffffffffffffffffffffffffffffffffffffff\n      and\n        /* \"@openzeppelin/contracts/access/Ownable.sol\":3073:3081  oldOwner */\n      dup2\n        /* \"@openzeppelin/contracts/access/Ownable.sol\":3052:3092  OwnershipTransferred(oldOwner, newOwner) */\n      0xffffffffffffffffffffffffffffffffffffffff\n      and\n      0x8be0079c531659141344cd1fd0a4f28419497f9722a3daafe3b4186f6b6457e0\n      mload(0x40)\n      mload(0x40)\n      dup1\n      swap2\n      sub\n      swap1\n      log3\n        /* \"@openzeppelin/contracts/access/Ownable.sol\":2975:3099  {... */\n      pop\n        /* \"@openzeppelin/contracts/access/Ownable.sol\":2912:3099  function _transferOwnership(address newOwner) internal virtual {... */\n      pop\n      jump\t// out\n        /* \"@openzeppelin/contracts/utils/Context.sol\":656:752  function _msgSender() internal view virtual returns (address) {... */\n    tag_233:\n        /* \"@openzeppelin/contracts/utils/Context.sol\":709:716  address */\n      0x00\n        /* \"@openzeppelin/contracts/utils/Context.sol\":735:745  msg.sender */\n      caller\n        /* \"@openzeppelin/contracts/utils/Context.sol\":728:745  return msg.sender */\n      swap1\n      pop\n        /* \"@openzeppelin/contracts/utils/Context.sol\":656:752  function _msgSender() internal view virtual returns (address) {... */\n      swap1\n      jump\t// out\n        /* \"@openzeppelin/contracts/utils/Address.sol\":5559:5993  function _revert(bytes memory returndata) private pure {... */\n    tag_249:\n        /* \"@openzeppelin/contracts/utils/Address.sol\":5710:5711  0 */\n      0x00\n        /* \"@openzeppelin/contracts/utils/Address.sol\":5690:5700  returndata */\n      dup2\n        /* \"@openzeppelin/contracts/utils/Address.sol\":5690:5707  returndata.length */\n      mload\n        /* \"@openzeppelin/contracts/utils/Address.sol\":5690:5711  returndata.length > 0 */\n      gt\n        /* \"@openzeppelin/contracts/utils/Address.sol\":5686:5987  if (returndata.length > 0) {... */\n      iszero\n      tag_306\n      jumpi\n        /* \"@openzeppelin/contracts/utils/Address.sol\":5894:5904  returndata */\n      dup1\n        /* \"@openzeppelin/contracts/utils/Address.sol\":5888:5905  mload(returndata) */\n      mload\n        /* \"@openzeppelin/contracts/utils/Address.sol\":5881:5885  0x20 */\n      0x20\n        /* \"@openzeppelin/contracts/utils/Address.sol\":5869:5879  returndata */\n      dup3\n        /* \"@openzeppelin/contracts/utils/Address.sol\":5865:5886  add(returndata, 0x20) */\n      add\n        /* \"@openzeppelin/contracts/utils/Address.sol\":5858:5906  revert(add(returndata, 0x20), mload(returndata)) */\n      revert\n        /* \"@openzeppelin/contracts/utils/Address.sol\":5686:5987  if (returndata.length > 0) {... */\n    tag_306:\n        /* \"@openzeppelin/contracts/utils/Address.sol\":5957:5976  Errors.FailedCall() */\n      mload(0x40)\n      0xd6bda27500000000000000000000000000000000000000000000000000000000\n      dup2\n      mstore\n      0x04\n      add\n      mload(0x40)\n      dup1\n      swap2\n      sub\n      swap1\n      revert\n        /* \"Marketplace.sol\":7428:7770  function _getRoyaltyInfo(address nftAddress, uint256 tokenId, uint256 salePrice) internal view returns (address, uint256) {... */\n    tag_260:\n        /* \"Marketplace.sol\":7532:7539  address */\n      0x00\n        /* \"Marketplace.sol\":7541:7548  uint256 */\n      0x00\n        /* \"Marketplace.sol\":7573:7583  nftAddress */\n      dup5\n        /* \"Marketplace.sol\":7564:7596  IERC2981(nftAddress).royaltyInfo */\n      0xffffffffffffffffffffffffffffffffffffffff\n      and\n      0x2a55205a\n        /* \"Marketplace.sol\":7597:7604  tokenId */\n      dup6\n        /* \"Marketplace.sol\":7606:7615  salePrice */\n      dup6\n        /* \"Marketplace.sol\":7564:7616  IERC2981(nftAddress).royaltyInfo(tokenId, salePrice) */\n      mload(0x40)\n      dup4\n      0xffffffff\n      and\n      0xe0\n      shl\n      dup2\n      mstore\n      0x04\n      add\n      tag_309\n      swap3\n      swap2\n      swap1\n      tag_241\n      jump\t// in\n    tag_309:\n      0x40\n      dup1\n      mload\n      dup1\n      dup4\n      sub\n      dup2\n      dup7\n      gas\n      staticcall\n      swap3\n      pop\n      pop\n      pop\n      dup1\n      iszero\n      tag_310\n      jumpi\n      pop\n      mload(0x40)\n      returndatasize\n      not(0x1f)\n      0x1f\n      dup3\n      add\n      and\n      dup3\n      add\n      dup1\n      0x40\n      mstore\n      pop\n      dup2\n      add\n      swap1\n      tag_311\n      swap2\n      swap1\n      tag_312\n      jump\t// in\n    tag_311:\n      0x01\n    tag_310:\n        /* \"Marketplace.sol\":7560:7764  try IERC2981(nftAddress).royaltyInfo(tokenId, salePrice) returns (address receiver, uint256 amount) {... */\n      tag_313\n      jumpi\n        /* \"Marketplace.sol\":7747:7748  0 */\n      0x00\n        /* \"Marketplace.sol\":7751:7752  0 */\n      0x00\n        /* \"Marketplace.sol\":7731:7753  return (address(0), 0) */\n      swap2\n      pop\n      swap2\n      pop\n      jump(tag_308)\n        /* \"Marketplace.sol\":7560:7764  try IERC2981(nftAddress).royaltyInfo(tokenId, salePrice) returns (address receiver, uint256 amount) {... */\n    tag_313:\n        /* \"Marketplace.sol\":7682:7690  receiver */\n      dup2\n        /* \"Marketplace.sol\":7692:7698  amount */\n      dup2\n        /* \"Marketplace.sol\":7674:7699  return (receiver, amount) */\n      swap4\n      pop\n      swap4\n      pop\n      pop\n      pop\n        /* \"Marketplace.sol\":7428:7770  function _getRoyaltyInfo(address nftAddress, uint256 tokenId, uint256 salePrice) internal view returns (address, uint256) {... */\n    tag_308:\n      swap4\n      pop\n      swap4\n      swap2\n      pop\n      pop\n      jump\t// out\n        /* \"#utility.yul\":88:205   */\n    tag_319:\n        /* \"#utility.yul\":197:198   */\n      0x00\n        /* \"#utility.yul\":194:195   */\n      0x00\n        /* \"#utility.yul\":187:199   */\n      revert\n        /* \"#utility.yul\":211:328   */\n    tag_320:\n        /* \"#utility.yul\":320:321   */\n      0x00\n        /* \"#utility.yul\":317:318   */\n      0x00\n        /* \"#utility.yul\":310:322   */\n      revert\n        /* \"#utility.yul\":334:411   */\n    tag_321:\n        /* \"#utility.yul\":371:378   */\n      0x00\n        /* \"#utility.yul\":400:405   */\n      dup2\n        /* \"#utility.yul\":389:405   */\n      swap1\n      pop\n        /* \"#utility.yul\":334:411   */\n      swap2\n      swap1\n      pop\n      jump\t// out\n        /* \"#utility.yul\":417:539   */\n    tag_322:\n        /* \"#utility.yul\":490:514   */\n      tag_389\n        /* \"#utility.yul\":508:513   */\n      dup2\n        /* \"#utility.yul\":490:514   */\n      tag_321\n      jump\t// in\n    tag_389:\n        /* \"#utility.yul\":483:488   */\n      dup2\n        /* \"#utility.yul\":480:515   */\n      eq\n        /* \"#utility.yul\":470:533   */\n      tag_390\n      jumpi\n        /* \"#utility.yul\":529:530   */\n      0x00\n        /* \"#utility.yul\":526:527   */\n      0x00\n        /* \"#utility.yul\":519:531   */\n      revert\n        /* \"#utility.yul\":470:533   */\n    tag_390:\n        /* \"#utility.yul\":417:539   */\n      pop\n      jump\t// out\n        /* \"#utility.yul\":545:684   */\n    tag_323:\n        /* \"#utility.yul\":591:596   */\n      0x00\n        /* \"#utility.yul\":629:635   */\n      dup2\n        /* \"#utility.yul\":616:636   */\n      calldataload\n        /* \"#utility.yul\":607:636   */\n      swap1\n      pop\n        /* \"#utility.yul\":645:678   */\n      tag_392\n        /* \"#utility.yul\":672:677   */\n      dup2\n        /* \"#utility.yul\":645:678   */\n      tag_322\n      jump\t// in\n    tag_392:\n        /* \"#utility.yul\":545:684   */\n      swap3\n      swap2\n      pop\n      pop\n      jump\t// out\n        /* \"#utility.yul\":690:1019   */\n    tag_29:\n        /* \"#utility.yul\":749:755   */\n      0x00\n        /* \"#utility.yul\":798:800   */\n      0x20\n        /* \"#utility.yul\":786:795   */\n      dup3\n        /* \"#utility.yul\":777:784   */\n      dup5\n        /* \"#utility.yul\":773:796   */\n      sub\n        /* \"#utility.yul\":769:801   */\n      slt\n        /* \"#utility.yul\":766:885   */\n      iszero\n      tag_394\n      jumpi\n        /* \"#utility.yul\":804:883   */\n      tag_395\n      tag_319\n      jump\t// in\n    tag_395:\n        /* \"#utility.yul\":766:885   */\n    tag_394:\n        /* \"#utility.yul\":924:925   */\n      0x00\n        /* \"#utility.yul\":949:1002   */\n      tag_396\n        /* \"#utility.yul\":994:1001   */\n      dup5\n        /* \"#utility.yul\":985:991   */\n      dup3\n        /* \"#utility.yul\":974:983   */\n      dup6\n        /* \"#utility.yul\":970:992   */\n      add\n        /* \"#utility.yul\":949:1002   */\n      tag_323\n      jump\t// in\n    tag_396:\n        /* \"#utility.yul\":939:1002   */\n      swap2\n      pop\n        /* \"#utility.yul\":895:1012   */\n      pop\n        /* \"#utility.yul\":690:1019   */\n      swap3\n      swap2\n      pop\n      pop\n      jump\t// out\n        /* \"#utility.yul\":1025:1151   */\n    tag_324:\n        /* \"#utility.yul\":1062:1069   */\n      0x00\n        /* \"#utility.yul\":1102:1144   */\n      0xffffffffffffffffffffffffffffffffffffffff\n        /* \"#utility.yul\":1095:1100   */\n      dup3\n        /* \"#utility.yul\":1091:1145   */\n      and\n        /* \"#utility.yul\":1080:1145   */\n      swap1\n      pop\n        /* \"#utility.yul\":1025:1151   */\n      swap2\n      swap1\n      pop\n      jump\t// out\n        /* \"#utility.yul\":1157:1253   */\n    tag_325:\n        /* \"#utility.yul\":1194:1201   */\n      0x00\n        /* \"#utility.yul\":1223:1247   */\n      tag_399\n        /* \"#utility.yul\":1241:1246   */\n      dup3\n        /* \"#utility.yul\":1223:1247   */\n      tag_324\n      jump\t// in\n    tag_399:\n        /* \"#utility.yul\":1212:1247   */\n      swap1\n      pop\n        /* \"#utility.yul\":1157:1253   */\n      swap2\n      swap1\n      pop\n      jump\t// out\n        /* \"#utility.yul\":1259:1381   */\n    tag_326:\n        /* \"#utility.yul\":1332:1356   */\n      tag_401\n        /* \"#utility.yul\":1350:1355   */\n      dup2\n        /* \"#utility.yul\":1332:1356   */\n      tag_325\n      jump\t// in\n    tag_401:\n        /* \"#utility.yul\":1325:1330   */\n      dup2\n        /* \"#utility.yul\":1322:1357   */\n      eq\n        /* \"#utility.yul\":1312:1375   */\n      tag_402\n      jumpi\n        /* \"#utility.yul\":1371:1372   */\n      0x00\n        /* \"#utility.yul\":1368:1369   */\n      0x00\n        /* \"#utility.yul\":1361:1373   */\n      revert\n        /* \"#utility.yul\":1312:1375   */\n    tag_402:\n        /* \"#utility.yul\":1259:1381   */\n      pop\n      jump\t// out\n        /* \"#utility.yul\":1387:1526   */\n    tag_327:\n        /* \"#utility.yul\":1433:1438   */\n      0x00\n        /* \"#utility.yul\":1471:1477   */\n      dup2\n        /* \"#utility.yul\":1458:1478   */\n      calldataload\n        /* \"#utility.yul\":1449:1478   */\n      swap1\n      pop\n        /* \"#utility.yul\":1487:1520   */\n      tag_404\n        /* \"#utility.yul\":1514:1519   */\n      dup2\n        /* \"#utility.yul\":1487:1520   */\n      tag_326\n      jump\t// in\n    tag_404:\n        /* \"#utility.yul\":1387:1526   */\n      swap3\n      swap2\n      pop\n      pop\n      jump\t// out\n        /* \"#utility.yul\":1532:2006   */\n    tag_34:\n        /* \"#utility.yul\":1600:1606   */\n      0x00\n        /* \"#utility.yul\":1608:1614   */\n      0x00\n        /* \"#utility.yul\":1657:1659   */\n      0x40\n        /* \"#utility.yul\":1645:1654   */\n      dup4\n        /* \"#utility.yul\":1636:1643   */\n      dup6\n        /* \"#utility.yul\":1632:1655   */\n      sub\n        /* \"#utility.yul\":1628:1660   */\n      slt\n        /* \"#utility.yul\":1625:1744   */\n      iszero\n      tag_406\n      jumpi\n        /* \"#utility.yul\":1663:1742   */\n      tag_407\n      tag_319\n      jump\t// in\n    tag_407:\n        /* \"#utility.yul\":1625:1744   */\n    tag_406:\n        /* \"#utility.yul\":1783:1784   */\n      0x00\n        /* \"#utility.yul\":1808:1861   */\n      tag_408\n        /* \"#utility.yul\":1853:1860   */\n      dup6\n        /* \"#utility.yul\":1844:1850   */\n      dup3\n        /* \"#utility.yul\":1833:1842   */\n      dup7\n        /* \"#utility.yul\":1829:1851   */\n      add\n        /* \"#utility.yul\":1808:1861   */\n      tag_323\n      jump\t// in\n    tag_408:\n        /* \"#utility.yul\":1798:1861   */\n      swap3\n      pop\n        /* \"#utility.yul\":1754:1871   */\n      pop\n        /* \"#utility.yul\":1910:1912   */\n      0x20\n        /* \"#utility.yul\":1936:1989   */\n      tag_409\n        /* \"#utility.yul\":1981:1988   */\n      dup6\n        /* \"#utility.yul\":1972:1978   */\n      dup3\n        /* \"#utility.yul\":1961:1970   */\n      dup7\n        /* \"#utility.yul\":1957:1979   */\n      add\n        /* \"#utility.yul\":1936:1989   */\n      tag_327\n      jump\t// in\n    tag_409:\n        /* \"#utility.yul\":1926:1989   */\n      swap2\n      pop\n        /* \"#utility.yul\":1881:1999   */\n      pop\n        /* \"#utility.yul\":1532:2006   */\n      swap3\n      pop\n      swap3\n      swap1\n      pop\n      jump\t// out\n        /* \"#utility.yul\":2012:2121   */\n    tag_328:\n        /* \"#utility.yul\":2048:2055   */\n      0x00\n        /* \"#utility.yul\":2088:2114   */\n      0xffffffffffffffffffffffff\n        /* \"#utility.yul\":2081:2086   */\n      dup3\n        /* \"#utility.yul\":2077:2115   */\n      and\n        /* \"#utility.yul\":2066:2115   */\n      swap1\n      pop\n        /* \"#utility.yul\":2012:2121   */\n      swap2\n      swap1\n      pop\n      jump\t// out\n        /* \"#utility.yul\":2127:2242   */\n    tag_329:\n        /* \"#utility.yul\":2212:2235   */\n      tag_412\n        /* \"#utility.yul\":2229:2234   */\n      dup2\n        /* \"#utility.yul\":2212:2235   */\n      tag_328\n      jump\t// in\n    tag_412:\n        /* \"#utility.yul\":2207:2210   */\n      dup3\n        /* \"#utility.yul\":2200:2236   */\n      mstore\n        /* \"#utility.yul\":2127:2242   */\n      pop\n      pop\n      jump\t// out\n        /* \"#utility.yul\":2248:2466   */\n    tag_40:\n        /* \"#utility.yul\":2339:2343   */\n      0x00\n        /* \"#utility.yul\":2377:2379   */\n      0x20\n        /* \"#utility.yul\":2366:2375   */\n      dup3\n        /* \"#utility.yul\":2362:2380   */\n      add\n        /* \"#utility.yul\":2354:2380   */\n      swap1\n      pop\n        /* \"#utility.yul\":2390:2459   */\n      tag_414\n        /* \"#utility.yul\":2456:2457   */\n      0x00\n        /* \"#utility.yul\":2445:2454   */\n      dup4\n        /* \"#utility.yul\":2441:2458   */\n      add\n        /* \"#utility.yul\":2432:2438   */\n      dup5\n        /* \"#utility.yul\":2390:2459   */\n      tag_329\n      jump\t// in\n    tag_414:\n        /* \"#utility.yul\":2248:2466   */\n      swap3\n      swap2\n      pop\n      pop\n      jump\t// out\n        /* \"#utility.yul\":2472:2946   */\n    tag_44:\n        /* \"#utility.yul\":2540:2546   */\n      0x00\n        /* \"#utility.yul\":2548:2554   */\n      0x00\n        /* \"#utility.yul\":2597:2599   */\n      0x40\n        /* \"#utility.yul\":2585:2594   */\n      dup4\n        /* \"#utility.yul\":2576:2583   */\n      dup6\n        /* \"#utility.yul\":2572:2595   */\n      sub\n        /* \"#utility.yul\":2568:2600   */\n      slt\n        /* \"#utility.yul\":2565:2684   */\n      iszero\n      tag_416\n      jumpi\n        /* \"#utility.yul\":2603:2682   */\n      tag_417\n      tag_319\n      jump\t// in\n    tag_417:\n        /* \"#utility.yul\":2565:2684   */\n    tag_416:\n        /* \"#utility.yul\":2723:2724   */\n      0x00\n        /* \"#utility.yul\":2748:2801   */\n      tag_418\n        /* \"#utility.yul\":2793:2800   */\n      dup6\n        /* \"#utility.yul\":2784:2790   */\n      dup3\n        /* \"#utility.yul\":2773:2782   */\n      dup7\n        /* \"#utility.yul\":2769:2791   */\n      add\n        /* \"#utility.yul\":2748:2801   */\n      tag_323\n      jump\t// in\n    tag_418:\n        /* \"#utility.yul\":2738:2801   */\n      swap3\n      pop\n        /* \"#utility.yul\":2694:2811   */\n      pop\n        /* \"#utility.yul\":2850:2852   */\n      0x20\n        /* \"#utility.yul\":2876:2929   */\n      tag_419\n        /* \"#utility.yul\":2921:2928   */\n      dup6\n        /* \"#utility.yul\":2912:2918   */\n      dup3\n        /* \"#utility.yul\":2901:2910   */\n      dup7\n        /* \"#utility.yul\":2897:2919   */\n      add\n        /* \"#utility.yul\":2876:2929   */\n      tag_323\n      jump\t// in\n    tag_419:\n        /* \"#utility.yul\":2866:2929   */\n      swap2\n      pop\n        /* \"#utility.yul\":2821:2939   */\n      pop\n        /* \"#utility.yul\":2472:2946   */\n      swap3\n      pop\n      swap3\n      swap1\n      pop\n      jump\t// out\n        /* \"#utility.yul\":2952:3070   */\n    tag_330:\n        /* \"#utility.yul\":3039:3063   */\n      tag_421\n        /* \"#utility.yul\":3057:3062   */\n      dup2\n        /* \"#utility.yul\":3039:3063   */\n      tag_325\n      jump\t// in\n    tag_421:\n        /* \"#utility.yul\":3034:3037   */\n      dup3\n        /* \"#utility.yul\":3027:3064   */\n      mstore\n        /* \"#utility.yul\":2952:3070   */\n      pop\n      pop\n      jump\t// out\n        /* \"#utility.yul\":3076:3298   */\n    tag_50:\n        /* \"#utility.yul\":3169:3173   */\n      0x00\n        /* \"#utility.yul\":3207:3209   */\n      0x20\n        /* \"#utility.yul\":3196:3205   */\n      dup3\n        /* \"#utility.yul\":3192:3210   */\n      add\n        /* \"#utility.yul\":3184:3210   */\n      swap1\n      pop\n        /* \"#utility.yul\":3220:3291   */\n      tag_423\n        /* \"#utility.yul\":3288:3289   */\n      0x00\n        /* \"#utility.yul\":3277:3286   */\n      dup4\n        /* \"#utility.yul\":3273:3290   */\n      add\n        /* \"#utility.yul\":3264:3270   */\n      dup5\n        /* \"#utility.yul\":3220:3291   */\n      tag_330\n      jump\t// in\n    tag_423:\n        /* \"#utility.yul\":3076:3298   */\n      swap3\n      swap2\n      pop\n      pop\n      jump\t// out\n        /* \"#utility.yul\":3304:3424   */\n    tag_331:\n        /* \"#utility.yul\":3376:3399   */\n      tag_425\n        /* \"#utility.yul\":3393:3398   */\n      dup2\n        /* \"#utility.yul\":3376:3399   */\n      tag_328\n      jump\t// in\n    tag_425:\n        /* \"#utility.yul\":3369:3374   */\n      dup2\n        /* \"#utility.yul\":3366:3400   */\n      eq\n        /* \"#utility.yul\":3356:3418   */\n      tag_426\n      jumpi\n        /* \"#utility.yul\":3414:3415   */\n      0x00\n        /* \"#utility.yul\":3411:3412   */\n      0x00\n        /* \"#utility.yul\":3404:3416   */\n      revert\n        /* \"#utility.yul\":3356:3418   */\n    tag_426:\n        /* \"#utility.yul\":3304:3424   */\n      pop\n      jump\t// out\n        /* \"#utility.yul\":3430:3567   */\n    tag_332:\n        /* \"#utility.yul\":3475:3480   */\n      0x00\n        /* \"#utility.yul\":3513:3519   */\n      dup2\n        /* \"#utility.yul\":3500:3520   */\n      calldataload\n        /* \"#utility.yul\":3491:3520   */\n      swap1\n      pop\n        /* \"#utility.yul\":3529:3561   */\n      tag_428\n        /* \"#utility.yul\":3555:3560   */\n      dup2\n        /* \"#utility.yul\":3529:3561   */\n      tag_331\n      jump\t// in\n    tag_428:\n        /* \"#utility.yul\":3430:3567   */\n      swap3\n      swap2\n      pop\n      pop\n      jump\t// out\n        /* \"#utility.yul\":3573:3900   */\n    tag_54:\n        /* \"#utility.yul\":3631:3637   */\n      0x00\n        /* \"#utility.yul\":3680:3682   */\n      0x20\n        /* \"#utility.yul\":3668:3677   */\n      dup3\n        /* \"#utility.yul\":3659:3666   */\n      dup5\n        /* \"#utility.yul\":3655:3678   */\n      sub\n        /* \"#utility.yul\":3651:3683   */\n      slt\n        /* \"#utility.yul\":3648:3767   */\n      iszero\n      tag_430\n      jumpi\n        /* \"#utility.yul\":3686:3765   */\n      tag_431\n      tag_319\n      jump\t// in\n    tag_431:\n        /* \"#utility.yul\":3648:3767   */\n    tag_430:\n        /* \"#utility.yul\":3806:3807   */\n      0x00\n        /* \"#utility.yul\":3831:3883   */\n      tag_432\n        /* \"#utility.yul\":3875:3882   */\n      dup5\n        /* \"#utility.yul\":3866:3872   */\n      dup3\n        /* \"#utility.yul\":3855:3864   */\n      dup6\n        /* \"#utility.yul\":3851:3873   */\n      add\n        /* \"#utility.yul\":3831:3883   */\n      tag_332\n      jump\t// in\n    tag_432:\n        /* \"#utility.yul\":3821:3883   */\n      swap2\n      pop\n        /* \"#utility.yul\":3777:3893   */\n      pop\n        /* \"#utility.yul\":3573:3900   */\n      swap3\n      swap2\n      pop\n      pop\n      jump\t// out\n        /* \"#utility.yul\":3906:4525   */\n    tag_59:\n        /* \"#utility.yul\":3983:3989   */\n      0x00\n        /* \"#utility.yul\":3991:3997   */\n      0x00\n        /* \"#utility.yul\":3999:4005   */\n      0x00\n        /* \"#utility.yul\":4048:4050   */\n      0x60\n        /* \"#utility.yul\":4036:4045   */\n      dup5\n        /* \"#utility.yul\":4027:4034   */\n      dup7\n        /* \"#utility.yul\":4023:4046   */\n      sub\n        /* \"#utility.yul\":4019:4051   */\n      slt\n        /* \"#utility.yul\":4016:4135   */\n      iszero\n      tag_434\n      jumpi\n        /* \"#utility.yul\":4054:4133   */\n      tag_435\n      tag_319\n      jump\t// in\n    tag_435:\n        /* \"#utility.yul\":4016:4135   */\n    tag_434:\n        /* \"#utility.yul\":4174:4175   */\n      0x00\n        /* \"#utility.yul\":4199:4252   */\n      tag_436\n        /* \"#utility.yul\":4244:4251   */\n      dup7\n        /* \"#utility.yul\":4235:4241   */\n      dup3\n        /* \"#utility.yul\":4224:4233   */\n      dup8\n        /* \"#utility.yul\":4220:4242   */\n      add\n        /* \"#utility.yul\":4199:4252   */\n      tag_327\n      jump\t// in\n    tag_436:\n        /* \"#utility.yul\":4189:4252   */\n      swap4\n      pop\n        /* \"#utility.yul\":4145:4262   */\n      pop\n        /* \"#utility.yul\":4301:4303   */\n      0x20\n        /* \"#utility.yul\":4327:4380   */\n      tag_437\n        /* \"#utility.yul\":4372:4379   */\n      dup7\n        /* \"#utility.yul\":4363:4369   */\n      dup3\n        /* \"#utility.yul\":4352:4361   */\n      dup8\n        /* \"#utility.yul\":4348:4370   */\n      add\n        /* \"#utility.yul\":4327:4380   */\n      tag_323\n      jump\t// in\n    tag_437:\n        /* \"#utility.yul\":4317:4380   */\n      swap3\n      pop\n        /* \"#utility.yul\":4272:4390   */\n      pop\n        /* \"#utility.yul\":4429:4431   */\n      0x40\n        /* \"#utility.yul\":4455:4508   */\n      tag_438\n        /* \"#utility.yul\":4500:4507   */\n      dup7\n        /* \"#utility.yul\":4491:4497   */\n      dup3\n        /* \"#utility.yul\":4480:4489   */\n      dup8\n        /* \"#utility.yul\":4476:4498   */\n      add\n        /* \"#utility.yul\":4455:4508   */\n      tag_327\n      jump\t// in\n    tag_438:\n        /* \"#utility.yul\":4445:4508   */\n      swap2\n      pop\n        /* \"#utility.yul\":4400:4518   */\n      pop\n        /* \"#utility.yul\":3906:4525   */\n      swap3\n      pop\n      swap3\n      pop\n      swap3\n      jump\t// out\n        /* \"#utility.yul\":4531:4648   */\n    tag_333:\n        /* \"#utility.yul\":4640:4641   */\n      0x00\n        /* \"#utility.yul\":4637:4638   */\n      0x00\n        /* \"#utility.yul\":4630:4642   */\n      revert\n        /* \"#utility.yul\":4654:4771   */\n    tag_334:\n        /* \"#utility.yul\":4763:4764   */\n      0x00\n        /* \"#utility.yul\":4760:4761   */\n      0x00\n        /* \"#utility.yul\":4753:4765   */\n      revert\n        /* \"#utility.yul\":4777:4894   */\n    tag_335:\n        /* \"#utility.yul\":4886:4887   */\n      0x00\n        /* \"#utility.yul\":4883:4884   */\n      0x00\n        /* \"#utility.yul\":4876:4888   */\n      revert\n        /* \"#utility.yul\":4914:5467   */\n    tag_336:\n        /* \"#utility.yul\":4972:4980   */\n      0x00\n        /* \"#utility.yul\":4982:4988   */\n      0x00\n        /* \"#utility.yul\":5032:5035   */\n      dup4\n        /* \"#utility.yul\":5025:5029   */\n      0x1f\n        /* \"#utility.yul\":5017:5023   */\n      dup5\n        /* \"#utility.yul\":5013:5030   */\n      add\n        /* \"#utility.yul\":5009:5036   */\n      slt\n        /* \"#utility.yul\":4999:5121   */\n      tag_443\n      jumpi\n        /* \"#utility.yul\":5040:5119   */\n      tag_444\n      tag_333\n      jump\t// in\n    tag_444:\n        /* \"#utility.yul\":4999:5121   */\n    tag_443:\n        /* \"#utility.yul\":5153:5159   */\n      dup3\n        /* \"#utility.yul\":5140:5160   */\n      calldataload\n        /* \"#utility.yul\":5130:5160   */\n      swap1\n      pop\n        /* \"#utility.yul\":5183:5201   */\n      0xffffffffffffffff\n        /* \"#utility.yul\":5175:5181   */\n      dup2\n        /* \"#utility.yul\":5172:5202   */\n      gt\n        /* \"#utility.yul\":5169:5286   */\n      iszero\n      tag_445\n      jumpi\n        /* \"#utility.yul\":5205:5284   */\n      tag_446\n      tag_334\n      jump\t// in\n    tag_446:\n        /* \"#utility.yul\":5169:5286   */\n    tag_445:\n        /* \"#utility.yul\":5319:5323   */\n      0x20\n        /* \"#utility.yul\":5311:5317   */\n      dup4\n        /* \"#utility.yul\":5307:5324   */\n      add\n        /* \"#utility.yul\":5295:5324   */\n      swap2\n      pop\n        /* \"#utility.yul\":5373:5376   */\n      dup4\n        /* \"#utility.yul\":5365:5369   */\n      0x01\n        /* \"#utility.yul\":5357:5363   */\n      dup3\n        /* \"#utility.yul\":5353:5370   */\n      mul\n        /* \"#utility.yul\":5343:5351   */\n      dup4\n        /* \"#utility.yul\":5339:5371   */\n      add\n        /* \"#utility.yul\":5336:5377   */\n      gt\n        /* \"#utility.yul\":5333:5461   */\n      iszero\n      tag_447\n      jumpi\n        /* \"#utility.yul\":5380:5459   */\n      tag_448\n      tag_335\n      jump\t// in\n    tag_448:\n        /* \"#utility.yul\":5333:5461   */\n    tag_447:\n        /* \"#utility.yul\":4914:5467   */\n      swap3\n      pop\n      swap3\n      swap1\n      pop\n      jump\t// out\n        /* \"#utility.yul\":5473:6584   */\n    tag_67:\n        /* \"#utility.yul\":5580:5586   */\n      0x00\n        /* \"#utility.yul\":5588:5594   */\n      0x00\n        /* \"#utility.yul\":5596:5602   */\n      0x00\n        /* \"#utility.yul\":5604:5610   */\n      0x00\n        /* \"#utility.yul\":5612:5618   */\n      0x00\n        /* \"#utility.yul\":5620:5626   */\n      0x00\n        /* \"#utility.yul\":5669:5672   */\n      0xa0\n        /* \"#utility.yul\":5657:5666   */\n      dup8\n        /* \"#utility.yul\":5648:5655   */\n      dup10\n        /* \"#utility.yul\":5644:5667   */\n      sub\n        /* \"#utility.yul\":5640:5673   */\n      slt\n        /* \"#utility.yul\":5637:5757   */\n      iszero\n      tag_450\n      jumpi\n        /* \"#utility.yul\":5676:5755   */\n      tag_451\n      tag_319\n      jump\t// in\n    tag_451:\n        /* \"#utility.yul\":5637:5757   */\n    tag_450:\n        /* \"#utility.yul\":5796:5797   */\n      0x00\n        /* \"#utility.yul\":5821:5874   */\n      tag_452\n        /* \"#utility.yul\":5866:5873   */\n      dup10\n        /* \"#utility.yul\":5857:5863   */\n      dup3\n        /* \"#utility.yul\":5846:5855   */\n      dup11\n        /* \"#utility.yul\":5842:5864   */\n      add\n        /* \"#utility.yul\":5821:5874   */\n      tag_327\n      jump\t// in\n    tag_452:\n        /* \"#utility.yul\":5811:5874   */\n      swap7\n      pop\n        /* \"#utility.yul\":5767:5884   */\n      pop\n        /* \"#utility.yul\":5923:5925   */\n      0x20\n        /* \"#utility.yul\":5949:6002   */\n      tag_453\n        /* \"#utility.yul\":5994:6001   */\n      dup10\n        /* \"#utility.yul\":5985:5991   */\n      dup3\n        /* \"#utility.yul\":5974:5983   */\n      dup11\n        /* \"#utility.yul\":5970:5992   */\n      add\n        /* \"#utility.yul\":5949:6002   */\n      tag_323\n      jump\t// in\n    tag_453:\n        /* \"#utility.yul\":5939:6002   */\n      swap6\n      pop\n        /* \"#utility.yul\":5894:6012   */\n      pop\n        /* \"#utility.yul\":6051:6053   */\n      0x40\n        /* \"#utility.yul\":6077:6130   */\n      tag_454\n        /* \"#utility.yul\":6122:6129   */\n      dup10\n        /* \"#utility.yul\":6113:6119   */\n      dup3\n        /* \"#utility.yul\":6102:6111   */\n      dup11\n        /* \"#utility.yul\":6098:6120   */\n      add\n        /* \"#utility.yul\":6077:6130   */\n      tag_323\n      jump\t// in\n    tag_454:\n        /* \"#utility.yul\":6067:6130   */\n      swap5\n      pop\n        /* \"#utility.yul\":6022:6140   */\n      pop\n        /* \"#utility.yul\":6179:6181   */\n      0x60\n        /* \"#utility.yul\":6205:6258   */\n      tag_455\n        /* \"#utility.yul\":6250:6257   */\n      dup10\n        /* \"#utility.yul\":6241:6247   */\n      dup3\n        /* \"#utility.yul\":6230:6239   */\n      dup11\n        /* \"#utility.yul\":6226:6248   */\n      add\n        /* \"#utility.yul\":6205:6258   */\n      tag_327\n      jump\t// in\n    tag_455:\n        /* \"#utility.yul\":6195:6258   */\n      swap4\n      pop\n        /* \"#utility.yul\":6150:6268   */\n      pop\n        /* \"#utility.yul\":6335:6338   */\n      0x80\n        /* \"#utility.yul\":6324:6333   */\n      dup8\n        /* \"#utility.yul\":6320:6339   */\n      add\n        /* \"#utility.yul\":6307:6340   */\n      calldataload\n        /* \"#utility.yul\":6367:6385   */\n      0xffffffffffffffff\n        /* \"#utility.yul\":6359:6365   */\n      dup2\n        /* \"#utility.yul\":6356:6386   */\n      gt\n        /* \"#utility.yul\":6353:6470   */\n      iszero\n      tag_456\n      jumpi\n        /* \"#utility.yul\":6389:6468   */\n      tag_457\n      tag_320\n      jump\t// in\n    tag_457:\n        /* \"#utility.yul\":6353:6470   */\n    tag_456:\n        /* \"#utility.yul\":6502:6567   */\n      tag_458\n        /* \"#utility.yul\":6559:6566   */\n      dup10\n        /* \"#utility.yul\":6550:6556   */\n      dup3\n        /* \"#utility.yul\":6539:6548   */\n      dup11\n        /* \"#utility.yul\":6535:6557   */\n      add\n        /* \"#utility.yul\":6502:6567   */\n      tag_336\n      jump\t// in\n    tag_458:\n        /* \"#utility.yul\":6484:6567   */\n      swap3\n      pop\n      swap3\n      pop\n        /* \"#utility.yul\":6278:6577   */\n      pop\n        /* \"#utility.yul\":5473:6584   */\n      swap3\n      swap6\n      pop\n      swap3\n      swap6\n      pop\n      swap3\n      swap6\n      jump\t// out\n        /* \"#utility.yul\":6590:6918   */\n    tag_77:\n        /* \"#utility.yul\":6709:6713   */\n      0x00\n        /* \"#utility.yul\":6747:6749   */\n      0x40\n        /* \"#utility.yul\":6736:6745   */\n      dup3\n        /* \"#utility.yul\":6732:6750   */\n      add\n        /* \"#utility.yul\":6724:6750   */\n      swap1\n      pop\n        /* \"#utility.yul\":6760:6829   */\n      tag_460\n        /* \"#utility.yul\":6826:6827   */\n      0x00\n        /* \"#utility.yul\":6815:6824   */\n      dup4\n        /* \"#utility.yul\":6811:6828   */\n      add\n        /* \"#utility.yul\":6802:6808   */\n      dup6\n        /* \"#utility.yul\":6760:6829   */\n      tag_329\n      jump\t// in\n    tag_460:\n        /* \"#utility.yul\":6839:6911   */\n      tag_461\n        /* \"#utility.yul\":6907:6909   */\n      0x20\n        /* \"#utility.yul\":6896:6905   */\n      dup4\n        /* \"#utility.yul\":6892:6910   */\n      add\n        /* \"#utility.yul\":6883:6889   */\n      dup5\n        /* \"#utility.yul\":6839:6911   */\n      tag_330\n      jump\t// in\n    tag_461:\n        /* \"#utility.yul\":6590:6918   */\n      swap4\n      swap3\n      pop\n      pop\n      pop\n      jump\t// out\n        /* \"#utility.yul\":6924:7042   */\n    tag_337:\n        /* \"#utility.yul\":7011:7035   */\n      tag_463\n        /* \"#utility.yul\":7029:7034   */\n      dup2\n        /* \"#utility.yul\":7011:7035   */\n      tag_321\n      jump\t// in\n    tag_463:\n        /* \"#utility.yul\":7006:7009   */\n      dup3\n        /* \"#utility.yul\":6999:7036   */\n      mstore\n        /* \"#utility.yul\":6924:7042   */\n      pop\n      pop\n      jump\t// out\n        /* \"#utility.yul\":7048:7138   */\n    tag_338:\n        /* \"#utility.yul\":7082:7089   */\n      0x00\n        /* \"#utility.yul\":7125:7130   */\n      dup2\n        /* \"#utility.yul\":7118:7131   */\n      iszero\n        /* \"#utility.yul\":7111:7132   */\n      iszero\n        /* \"#utility.yul\":7100:7132   */\n      swap1\n      pop\n        /* \"#utility.yul\":7048:7138   */\n      swap2\n      swap1\n      pop\n      jump\t// out\n        /* \"#utility.yul\":7144:7253   */\n    tag_339:\n        /* \"#utility.yul\":7225:7246   */\n      tag_466\n        /* \"#utility.yul\":7240:7245   */\n      dup2\n        /* \"#utility.yul\":7225:7246   */\n      tag_338\n      jump\t// in\n    tag_466:\n        /* \"#utility.yul\":7220:7223   */\n      dup3\n        /* \"#utility.yul\":7213:7247   */\n      mstore\n        /* \"#utility.yul\":7144:7253   */\n      pop\n      pop\n      jump\t// out\n        /* \"#utility.yul\":7259:8022   */\n    tag_83:\n        /* \"#utility.yul\":7486:7490   */\n      0x00\n        /* \"#utility.yul\":7524:7527   */\n      0xc0\n        /* \"#utility.yul\":7513:7522   */\n      dup3\n        /* \"#utility.yul\":7509:7528   */\n      add\n        /* \"#utility.yul\":7501:7528   */\n      swap1\n      pop\n        /* \"#utility.yul\":7538:7609   */\n      tag_468\n        /* \"#utility.yul\":7606:7607   */\n      0x00\n        /* \"#utility.yul\":7595:7604   */\n      dup4\n        /* \"#utility.yul\":7591:7608   */\n      add\n        /* \"#utility.yul\":7582:7588   */\n      dup10\n        /* \"#utility.yul\":7538:7609   */\n      tag_330\n      jump\t// in\n    tag_468:\n        /* \"#utility.yul\":7619:7691   */\n      tag_469\n        /* \"#utility.yul\":7687:7689   */\n      0x20\n        /* \"#utility.yul\":7676:7685   */\n      dup4\n        /* \"#utility.yul\":7672:7690   */\n      add\n        /* \"#utility.yul\":7663:7669   */\n      dup9\n        /* \"#utility.yul\":7619:7691   */\n      tag_330\n      jump\t// in\n    tag_469:\n        /* \"#utility.yul\":7701:7773   */\n      tag_470\n        /* \"#utility.yul\":7769:7771   */\n      0x40\n        /* \"#utility.yul\":7758:7767   */\n      dup4\n        /* \"#utility.yul\":7754:7772   */\n      add\n        /* \"#utility.yul\":7745:7751   */\n      dup8\n        /* \"#utility.yul\":7701:7773   */\n      tag_337\n      jump\t// in\n    tag_470:\n        /* \"#utility.yul\":7783:7855   */\n      tag_471\n        /* \"#utility.yul\":7851:7853   */\n      0x60\n        /* \"#utility.yul\":7840:7849   */\n      dup4\n        /* \"#utility.yul\":7836:7854   */\n      add\n        /* \"#utility.yul\":7827:7833   */\n      dup7\n        /* \"#utility.yul\":7783:7855   */\n      tag_337\n      jump\t// in\n    tag_471:\n        /* \"#utility.yul\":7865:7938   */\n      tag_472\n        /* \"#utility.yul\":7933:7936   */\n      0x80\n        /* \"#utility.yul\":7922:7931   */\n      dup4\n        /* \"#utility.yul\":7918:7937   */\n      add\n        /* \"#utility.yul\":7909:7915   */\n      dup6\n        /* \"#utility.yul\":7865:7938   */\n      tag_330\n      jump\t// in\n    tag_472:\n        /* \"#utility.yul\":7948:8015   */\n      tag_473\n        /* \"#utility.yul\":8010:8013   */\n      0xa0\n        /* \"#utility.yul\":7999:8008   */\n      dup4\n        /* \"#utility.yul\":7995:8014   */\n      add\n        /* \"#utility.yul\":7986:7992   */\n      dup5\n        /* \"#utility.yul\":7948:8015   */\n      tag_339\n      jump\t// in\n    tag_473:\n        /* \"#utility.yul\":7259:8022   */\n      swap8\n      swap7\n      pop\n      pop\n      pop\n      pop\n      pop\n      pop\n      pop\n      jump\t// out\n        /* \"#utility.yul\":8028:8357   */\n    tag_87:\n        /* \"#utility.yul\":8087:8093   */\n      0x00\n        /* \"#utility.yul\":8136:8138   */\n      0x20\n        /* \"#utility.yul\":8124:8133   */\n      dup3\n        /* \"#utility.yul\":8115:8122   */\n      dup5\n        /* \"#utility.yul\":8111:8134   */\n      sub\n        /* \"#utility.yul\":8107:8139   */\n      slt\n        /* \"#utility.yul\":8104:8223   */\n      iszero\n      tag_475\n      jumpi\n        /* \"#utility.yul\":8142:8221   */\n      tag_476\n      tag_319\n      jump\t// in\n    tag_476:\n        /* \"#utility.yul\":8104:8223   */\n    tag_475:\n        /* \"#utility.yul\":8262:8263   */\n      0x00\n        /* \"#utility.yul\":8287:8340   */\n      tag_477\n        /* \"#utility.yul\":8332:8339   */\n      dup5\n        /* \"#utility.yul\":8323:8329   */\n      dup3\n        /* \"#utility.yul\":8312:8321   */\n      dup6\n        /* \"#utility.yul\":8308:8330   */\n      add\n        /* \"#utility.yul\":8287:8340   */\n      tag_327\n      jump\t// in\n    tag_477:\n        /* \"#utility.yul\":8277:8340   */\n      swap2\n      pop\n        /* \"#utility.yul\":8233:8350   */\n      pop\n        /* \"#utility.yul\":8028:8357   */\n      swap3\n      swap2\n      pop\n      pop\n      jump\t// out\n        /* \"#utility.yul\":8363:8837   */\n    tag_99:\n        /* \"#utility.yul\":8431:8437   */\n      0x00\n        /* \"#utility.yul\":8439:8445   */\n      0x00\n        /* \"#utility.yul\":8488:8490   */\n      0x40\n        /* \"#utility.yul\":8476:8485   */\n      dup4\n        /* \"#utility.yul\":8467:8474   */\n      dup6\n        /* \"#utility.yul\":8463:8486   */\n      sub\n        /* \"#utility.yul\":8459:8491   */\n      slt\n        /* \"#utility.yul\":8456:8575   */\n      iszero\n      tag_479\n      jumpi\n        /* \"#utility.yul\":8494:8573   */\n      tag_480\n      tag_319\n      jump\t// in\n    tag_480:\n        /* \"#utility.yul\":8456:8575   */\n    tag_479:\n        /* \"#utility.yul\":8614:8615   */\n      0x00\n        /* \"#utility.yul\":8639:8692   */\n      tag_481\n        /* \"#utility.yul\":8684:8691   */\n      dup6\n        /* \"#utility.yul\":8675:8681   */\n      dup3\n        /* \"#utility.yul\":8664:8673   */\n      dup7\n        /* \"#utility.yul\":8660:8682   */\n      add\n        /* \"#utility.yul\":8639:8692   */\n      tag_327\n      jump\t// in\n    tag_481:\n        /* \"#utility.yul\":8629:8692   */\n      swap3\n      pop\n        /* \"#utility.yul\":8585:8702   */\n      pop\n        /* \"#utility.yul\":8741:8743   */\n      0x20\n        /* \"#utility.yul\":8767:8820   */\n      tag_482\n        /* \"#utility.yul\":8812:8819   */\n      dup6\n        /* \"#utility.yul\":8803:8809   */\n      dup3\n        /* \"#utility.yul\":8792:8801   */\n      dup7\n        /* \"#utility.yul\":8788:8810   */\n      add\n        /* \"#utility.yul\":8767:8820   */\n      tag_323\n      jump\t// in\n    tag_482:\n        /* \"#utility.yul\":8757:8820   */\n      swap2\n      pop\n        /* \"#utility.yul\":8712:8830   */\n      pop\n        /* \"#utility.yul\":8363:8837   */\n      swap3\n      pop\n      swap3\n      swap1\n      pop\n      jump\t// out\n        /* \"#utility.yul\":8843:9065   */\n    tag_102:\n        /* \"#utility.yul\":8936:8940   */\n      0x00\n        /* \"#utility.yul\":8974:8976   */\n      0x20\n        /* \"#utility.yul\":8963:8972   */\n      dup3\n        /* \"#utility.yul\":8959:8977   */\n      add\n        /* \"#utility.yul\":8951:8977   */\n      swap1\n      pop\n        /* \"#utility.yul\":8987:9058   */\n      tag_484\n        /* \"#utility.yul\":9055:9056   */\n      0x00\n        /* \"#utility.yul\":9044:9053   */\n      dup4\n        /* \"#utility.yul\":9040:9057   */\n      add\n        /* \"#utility.yul\":9031:9037   */\n      dup5\n        /* \"#utility.yul\":8987:9058   */\n      tag_337\n      jump\t// in\n    tag_484:\n        /* \"#utility.yul\":8843:9065   */\n      swap3\n      swap2\n      pop\n      pop\n      jump\t// out\n        /* \"#utility.yul\":9071:9240   */\n    tag_340:\n        /* \"#utility.yul\":9155:9166   */\n      0x00\n        /* \"#utility.yul\":9189:9195   */\n      dup3\n        /* \"#utility.yul\":9184:9187   */\n      dup3\n        /* \"#utility.yul\":9177:9196   */\n      mstore\n        /* \"#utility.yul\":9229:9233   */\n      0x20\n        /* \"#utility.yul\":9224:9227   */\n      dup3\n        /* \"#utility.yul\":9220:9234   */\n      add\n        /* \"#utility.yul\":9205:9234   */\n      swap1\n      pop\n        /* \"#utility.yul\":9071:9240   */\n      swap3\n      swap2\n      pop\n      pop\n      jump\t// out\n        /* \"#utility.yul\":9246:9406   */\n    tag_341:\n        /* \"#utility.yul\":9386:9398   */\n      0x6e6f742061637469766500000000000000000000000000000000000000000000\n        /* \"#utility.yul\":9382:9383   */\n      0x00\n        /* \"#utility.yul\":9374:9380   */\n      dup3\n        /* \"#utility.yul\":9370:9384   */\n      add\n        /* \"#utility.yul\":9363:9399   */\n      mstore\n        /* \"#utility.yul\":9246:9406   */\n      pop\n      jump\t// out\n        /* \"#utility.yul\":9412:9778   */\n    tag_342:\n        /* \"#utility.yul\":9554:9557   */\n      0x00\n        /* \"#utility.yul\":9575:9642   */\n      tag_488\n        /* \"#utility.yul\":9639:9641   */\n      0x0a\n        /* \"#utility.yul\":9634:9637   */\n      dup4\n        /* \"#utility.yul\":9575:9642   */\n      tag_340\n      jump\t// in\n    tag_488:\n        /* \"#utility.yul\":9568:9642   */\n      swap2\n      pop\n        /* \"#utility.yul\":9651:9744   */\n      tag_489\n        /* \"#utility.yul\":9740:9743   */\n      dup3\n        /* \"#utility.yul\":9651:9744   */\n      tag_341\n      jump\t// in\n    tag_489:\n        /* \"#utility.yul\":9769:9771   */\n      0x20\n        /* \"#utility.yul\":9764:9767   */\n      dup3\n        /* \"#utility.yul\":9760:9772   */\n      add\n        /* \"#utility.yul\":9753:9772   */\n      swap1\n      pop\n        /* \"#utility.yul\":9412:9778   */\n      swap2\n      swap1\n      pop\n      jump\t// out\n        /* \"#utility.yul\":9784:10203   */\n    tag_109:\n        /* \"#utility.yul\":9950:9954   */\n      0x00\n        /* \"#utility.yul\":9988:9990   */\n      0x20\n        /* \"#utility.yul\":9977:9986   */\n      dup3\n        /* \"#utility.yul\":9973:9991   */\n      add\n        /* \"#utility.yul\":9965:9991   */\n      swap1\n      pop\n        /* \"#utility.yul\":10037:10046   */\n      dup2\n        /* \"#utility.yul\":10031:10035   */\n      dup2\n        /* \"#utility.yul\":10027:10047   */\n      sub\n        /* \"#utility.yul\":10023:10024   */\n      0x00\n        /* \"#utility.yul\":10012:10021   */\n      dup4\n        /* \"#utility.yul\":10008:10025   */\n      add\n        /* \"#utility.yul\":10001:10048   */\n      mstore\n        /* \"#utility.yul\":10065:10196   */\n      tag_491\n        /* \"#utility.yul\":10191:10195   */\n      dup2\n        /* \"#utility.yul\":10065:10196   */\n      tag_342\n      jump\t// in\n    tag_491:\n        /* \"#utility.yul\":10057:10196   */\n      swap1\n      pop\n        /* \"#utility.yul\":9784:10203   */\n      swap2\n      swap1\n      pop\n      jump\t// out\n        /* \"#utility.yul\":10209:10370   */\n    tag_343:\n        /* \"#utility.yul\":10349:10362   */\n      0x6e6f7420616c6c6f776564000000000000000000000000000000000000000000\n        /* \"#utility.yul\":10345:10346   */\n      0x00\n        /* \"#utility.yul\":10337:10343   */\n      dup3\n        /* \"#utility.yul\":10333:10347   */\n      add\n        /* \"#utility.yul\":10326:10363   */\n      mstore\n        /* \"#utility.yul\":10209:10370   */\n      pop\n      jump\t// out\n        /* \"#utility.yul\":10376:10742   */\n    tag_344:\n        /* \"#utility.yul\":10518:10521   */\n      0x00\n        /* \"#utility.yul\":10539:10606   */\n      tag_494\n        /* \"#utility.yul\":10603:10605   */\n      0x0b\n        /* \"#utility.yul\":10598:10601   */\n      dup4\n        /* \"#utility.yul\":10539:10606   */\n      tag_340\n      jump\t// in\n    tag_494:\n        /* \"#utility.yul\":10532:10606   */\n      swap2\n      pop\n        /* \"#utility.yul\":10615:10708   */\n      tag_495\n        /* \"#utility.yul\":10704:10707   */\n      dup3\n        /* \"#utility.yul\":10615:10708   */\n      tag_343\n      jump\t// in\n    tag_495:\n        /* \"#utility.yul\":10733:10735   */\n      0x20\n        /* \"#utility.yul\":10728:10731   */\n      dup3\n        /* \"#utility.yul\":10724:10736   */\n      add\n        /* \"#utility.yul\":10717:10736   */\n      swap1\n      pop\n        /* \"#utility.yul\":10376:10742   */\n      swap2\n      swap1\n      pop\n      jump\t// out\n        /* \"#utility.yul\":10748:11167   */\n    tag_114:\n        /* \"#utility.yul\":10914:10918   */\n      0x00\n        /* \"#utility.yul\":10952:10954   */\n      0x20\n        /* \"#utility.yul\":10941:10950   */\n      dup3\n        /* \"#utility.yul\":10937:10955   */\n      add\n        /* \"#utility.yul\":10929:10955   */\n      swap1\n      pop\n        /* \"#utility.yul\":11001:11010   */\n      dup2\n        /* \"#utility.yul\":10995:10999   */\n      dup2\n        /* \"#utility.yul\":10991:11011   */\n      sub\n        /* \"#utility.yul\":10987:10988   */\n      0x00\n        /* \"#utility.yul\":10976:10985   */\n      dup4\n        /* \"#utility.yul\":10972:10989   */\n      add\n        /* \"#utility.yul\":10965:11012   */\n      mstore\n        /* \"#utility.yul\":11029:11160   */\n      tag_497\n        /* \"#utility.yul\":11155:11159   */\n      dup2\n        /* \"#utility.yul\":11029:11160   */\n      tag_344\n      jump\t// in\n    tag_497:\n        /* \"#utility.yul\":11021:11160   */\n      swap1\n      pop\n        /* \"#utility.yul\":10748:11167   */\n      swap2\n      swap1\n      pop\n      jump\t// out\n        /* \"#utility.yul\":11173:11342   */\n    tag_345:\n        /* \"#utility.yul\":11313:11334   */\n      0x7061796d656e74546f6b656e2069732045544800000000000000000000000000\n        /* \"#utility.yul\":11309:11310   */\n      0x00\n        /* \"#utility.yul\":11301:11307   */\n      dup3\n        /* \"#utility.yul\":11297:11311   */\n      add\n        /* \"#utility.yul\":11290:11335   */\n      mstore\n        /* \"#utility.yul\":11173:11342   */\n      pop\n      jump\t// out\n        /* \"#utility.yul\":11348:11714   */\n    tag_346:\n        /* \"#utility.yul\":11490:11493   */\n      0x00\n        /* \"#utility.yul\":11511:11578   */\n      tag_500\n        /* \"#utility.yul\":11575:11577   */\n      0x13\n        /* \"#utility.yul\":11570:11573   */\n      dup4\n        /* \"#utility.yul\":11511:11578   */\n      tag_340\n      jump\t// in\n    tag_500:\n        /* \"#utility.yul\":11504:11578   */\n      swap2\n      pop\n        /* \"#utility.yul\":11587:11680   */\n      tag_501\n        /* \"#utility.yul\":11676:11679   */\n      dup3\n        /* \"#utility.yul\":11587:11680   */\n      tag_345\n      jump\t// in\n    tag_501:\n        /* \"#utility.yul\":11705:11707   */\n      0x20\n        /* \"#utility.yul\":11700:11703   */\n      dup3\n        /* \"#utility.yul\":11696:11708   */\n      add\n        /* \"#utility.yul\":11689:11708   */\n      swap1\n      pop\n        /* \"#utility.yul\":11348:11714   */\n      swap2\n      swap1\n      pop\n      jump\t// out\n        /* \"#utility.yul\":11720:12139   */\n    tag_130:\n        /* \"#utility.yul\":11886:11890   */\n      0x00\n        /* \"#utility.yul\":11924:11926   */\n      0x20\n        /* \"#utility.yul\":11913:11922   */\n      dup3\n        /* \"#utility.yul\":11909:11927   */\n      add\n        /* \"#utility.yul\":11901:11927   */\n      swap1\n      pop\n        /* \"#utility.yul\":11973:11982   */\n      dup2\n        /* \"#utility.yul\":11967:11971   */\n      dup2\n        /* \"#utility.yul\":11963:11983   */\n      sub\n        /* \"#utility.yul\":11959:11960   */\n      0x00\n        /* \"#utility.yul\":11948:11957   */\n      dup4\n        /* \"#utility.yul\":11944:11961   */\n      add\n        /* \"#utility.yul\":11937:11984   */\n      mstore\n        /* \"#utility.yul\":12001:12132   */\n      tag_503\n        /* \"#utility.yul\":12127:12131   */\n      dup2\n        /* \"#utility.yul\":12001:12132   */\n      tag_346\n      jump\t// in\n    tag_503:\n        /* \"#utility.yul\":11993:12132   */\n      swap1\n      pop\n        /* \"#utility.yul\":11720:12139   */\n      swap2\n      swap1\n      pop\n      jump\t// out\n        /* \"#utility.yul\":12145:12307   */\n    tag_347:\n        /* \"#utility.yul\":12285:12299   */\n      0x77726f6e6720616d6f756e740000000000000000000000000000000000000000\n        /* \"#utility.yul\":12281:12282   */\n      0x00\n        /* \"#utility.yul\":12273:12279   */\n      dup3\n        /* \"#utility.yul\":12269:12283   */\n      add\n        /* \"#utility.yul\":12262:12300   */\n      mstore\n        /* \"#utility.yul\":12145:12307   */\n      pop\n      jump\t// out\n        /* \"#utility.yul\":12313:12679   */\n    tag_348:\n        /* \"#utility.yul\":12455:12458   */\n      0x00\n        /* \"#utility.yul\":12476:12543   */\n      tag_506\n        /* \"#utility.yul\":12540:12542   */\n      0x0c\n        /* \"#utility.yul\":12535:12538   */\n      dup4\n        /* \"#utility.yul\":12476:12543   */\n      tag_340\n      jump\t// in\n    tag_506:\n        /* \"#utility.yul\":12469:12543   */\n      swap2\n      pop\n        /* \"#utility.yul\":12552:12645   */\n      tag_507\n        /* \"#utility.yul\":12641:12644   */\n      dup3\n        /* \"#utility.yul\":12552:12645   */\n      tag_347\n      jump\t// in\n    tag_507:\n        /* \"#utility.yul\":12670:12672   */\n      0x20\n        /* \"#utility.yul\":12665:12668   */\n      dup3\n        /* \"#utility.yul\":12661:12673   */\n      add\n        /* \"#utility.yul\":12654:12673   */\n      swap1\n      pop\n        /* \"#utility.yul\":12313:12679   */\n      swap2\n      swap1\n      pop\n      jump\t// out\n        /* \"#utility.yul\":12685:13104   */\n    tag_133:\n        /* \"#utility.yul\":12851:12855   */\n      0x00\n        /* \"#utility.yul\":12889:12891   */\n      0x20\n        /* \"#utility.yul\":12878:12887   */\n      dup3\n        /* \"#utility.yul\":12874:12892   */\n      add\n        /* \"#utility.yul\":12866:12892   */\n      swap1\n      pop\n        /* \"#utility.yul\":12938:12947   */\n      dup2\n        /* \"#utility.yul\":12932:12936   */\n      dup2\n        /* \"#utility.yul\":12928:12948   */\n      sub\n        /* \"#utility.yul\":12924:12925   */\n      0x00\n        /* \"#utility.yul\":12913:12922   */\n      dup4\n        /* \"#utility.yul\":12909:12926   */\n      add\n        /* \"#utility.yul\":12902:12949   */\n      mstore\n        /* \"#utility.yul\":12966:13097   */\n      tag_509\n        /* \"#utility.yul\":13092:13096   */\n      dup2\n        /* \"#utility.yul\":12966:13097   */\n      tag_348\n      jump\t// in\n    tag_509:\n        /* \"#utility.yul\":12958:13097   */\n      swap1\n      pop\n        /* \"#utility.yul\":12685:13104   */\n      swap2\n      swap1\n      pop\n      jump\t// out\n        /* \"#utility.yul\":13110:13552   */\n    tag_135:\n        /* \"#utility.yul\":13259:13263   */\n      0x00\n        /* \"#utility.yul\":13297:13299   */\n      0x60\n        /* \"#utility.yul\":13286:13295   */\n      dup3\n        /* \"#utility.yul\":13282:13300   */\n      add\n        /* \"#utility.yul\":13274:13300   */\n      swap1\n      pop\n        /* \"#utility.yul\":13310:13381   */\n      tag_511\n        /* \"#utility.yul\":13378:13379   */\n      0x00\n        /* \"#utility.yul\":13367:13376   */\n      dup4\n        /* \"#utility.yul\":13363:13380   */\n      add\n        /* \"#utility.yul\":13354:13360   */\n      dup7\n        /* \"#utility.yul\":13310:13381   */\n      tag_330\n      jump\t// in\n    tag_511:\n        /* \"#utility.yul\":13391:13463   */\n      tag_512\n        /* \"#utility.yul\":13459:13461   */\n      0x20\n        /* \"#utility.yul\":13448:13457   */\n      dup4\n        /* \"#utility.yul\":13444:13462   */\n      add\n        /* \"#utility.yul\":13435:13441   */\n      dup6\n        /* \"#utility.yul\":13391:13463   */\n      tag_330\n      jump\t// in\n    tag_512:\n        /* \"#utility.yul\":13473:13545   */\n      tag_513\n        /* \"#utility.yul\":13541:13543   */\n      0x40\n        /* \"#utility.yul\":13530:13539   */\n      dup4\n        /* \"#utility.yul\":13526:13544   */\n      add\n        /* \"#utility.yul\":13517:13523   */\n      dup5\n        /* \"#utility.yul\":13473:13545   */\n      tag_337\n      jump\t// in\n    tag_513:\n        /* \"#utility.yul\":13110:13552   */\n      swap5\n      swap4\n      pop\n      pop\n      pop\n      pop\n      jump\t// out\n        /* \"#utility.yul\":13558:13674   */\n    tag_349:\n        /* \"#utility.yul\":13628:13649   */\n      tag_515\n        /* \"#utility.yul\":13643:13648   */\n      dup2\n        /* \"#utility.yul\":13628:13649   */\n      tag_338\n      jump\t// in\n    tag_515:\n        /* \"#utility.yul\":13621:13626   */\n      dup2\n        /* \"#utility.yul\":13618:13650   */\n      eq\n        /* \"#utility.yul\":13608:13668   */\n      tag_516\n      jumpi\n        /* \"#utility.yul\":13664:13665   */\n      0x00\n        /* \"#utility.yul\":13661:13662   */\n      0x00\n        /* \"#utility.yul\":13654:13666   */\n      revert\n        /* \"#utility.yul\":13608:13668   */\n    tag_516:\n        /* \"#utility.yul\":13558:13674   */\n      pop\n      jump\t// out\n        /* \"#utility.yul\":13680:13817   */\n    tag_350:\n        /* \"#utility.yul\":13734:13739   */\n      0x00\n        /* \"#utility.yul\":13765:13771   */\n      dup2\n        /* \"#utility.yul\":13759:13772   */\n      mload\n        /* \"#utility.yul\":13750:13772   */\n      swap1\n      pop\n        /* \"#utility.yul\":13781:13811   */\n      tag_518\n        /* \"#utility.yul\":13805:13810   */\n      dup2\n        /* \"#utility.yul\":13781:13811   */\n      tag_349\n      jump\t// in\n    tag_518:\n        /* \"#utility.yul\":13680:13817   */\n      swap3\n      swap2\n      pop\n      pop\n      jump\t// out\n        /* \"#utility.yul\":13823:14168   */\n    tag_139:\n        /* \"#utility.yul\":13890:13896   */\n      0x00\n        /* \"#utility.yul\":13939:13941   */\n      0x20\n        /* \"#utility.yul\":13927:13936   */\n      dup3\n        /* \"#utility.yul\":13918:13925   */\n      dup5\n        /* \"#utility.yul\":13914:13937   */\n      sub\n        /* \"#utility.yul\":13910:13942   */\n      slt\n        /* \"#utility.yul\":13907:14026   */\n      iszero\n      tag_520\n      jumpi\n        /* \"#utility.yul\":13945:14024   */\n      tag_521\n      tag_319\n      jump\t// in\n    tag_521:\n        /* \"#utility.yul\":13907:14026   */\n    tag_520:\n        /* \"#utility.yul\":14065:14066   */\n      0x00\n        /* \"#utility.yul\":14090:14151   */\n      tag_522\n        /* \"#utility.yul\":14143:14150   */\n      dup5\n        /* \"#utility.yul\":14134:14140   */\n      dup3\n        /* \"#utility.yul\":14123:14132   */\n      dup6\n        /* \"#utility.yul\":14119:14141   */\n      add\n        /* \"#utility.yul\":14090:14151   */\n      tag_350\n      jump\t// in\n    tag_522:\n        /* \"#utility.yul\":14080:14151   */\n      swap2\n      pop\n        /* \"#utility.yul\":14036:14161   */\n      pop\n        /* \"#utility.yul\":13823:14168   */\n      swap3\n      swap2\n      pop\n      pop\n      jump\t// out\n        /* \"#utility.yul\":14174:14343   */\n    tag_351:\n        /* \"#utility.yul\":14314:14335   */\n      0x7472616e7366657246726f6d206661696c656400000000000000000000000000\n        /* \"#utility.yul\":14310:14311   */\n      0x00\n        /* \"#utility.yul\":14302:14308   */\n      dup3\n        /* \"#utility.yul\":14298:14312   */\n      add\n        /* \"#utility.yul\":14291:14336   */\n      mstore\n        /* \"#utility.yul\":14174:14343   */\n      pop\n      jump\t// out\n        /* \"#utility.yul\":14349:14715   */\n    tag_352:\n        /* \"#utility.yul\":14491:14494   */\n      0x00\n        /* \"#utility.yul\":14512:14579   */\n      tag_525\n        /* \"#utility.yul\":14576:14578   */\n      0x13\n        /* \"#utility.yul\":14571:14574   */\n      dup4\n        /* \"#utility.yul\":14512:14579   */\n      tag_340\n      jump\t// in\n    tag_525:\n        /* \"#utility.yul\":14505:14579   */\n      swap2\n      pop\n        /* \"#utility.yul\":14588:14681   */\n      tag_526\n        /* \"#utility.yul\":14677:14680   */\n      dup3\n        /* \"#utility.yul\":14588:14681   */\n      tag_351\n      jump\t// in\n    tag_526:\n        /* \"#utility.yul\":14706:14708   */\n      0x20\n        /* \"#utility.yul\":14701:14704   */\n      dup3\n        /* \"#utility.yul\":14697:14709   */\n      add\n        /* \"#utility.yul\":14690:14709   */\n      swap1\n      pop\n        /* \"#utility.yul\":14349:14715   */\n      swap2\n      swap1\n      pop\n      jump\t// out\n        /* \"#utility.yul\":14721:15140   */\n    tag_142:\n        /* \"#utility.yul\":14887:14891   */\n      0x00\n        /* \"#utility.yul\":14925:14927   */\n      0x20\n        /* \"#utility.yul\":14914:14923   */\n      dup3\n        /* \"#utility.yul\":14910:14928   */\n      add\n        /* \"#utility.yul\":14902:14928   */\n      swap1\n      pop\n        /* \"#utility.yul\":14974:14983   */\n      dup2\n        /* \"#utility.yul\":14968:14972   */\n      dup2\n        /* \"#utility.yul\":14964:14984   */\n      sub\n        /* \"#utility.yul\":14960:14961   */\n      0x00\n        /* \"#utility.yul\":14949:14958   */\n      dup4\n        /* \"#utility.yul\":14945:14962   */\n      add\n        /* \"#utility.yul\":14938:14985   */\n      mstore\n        /* \"#utility.yul\":15002:15133   */\n      tag_528\n        /* \"#utility.yul\":15128:15132   */\n      dup2\n        /* \"#utility.yul\":15002:15133   */\n      tag_352\n      jump\t// in\n    tag_528:\n        /* \"#utility.yul\":14994:15133   */\n      swap1\n      pop\n        /* \"#utility.yul\":14721:15140   */\n      swap2\n      swap1\n      pop\n      jump\t// out\n        /* \"#utility.yul\":15146:15307   */\n    tag_353:\n        /* \"#utility.yul\":15286:15299   */\n      0x696e76616c696420627073000000000000000000000000000000000000000000\n        /* \"#utility.yul\":15282:15283   */\n      0x00\n        /* \"#utility.yul\":15274:15280   */\n      dup3\n        /* \"#utility.yul\":15270:15284   */\n      add\n        /* \"#utility.yul\":15263:15300   */\n      mstore\n        /* \"#utility.yul\":15146:15307   */\n      pop\n      jump\t// out\n        /* \"#utility.yul\":15313:15679   */\n    tag_354:\n        /* \"#utility.yul\":15455:15458   */\n      0x00\n        /* \"#utility.yul\":15476:15543   */\n      tag_531\n        /* \"#utility.yul\":15540:15542   */\n      0x0b\n        /* \"#utility.yul\":15535:15538   */\n      dup4\n        /* \"#utility.yul\":15476:15543   */\n      tag_340\n      jump\t// in\n    tag_531:\n        /* \"#utility.yul\":15469:15543   */\n      swap2\n      pop\n        /* \"#utility.yul\":15552:15645   */\n      tag_532\n        /* \"#utility.yul\":15641:15644   */\n      dup3\n        /* \"#utility.yul\":15552:15645   */\n      tag_353\n      jump\t// in\n    tag_532:\n        /* \"#utility.yul\":15670:15672   */\n      0x20\n        /* \"#utility.yul\":15665:15668   */\n      dup3\n        /* \"#utility.yul\":15661:15673   */\n      add\n        /* \"#utility.yul\":15654:15673   */\n      swap1\n      pop\n        /* \"#utility.yul\":15313:15679   */\n      swap2\n      swap1\n      pop\n      jump\t// out\n        /* \"#utility.yul\":15685:16104   */\n    tag_151:\n        /* \"#utility.yul\":15851:15855   */\n      0x00\n        /* \"#utility.yul\":15889:15891   */\n      0x20\n        /* \"#utility.yul\":15878:15887   */\n      dup3\n        /* \"#utility.yul\":15874:15892   */\n      add\n        /* \"#utility.yul\":15866:15892   */\n      swap1\n      pop\n        /* \"#utility.yul\":15938:15947   */\n      dup2\n        /* \"#utility.yul\":15932:15936   */\n      dup2\n        /* \"#utility.yul\":15928:15948   */\n      sub\n        /* \"#utility.yul\":15924:15925   */\n      0x00\n        /* \"#utility.yul\":15913:15922   */\n      dup4\n        /* \"#utility.yul\":15909:15926   */\n      add\n        /* \"#utility.yul\":15902:15949   */\n      mstore\n        /* \"#utility.yul\":15966:16097   */\n      tag_534\n        /* \"#utility.yul\":16092:16096   */\n      dup2\n        /* \"#utility.yul\":15966:16097   */\n      tag_354\n      jump\t// in\n    tag_534:\n        /* \"#utility.yul\":15958:16097   */\n      swap1\n      pop\n        /* \"#utility.yul\":15685:16104   */\n      swap2\n      swap1\n      pop\n      jump\t// out\n        /* \"#utility.yul\":16110:16442   */\n    tag_156:\n        /* \"#utility.yul\":16231:16235   */\n      0x00\n        /* \"#utility.yul\":16269:16271   */\n      0x40\n        /* \"#utility.yul\":16258:16267   */\n      dup3\n        /* \"#utility.yul\":16254:16272   */\n      add\n        /* \"#utility.yul\":16246:16272   */\n      swap1\n      pop\n        /* \"#utility.yul\":16282:16353   */\n      tag_536\n        /* \"#utility.yul\":16350:16351   */\n      0x00\n        /* \"#utility.yul\":16339:16348   */\n      dup4\n        /* \"#utility.yul\":16335:16352   */\n      add\n        /* \"#utility.yul\":16326:16332   */\n      dup6\n        /* \"#utility.yul\":16282:16353   */\n      tag_330\n      jump\t// in\n    tag_536:\n        /* \"#utility.yul\":16363:16435   */\n      tag_537\n        /* \"#utility.yul\":16431:16433   */\n      0x20\n        /* \"#utility.yul\":16420:16429   */\n      dup4\n        /* \"#utility.yul\":16416:16434   */\n      add\n        /* \"#utility.yul\":16407:16413   */\n      dup5\n        /* \"#utility.yul\":16363:16435   */\n      tag_337\n      jump\t// in\n    tag_537:\n        /* \"#utility.yul\":16110:16442   */\n      swap4\n      swap3\n      pop\n      pop\n      pop\n      jump\t// out\n        /* \"#utility.yul\":16448:16619   */\n    tag_355:\n        /* \"#utility.yul\":16588:16611   */\n      0x4552433230207472616e73666572206661696c65640000000000000000000000\n        /* \"#utility.yul\":16584:16585   */\n      0x00\n        /* \"#utility.yul\":16576:16582   */\n      dup3\n        /* \"#utility.yul\":16572:16586   */\n      add\n        /* \"#utility.yul\":16565:16612   */\n      mstore\n        /* \"#utility.yul\":16448:16619   */\n      pop\n      jump\t// out\n        /* \"#utility.yul\":16625:16991   */\n    tag_356:\n        /* \"#utility.yul\":16767:16770   */\n      0x00\n        /* \"#utility.yul\":16788:16855   */\n      tag_540\n        /* \"#utility.yul\":16852:16854   */\n      0x15\n        /* \"#utility.yul\":16847:16850   */\n      dup4\n        /* \"#utility.yul\":16788:16855   */\n      tag_340\n      jump\t// in\n    tag_540:\n        /* \"#utility.yul\":16781:16855   */\n      swap2\n      pop\n        /* \"#utility.yul\":16864:16957   */\n      tag_541\n        /* \"#utility.yul\":16953:16956   */\n      dup3\n        /* \"#utility.yul\":16864:16957   */\n      tag_355\n      jump\t// in\n    tag_541:\n        /* \"#utility.yul\":16982:16984   */\n      0x20\n        /* \"#utility.yul\":16977:16980   */\n      dup3\n        /* \"#utility.yul\":16973:16985   */\n      add\n        /* \"#utility.yul\":16966:16985   */\n      swap1\n      pop\n        /* \"#utility.yul\":16625:16991   */\n      swap2\n      swap1\n      pop\n      jump\t// out\n        /* \"#utility.yul\":16997:17416   */\n    tag_162:\n        /* \"#utility.yul\":17163:17167   */\n      0x00\n        /* \"#utility.yul\":17201:17203   */\n      0x20\n        /* \"#utility.yul\":17190:17199   */\n      dup3\n        /* \"#utility.yul\":17186:17204   */\n      add\n        /* \"#utility.yul\":17178:17204   */\n      swap1\n      pop\n        /* \"#utility.yul\":17250:17259   */\n      dup2\n        /* \"#utility.yul\":17244:17248   */\n      dup2\n        /* \"#utility.yul\":17240:17260   */\n      sub\n        /* \"#utility.yul\":17236:17237   */\n      0x00\n        /* \"#utility.yul\":17225:17234   */\n      dup4\n        /* \"#utility.yul\":17221:17238   */\n      add\n        /* \"#utility.yul\":17214:17261   */\n      mstore\n        /* \"#utility.yul\":17278:17409   */\n      tag_543\n        /* \"#utility.yul\":17404:17408   */\n      dup2\n        /* \"#utility.yul\":17278:17409   */\n      tag_356\n      jump\t// in\n    tag_543:\n        /* \"#utility.yul\":17270:17409   */\n      swap1\n      pop\n        /* \"#utility.yul\":16997:17416   */\n      swap2\n      swap1\n      pop\n      jump\t// out\n        /* \"#utility.yul\":17422:17581   */\n    tag_357:\n        /* \"#utility.yul\":17562:17573   */\n      0x7072696365203e20300000000000000000000000000000000000000000000000\n        /* \"#utility.yul\":17558:17559   */\n      0x00\n        /* \"#utility.yul\":17550:17556   */\n      dup3\n        /* \"#utility.yul\":17546:17560   */\n      add\n        /* \"#utility.yul\":17539:17574   */\n      mstore\n        /* \"#utility.yul\":17422:17581   */\n      pop\n      jump\t// out\n        /* \"#utility.yul\":17587:17952   */\n    tag_358:\n        /* \"#utility.yul\":17729:17732   */\n      0x00\n        /* \"#utility.yul\":17750:17816   */\n      tag_546\n        /* \"#utility.yul\":17814:17815   */\n      0x09\n        /* \"#utility.yul\":17809:17812   */\n      dup4\n        /* \"#utility.yul\":17750:17816   */\n      tag_340\n      jump\t// in\n    tag_546:\n        /* \"#utility.yul\":17743:17816   */\n      swap2\n      pop\n        /* \"#utility.yul\":17825:17918   */\n      tag_547\n        /* \"#utility.yul\":17914:17917   */\n      dup3\n        /* \"#utility.yul\":17825:17918   */\n      tag_357\n      jump\t// in\n    tag_547:\n        /* \"#utility.yul\":17943:17945   */\n      0x20\n        /* \"#utility.yul\":17938:17941   */\n      dup3\n        /* \"#utility.yul\":17934:17946   */\n      add\n        /* \"#utility.yul\":17927:17946   */\n      swap1\n      pop\n        /* \"#utility.yul\":17587:17952   */\n      swap2\n      swap1\n      pop\n      jump\t// out\n        /* \"#utility.yul\":17958:18377   */\n    tag_173:\n        /* \"#utility.yul\":18124:18128   */\n      0x00\n        /* \"#utility.yul\":18162:18164   */\n      0x20\n        /* \"#utility.yul\":18151:18160   */\n      dup3\n        /* \"#utility.yul\":18147:18165   */\n      add\n        /* \"#utility.yul\":18139:18165   */\n      swap1\n      pop\n        /* \"#utility.yul\":18211:18220   */\n      dup2\n        /* \"#utility.yul\":18205:18209   */\n      dup2\n        /* \"#utility.yul\":18201:18221   */\n      sub\n        /* \"#utility.yul\":18197:18198   */\n      0x00\n        /* \"#utility.yul\":18186:18195   */\n      dup4\n        /* \"#utility.yul\":18182:18199   */\n      add\n        /* \"#utility.yul\":18175:18222   */\n      mstore\n        /* \"#utility.yul\":18239:18370   */\n      tag_549\n        /* \"#utility.yul\":18365:18369   */\n      dup2\n        /* \"#utility.yul\":18239:18370   */\n      tag_358\n      jump\t// in\n    tag_549:\n        /* \"#utility.yul\":18231:18370   */\n      swap1\n      pop\n        /* \"#utility.yul\":17958:18377   */\n      swap2\n      swap1\n      pop\n      jump\t// out\n        /* \"#utility.yul\":18383:18526   */\n    tag_359:\n        /* \"#utility.yul\":18440:18445   */\n      0x00\n        /* \"#utility.yul\":18471:18477   */\n      dup2\n        /* \"#utility.yul\":18465:18478   */\n      mload\n        /* \"#utility.yul\":18456:18478   */\n      swap1\n      pop\n        /* \"#utility.yul\":18487:18520   */\n      tag_551\n        /* \"#utility.yul\":18514:18519   */\n      dup2\n        /* \"#utility.yul\":18487:18520   */\n      tag_326\n      jump\t// in\n    tag_551:\n        /* \"#utility.yul\":18383:18526   */\n      swap3\n      swap2\n      pop\n      pop\n      jump\t// out\n        /* \"#utility.yul\":18532:18883   */\n    tag_178:\n        /* \"#utility.yul\":18602:18608   */\n      0x00\n        /* \"#utility.yul\":18651:18653   */\n      0x20\n        /* \"#utility.yul\":18639:18648   */\n      dup3\n        /* \"#utility.yul\":18630:18637   */\n      dup5\n        /* \"#utility.yul\":18626:18649   */\n      sub\n        /* \"#utility.yul\":18622:18654   */\n      slt\n        /* \"#utility.yul\":18619:18738   */\n      iszero\n      tag_553\n      jumpi\n        /* \"#utility.yul\":18657:18736   */\n      tag_554\n      tag_319\n      jump\t// in\n    tag_554:\n        /* \"#utility.yul\":18619:18738   */\n    tag_553:\n        /* \"#utility.yul\":18777:18778   */\n      0x00\n        /* \"#utility.yul\":18802:18866   */\n      tag_555\n        /* \"#utility.yul\":18858:18865   */\n      dup5\n        /* \"#utility.yul\":18849:18855   */\n      dup3\n        /* \"#utility.yul\":18838:18847   */\n      dup6\n        /* \"#utility.yul\":18834:18856   */\n      add\n        /* \"#utility.yul\":18802:18866   */\n      tag_359\n      jump\t// in\n    tag_555:\n        /* \"#utility.yul\":18792:18866   */\n      swap2\n      pop\n        /* \"#utility.yul\":18748:18876   */\n      pop\n        /* \"#utility.yul\":18532:18883   */\n      swap3\n      swap2\n      pop\n      pop\n      jump\t// out\n        /* \"#utility.yul\":18889:19048   */\n    tag_360:\n        /* \"#utility.yul\":19029:19040   */\n      0x6e6f74206f776e65720000000000000000000000000000000000000000000000\n        /* \"#utility.yul\":19025:19026   */\n      0x00\n        /* \"#utility.yul\":19017:19023   */\n      dup3\n        /* \"#utility.yul\":19013:19027   */\n      add\n        /* \"#utility.yul\":19006:19041   */\n      mstore\n        /* \"#utility.yul\":18889:19048   */\n      pop\n      jump\t// out\n        /* \"#utility.yul\":19054:19419   */\n    tag_361:\n        /* \"#utility.yul\":19196:19199   */\n      0x00\n        /* \"#utility.yul\":19217:19283   */\n      tag_558\n        /* \"#utility.yul\":19281:19282   */\n      0x09\n        /* \"#utility.yul\":19276:19279   */\n      dup4\n        /* \"#utility.yul\":19217:19283   */\n      tag_340\n      jump\t// in\n    tag_558:\n        /* \"#utility.yul\":19210:19283   */\n      swap2\n      pop\n        /* \"#utility.yul\":19292:19385   */\n      tag_559\n        /* \"#utility.yul\":19381:19384   */\n      dup3\n        /* \"#utility.yul\":19292:19385   */\n      tag_360\n      jump\t// in\n    tag_559:\n        /* \"#utility.yul\":19410:19412   */\n      0x20\n        /* \"#utility.yul\":19405:19408   */\n      dup3\n        /* \"#utility.yul\":19401:19413   */\n      add\n        /* \"#utility.yul\":19394:19413   */\n      swap1\n      pop\n        /* \"#utility.yul\":19054:19419   */\n      swap2\n      swap1\n      pop\n      jump\t// out\n        /* \"#utility.yul\":19425:19844   */\n    tag_181:\n        /* \"#utility.yul\":19591:19595   */\n      0x00\n        /* \"#utility.yul\":19629:19631   */\n      0x20\n        /* \"#utility.yul\":19618:19627   */\n      dup3\n        /* \"#utility.yul\":19614:19632   */\n      add\n        /* \"#utility.yul\":19606:19632   */\n      swap1\n      pop\n        /* \"#utility.yul\":19678:19687   */\n      dup2\n        /* \"#utility.yul\":19672:19676   */\n      dup2\n        /* \"#utility.yul\":19668:19688   */\n      sub\n        /* \"#utility.yul\":19664:19665   */\n      0x00\n        /* \"#utility.yul\":19653:19662   */\n      dup4\n        /* \"#utility.yul\":19649:19666   */\n      add\n        /* \"#utility.yul\":19642:19689   */\n      mstore\n        /* \"#utility.yul\":19706:19837   */\n      tag_561\n        /* \"#utility.yul\":19832:19836   */\n      dup2\n        /* \"#utility.yul\":19706:19837   */\n      tag_361\n      jump\t// in\n    tag_561:\n        /* \"#utility.yul\":19698:19837   */\n      swap1\n      pop\n        /* \"#utility.yul\":19425:19844   */\n      swap2\n      swap1\n      pop\n      jump\t// out\n        /* \"#utility.yul\":19850:20182   */\n    tag_188:\n        /* \"#utility.yul\":19971:19975   */\n      0x00\n        /* \"#utility.yul\":20009:20011   */\n      0x40\n        /* \"#utility.yul\":19998:20007   */\n      dup3\n        /* \"#utility.yul\":19994:20012   */\n      add\n        /* \"#utility.yul\":19986:20012   */\n      swap1\n      pop\n        /* \"#utility.yul\":20022:20093   */\n      tag_563\n        /* \"#utility.yul\":20090:20091   */\n      0x00\n        /* \"#utility.yul\":20079:20088   */\n      dup4\n        /* \"#utility.yul\":20075:20092   */\n      add\n        /* \"#utility.yul\":20066:20072   */\n      dup6\n        /* \"#utility.yul\":20022:20093   */\n      tag_330\n      jump\t// in\n    tag_563:\n        /* \"#utility.yul\":20103:20175   */\n      tag_564\n        /* \"#utility.yul\":20171:20173   */\n      0x20\n        /* \"#utility.yul\":20160:20169   */\n      dup4\n        /* \"#utility.yul\":20156:20174   */\n      add\n        /* \"#utility.yul\":20147:20153   */\n      dup5\n        /* \"#utility.yul\":20103:20175   */\n      tag_330\n      jump\t// in\n    tag_564:\n        /* \"#utility.yul\":19850:20182   */\n      swap4\n      swap3\n      pop\n      pop\n      pop\n      jump\t// out\n        /* \"#utility.yul\":20188:20362   */\n    tag_362:\n        /* \"#utility.yul\":20328:20354   */\n      0x6d61726b6574706c616365206e6f7420617070726f7665640000000000000000\n        /* \"#utility.yul\":20324:20325   */\n      0x00\n        /* \"#utility.yul\":20316:20322   */\n      dup3\n        /* \"#utility.yul\":20312:20326   */\n      add\n        /* \"#utility.yul\":20305:20355   */\n      mstore\n        /* \"#utility.yul\":20188:20362   */\n      pop\n      jump\t// out\n        /* \"#utility.yul\":20368:20734   */\n    tag_363:\n        /* \"#utility.yul\":20510:20513   */\n      0x00\n        /* \"#utility.yul\":20531:20598   */\n      tag_567\n        /* \"#utility.yul\":20595:20597   */\n      0x18\n        /* \"#utility.yul\":20590:20593   */\n      dup4\n        /* \"#utility.yul\":20531:20598   */\n      tag_340\n      jump\t// in\n    tag_567:\n        /* \"#utility.yul\":20524:20598   */\n      swap2\n      pop\n        /* \"#utility.yul\":20607:20700   */\n      tag_568\n        /* \"#utility.yul\":20696:20699   */\n      dup3\n        /* \"#utility.yul\":20607:20700   */\n      tag_362\n      jump\t// in\n    tag_568:\n        /* \"#utility.yul\":20725:20727   */\n      0x20\n        /* \"#utility.yul\":20720:20723   */\n      dup3\n        /* \"#utility.yul\":20716:20728   */\n      add\n        /* \"#utility.yul\":20709:20728   */\n      swap1\n      pop\n        /* \"#utility.yul\":20368:20734   */\n      swap2\n      swap1\n      pop\n      jump\t// out\n        /* \"#utility.yul\":20740:21159   */\n    tag_194:\n        /* \"#utility.yul\":20906:20910   */\n      0x00\n        /* \"#utility.yul\":20944:20946   */\n      0x20\n        /* \"#utility.yul\":20933:20942   */\n      dup3\n        /* \"#utility.yul\":20929:20947   */\n      add\n        /* \"#utility.yul\":20921:20947   */\n      swap1\n      pop\n        /* \"#utility.yul\":20993:21002   */\n      dup2\n        /* \"#utility.yul\":20987:20991   */\n      dup2\n        /* \"#utility.yul\":20983:21003   */\n      sub\n        /* \"#utility.yul\":20979:20980   */\n      0x00\n        /* \"#utility.yul\":20968:20977   */\n      dup4\n        /* \"#utility.yul\":20964:20981   */\n      add\n        /* \"#utility.yul\":20957:21004   */\n      mstore\n        /* \"#utility.yul\":21021:21152   */\n      tag_570\n        /* \"#utility.yul\":21147:21151   */\n      dup2\n        /* \"#utility.yul\":21021:21152   */\n      tag_363\n      jump\t// in\n    tag_570:\n        /* \"#utility.yul\":21013:21152   */\n      swap1\n      pop\n        /* \"#utility.yul\":20740:21159   */\n      swap2\n      swap1\n      pop\n      jump\t// out\n        /* \"#utility.yul\":21165:21329   */\n    tag_364:\n        /* \"#utility.yul\":21305:21321   */\n      0x616c7265616479206c6973746564000000000000000000000000000000000000\n        /* \"#utility.yul\":21301:21302   */\n      0x00\n        /* \"#utility.yul\":21293:21299   */\n      dup3\n        /* \"#utility.yul\":21289:21303   */\n      add\n        /* \"#utility.yul\":21282:21322   */\n      mstore\n        /* \"#utility.yul\":21165:21329   */\n      pop\n      jump\t// out\n        /* \"#utility.yul\":21335:21701   */\n    tag_365:\n        /* \"#utility.yul\":21477:21480   */\n      0x00\n        /* \"#utility.yul\":21498:21565   */\n      tag_573\n        /* \"#utility.yul\":21562:21564   */\n      0x0e\n        /* \"#utility.yul\":21557:21560   */\n      dup4\n        /* \"#utility.yul\":21498:21565   */\n      tag_340\n      jump\t// in\n    tag_573:\n        /* \"#utility.yul\":21491:21565   */\n      swap2\n      pop\n        /* \"#utility.yul\":21574:21667   */\n      tag_574\n        /* \"#utility.yul\":21663:21666   */\n      dup3\n        /* \"#utility.yul\":21574:21667   */\n      tag_364\n      jump\t// in\n    tag_574:\n        /* \"#utility.yul\":21692:21694   */\n      0x20\n        /* \"#utility.yul\":21687:21690   */\n      dup3\n        /* \"#utility.yul\":21683:21695   */\n      add\n        /* \"#utility.yul\":21676:21695   */\n      swap1\n      pop\n        /* \"#utility.yul\":21335:21701   */\n      swap2\n      swap1\n      pop\n      jump\t// out\n        /* \"#utility.yul\":21707:22126   */\n    tag_197:\n        /* \"#utility.yul\":21873:21877   */\n      0x00\n        /* \"#utility.yul\":21911:21913   */\n      0x20\n        /* \"#utility.yul\":21900:21909   */\n      dup3\n        /* \"#utility.yul\":21896:21914   */\n      add\n        /* \"#utility.yul\":21888:21914   */\n      swap1\n      pop\n        /* \"#utility.yul\":21960:21969   */\n      dup2\n        /* \"#utility.yul\":21954:21958   */\n      dup2\n        /* \"#utility.yul\":21950:21970   */\n      sub\n        /* \"#utility.yul\":21946:21947   */\n      0x00\n        /* \"#utility.yul\":21935:21944   */\n      dup4\n        /* \"#utility.yul\":21931:21948   */\n      add\n        /* \"#utility.yul\":21924:21971   */\n      mstore\n        /* \"#utility.yul\":21988:22119   */\n      tag_576\n        /* \"#utility.yul\":22114:22118   */\n      dup2\n        /* \"#utility.yul\":21988:22119   */\n      tag_365\n      jump\t// in\n    tag_576:\n        /* \"#utility.yul\":21980:22119   */\n      swap1\n      pop\n        /* \"#utility.yul\":21707:22126   */\n      swap2\n      swap1\n      pop\n      jump\t// out\n        /* \"#utility.yul\":22132:22312   */\n    tag_366:\n        /* \"#utility.yul\":22180:22257   */\n      0x4e487b7100000000000000000000000000000000000000000000000000000000\n        /* \"#utility.yul\":22177:22178   */\n      0x00\n        /* \"#utility.yul\":22170:22258   */\n      mstore\n        /* \"#utility.yul\":22277:22281   */\n      0x11\n        /* \"#utility.yul\":22274:22275   */\n      0x04\n        /* \"#utility.yul\":22267:22282   */\n      mstore\n        /* \"#utility.yul\":22301:22305   */\n      0x24\n        /* \"#utility.yul\":22298:22299   */\n      0x00\n        /* \"#utility.yul\":22291:22306   */\n      revert\n        /* \"#utility.yul\":22318:22551   */\n    tag_199:\n        /* \"#utility.yul\":22357:22360   */\n      0x00\n        /* \"#utility.yul\":22380:22404   */\n      tag_579\n        /* \"#utility.yul\":22398:22403   */\n      dup3\n        /* \"#utility.yul\":22380:22404   */\n      tag_321\n      jump\t// in\n    tag_579:\n        /* \"#utility.yul\":22371:22404   */\n      swap2\n      pop\n        /* \"#utility.yul\":22426:22492   */\n      0xffffffffffffffffffffffffffffffffffffffffffffffffffffffffffffffff\n        /* \"#utility.yul\":22419:22424   */\n      dup3\n        /* \"#utility.yul\":22416:22493   */\n      sub\n        /* \"#utility.yul\":22413:22516   */\n      tag_580\n      jumpi\n        /* \"#utility.yul\":22496:22514   */\n      tag_581\n      tag_366\n      jump\t// in\n    tag_581:\n        /* \"#utility.yul\":22413:22516   */\n    tag_580:\n        /* \"#utility.yul\":22543:22544   */\n      0x01\n        /* \"#utility.yul\":22536:22541   */\n      dup3\n        /* \"#utility.yul\":22532:22545   */\n      add\n        /* \"#utility.yul\":22525:22545   */\n      swap1\n      pop\n        /* \"#utility.yul\":22318:22551   */\n      swap2\n      swap1\n      pop\n      jump\t// out\n        /* \"#utility.yul\":22557:22705   */\n    tag_367:\n        /* \"#utility.yul\":22655:22661   */\n      dup3\n        /* \"#utility.yul\":22650:22653   */\n      dup2\n        /* \"#utility.yul\":22645:22648   */\n      dup4\n        /* \"#utility.yul\":22632:22662   */\n      calldatacopy\n        /* \"#utility.yul\":22696:22697   */\n      0x00\n        /* \"#utility.yul\":22687:22693   */\n      dup4\n        /* \"#utility.yul\":22682:22685   */\n      dup4\n        /* \"#utility.yul\":22678:22694   */\n      add\n        /* \"#utility.yul\":22671:22698   */\n      mstore\n        /* \"#utility.yul\":22557:22705   */\n      pop\n      pop\n      pop\n      jump\t// out\n        /* \"#utility.yul\":22711:22813   */\n    tag_368:\n        /* \"#utility.yul\":22752:22758   */\n      0x00\n        /* \"#utility.yul\":22803:22805   */\n      0x1f\n        /* \"#utility.yul\":22799:22806   */\n      not\n        /* \"#utility.yul\":22794:22796   */\n      0x1f\n        /* \"#utility.yul\":22787:22792   */\n      dup4\n        /* \"#utility.yul\":22783:22797   */\n      add\n        /* \"#utility.yul\":22779:22807   */\n      and\n        /* \"#utility.yul\":22769:22807   */\n      swap1\n      pop\n        /* \"#utility.yul\":22711:22813   */\n      swap2\n      swap1\n      pop\n      jump\t// out\n        /* \"#utility.yul\":22843:23160   */\n    tag_369:\n        /* \"#utility.yul\":22941:22944   */\n      0x00\n        /* \"#utility.yul\":22962:23033   */\n      tag_585\n        /* \"#utility.yul\":23026:23032   */\n      dup4\n        /* \"#utility.yul\":23021:23024   */\n      dup6\n        /* \"#utility.yul\":22962:23033   */\n      tag_340\n      jump\t// in\n    tag_585:\n        /* \"#utility.yul\":22955:23033   */\n      swap4\n      pop\n        /* \"#utility.yul\":23043:23099   */\n      tag_586\n        /* \"#utility.yul\":23092:23098   */\n      dup4\n        /* \"#utility.yul\":23087:23090   */\n      dup6\n        /* \"#utility.yul\":23080:23085   */\n      dup5\n        /* \"#utility.yul\":23043:23099   */\n      tag_367\n      jump\t// in\n    tag_586:\n        /* \"#utility.yul\":23124:23153   */\n      tag_587\n        /* \"#utility.yul\":23146:23152   */\n      dup4\n        /* \"#utility.yul\":23124:23153   */\n      tag_368\n      jump\t// in\n    tag_587:\n        /* \"#utility.yul\":23119:23122   */\n      dup5\n        /* \"#utility.yul\":23115:23154   */\n      add\n        /* \"#utility.yul\":23108:23154   */\n      swap1\n      pop\n        /* \"#utility.yul\":22843:23160   */\n      swap4\n      swap3\n      pop\n      pop\n      pop\n      jump\t// out\n        /* \"#utility.yul\":23166:23830   */\n    tag_201:\n        /* \"#utility.yul\":23373:23377   */\n      0x00\n        /* \"#utility.yul\":23411:23414   */\n      0x80\n        /* \"#utility.yul\":23400:23409   */\n      dup3\n        /* \"#utility.yul\":23396:23415   */\n      add\n        /* \"#utility.yul\":23388:23415   */\n      swap1\n      pop\n        /* \"#utility.yul\":23425:23496   */\n      tag_589\n        /* \"#utility.yul\":23493:23494   */\n      0x00\n        /* \"#utility.yul\":23482:23491   */\n      dup4\n        /* \"#utility.yul\":23478:23495   */\n      add\n        /* \"#utility.yul\":23469:23475   */\n      dup9\n        /* \"#utility.yul\":23425:23496   */\n      tag_337\n      jump\t// in\n    tag_589:\n        /* \"#utility.yul\":23506:23578   */\n      tag_590\n        /* \"#utility.yul\":23574:23576   */\n      0x20\n        /* \"#utility.yul\":23563:23572   */\n      dup4\n        /* \"#utility.yul\":23559:23577   */\n      add\n        /* \"#utility.yul\":23550:23556   */\n      dup8\n        /* \"#utility.yul\":23506:23578   */\n      tag_337\n      jump\t// in\n    tag_590:\n        /* \"#utility.yul\":23588:23660   */\n      tag_591\n        /* \"#utility.yul\":23656:23658   */\n      0x40\n        /* \"#utility.yul\":23645:23654   */\n      dup4\n        /* \"#utility.yul\":23641:23659   */\n      add\n        /* \"#utility.yul\":23632:23638   */\n      dup7\n        /* \"#utility.yul\":23588:23660   */\n      tag_330\n      jump\t// in\n    tag_591:\n        /* \"#utility.yul\":23707:23716   */\n      dup2\n        /* \"#utility.yul\":23701:23705   */\n      dup2\n        /* \"#utility.yul\":23697:23717   */\n      sub\n        /* \"#utility.yul\":23692:23694   */\n      0x60\n        /* \"#utility.yul\":23681:23690   */\n      dup4\n        /* \"#utility.yul\":23677:23695   */\n      add\n        /* \"#utility.yul\":23670:23718   */\n      mstore\n        /* \"#utility.yul\":23735:23823   */\n      tag_592\n        /* \"#utility.yul\":23818:23822   */\n      dup2\n        /* \"#utility.yul\":23809:23815   */\n      dup5\n        /* \"#utility.yul\":23801:23807   */\n      dup7\n        /* \"#utility.yul\":23735:23823   */\n      tag_369\n      jump\t// in\n    tag_592:\n        /* \"#utility.yul\":23727:23823   */\n      swap1\n      pop\n        /* \"#utility.yul\":23166:23830   */\n      swap7\n      swap6\n      pop\n      pop\n      pop\n      pop\n      pop\n      pop\n      jump\t// out\n        /* \"#utility.yul\":23836:24001   */\n    tag_370:\n        /* \"#utility.yul\":23976:23993   */\n      0x6e6f7420455448207061796d656e740000000000000000000000000000000000\n        /* \"#utility.yul\":23972:23973   */\n      0x00\n        /* \"#utility.yul\":23964:23970   */\n      dup3\n        /* \"#utility.yul\":23960:23974   */\n      add\n        /* \"#utility.yul\":23953:23994   */\n      mstore\n        /* \"#utility.yul\":23836:24001   */\n      pop\n      jump\t// out\n        /* \"#utility.yul\":24007:24373   */\n    tag_371:\n        /* \"#utility.yul\":24149:24152   */\n      0x00\n        /* \"#utility.yul\":24170:24237   */\n      tag_595\n        /* \"#utility.yul\":24234:24236   */\n      0x0f\n        /* \"#utility.yul\":24229:24232   */\n      dup4\n        /* \"#utility.yul\":24170:24237   */\n      tag_340\n      jump\t// in\n    tag_595:\n        /* \"#utility.yul\":24163:24237   */\n      swap2\n      pop\n        /* \"#utility.yul\":24246:24339   */\n      tag_596\n        /* \"#utility.yul\":24335:24338   */\n      dup3\n        /* \"#utility.yul\":24246:24339   */\n      tag_370\n      jump\t// in\n    tag_596:\n        /* \"#utility.yul\":24364:24366   */\n      0x20\n        /* \"#utility.yul\":24359:24362   */\n      dup3\n        /* \"#utility.yul\":24355:24367   */\n      add\n        /* \"#utility.yul\":24348:24367   */\n      swap1\n      pop\n        /* \"#utility.yul\":24007:24373   */\n      swap2\n      swap1\n      pop\n      jump\t// out\n        /* \"#utility.yul\":24379:24798   */\n    tag_217:\n        /* \"#utility.yul\":24545:24549   */\n      0x00\n        /* \"#utility.yul\":24583:24585   */\n      0x20\n        /* \"#utility.yul\":24572:24581   */\n      dup3\n        /* \"#utility.yul\":24568:24586   */\n      add\n        /* \"#utility.yul\":24560:24586   */\n      swap1\n      pop\n        /* \"#utility.yul\":24632:24641   */\n      dup2\n        /* \"#utility.yul\":24626:24630   */\n      dup2\n        /* \"#utility.yul\":24622:24642   */\n      sub\n        /* \"#utility.yul\":24618:24619   */\n      0x00\n        /* \"#utility.yul\":24607:24616   */\n      dup4\n        /* \"#utility.yul\":24603:24620   */\n      add\n        /* \"#utility.yul\":24596:24643   */\n      mstore\n        /* \"#utility.yul\":24660:24791   */\n      tag_598\n        /* \"#utility.yul\":24786:24790   */\n      dup2\n        /* \"#utility.yul\":24660:24791   */\n      tag_371\n      jump\t// in\n    tag_598:\n        /* \"#utility.yul\":24652:24791   */\n      swap1\n      pop\n        /* \"#utility.yul\":24379:24798   */\n      swap2\n      swap1\n      pop\n      jump\t// out\n        /* \"#utility.yul\":24804:25136   */\n    tag_241:\n        /* \"#utility.yul\":24925:24929   */\n      0x00\n        /* \"#utility.yul\":24963:24965   */\n      0x40\n        /* \"#utility.yul\":24952:24961   */\n      dup3\n        /* \"#utility.yul\":24948:24966   */\n      add\n        /* \"#utility.yul\":24940:24966   */\n      swap1\n      pop\n        /* \"#utility.yul\":24976:25047   */\n      tag_600\n        /* \"#utility.yul\":25044:25045   */\n      0x00\n        /* \"#utility.yul\":25033:25042   */\n      dup4\n        /* \"#utility.yul\":25029:25046   */\n      add\n        /* \"#utility.yul\":25020:25026   */\n      dup6\n        /* \"#utility.yul\":24976:25047   */\n      tag_337\n      jump\t// in\n    tag_600:\n        /* \"#utility.yul\":25057:25129   */\n      tag_601\n        /* \"#utility.yul\":25125:25127   */\n      0x20\n        /* \"#utility.yul\":25114:25123   */\n      dup4\n        /* \"#utility.yul\":25110:25128   */\n      add\n        /* \"#utility.yul\":25101:25107   */\n      dup5\n        /* \"#utility.yul\":25057:25129   */\n      tag_337\n      jump\t// in\n    tag_601:\n        /* \"#utility.yul\":24804:25136   */\n      swap4\n      swap3\n      pop\n      pop\n      pop\n      jump\t// out\n        /* \"#utility.yul\":25142:25289   */\n    tag_372:\n        /* \"#utility.yul\":25243:25254   */\n      0x00\n        /* \"#utility.yul\":25280:25283   */\n      dup2\n        /* \"#utility.yul\":25265:25283   */\n      swap1\n      pop\n        /* \"#utility.yul\":25142:25289   */\n      swap3\n      swap2\n      pop\n      pop\n      jump\t// out\n        /* \"#utility.yul\":25295:25409   */\n    tag_373:\n      pop\n      jump\t// out\n        /* \"#utility.yul\":25415:25813   */\n    tag_374:\n        /* \"#utility.yul\":25574:25577   */\n      0x00\n        /* \"#utility.yul\":25595:25678   */\n      tag_605\n        /* \"#utility.yul\":25676:25677   */\n      0x00\n        /* \"#utility.yul\":25671:25674   */\n      dup4\n        /* \"#utility.yul\":25595:25678   */\n      tag_372\n      jump\t// in\n    tag_605:\n        /* \"#utility.yul\":25588:25678   */\n      swap2\n      pop\n        /* \"#utility.yul\":25687:25780   */\n      tag_606\n        /* \"#utility.yul\":25776:25779   */\n      dup3\n        /* \"#utility.yul\":25687:25780   */\n      tag_373\n      jump\t// in\n    tag_606:\n        /* \"#utility.yul\":25805:25806   */\n      0x00\n        /* \"#utility.yul\":25800:25803   */\n      dup3\n        /* \"#utility.yul\":25796:25807   */\n      add\n        /* \"#utility.yul\":25789:25807   */\n      swap1\n      pop\n        /* \"#utility.yul\":25415:25813   */\n      swap2\n      swap1\n      pop\n      jump\t// out\n        /* \"#utility.yul\":25819:26198   */\n    tag_243:\n        /* \"#utility.yul\":26003:26006   */\n      0x00\n        /* \"#utility.yul\":26025:26172   */\n      tag_608\n        /* \"#utility.yul\":26168:26171   */\n      dup3\n        /* \"#utility.yul\":26025:26172   */\n      tag_374\n      jump\t// in\n    tag_608:\n        /* \"#utility.yul\":26018:26172   */\n      swap2\n      pop\n        /* \"#utility.yul\":26189:26192   */\n      dup2\n        /* \"#utility.yul\":26182:26192   */\n      swap1\n      pop\n        /* \"#utility.yul\":25819:26198   */\n      swap2\n      swap1\n      pop\n      jump\t// out\n        /* \"#utility.yul\":26204:26614   */\n    tag_254:\n        /* \"#utility.yul\":26244:26251   */\n      0x00\n        /* \"#utility.yul\":26267:26287   */\n      tag_610\n        /* \"#utility.yul\":26285:26286   */\n      dup3\n        /* \"#utility.yul\":26267:26287   */\n      tag_321\n      jump\t// in\n    tag_610:\n        /* \"#utility.yul\":26262:26287   */\n      swap2\n      pop\n        /* \"#utility.yul\":26301:26321   */\n      tag_611\n        /* \"#utility.yul\":26319:26320   */\n      dup4\n        /* \"#utility.yul\":26301:26321   */\n      tag_321\n      jump\t// in\n    tag_611:\n        /* \"#utility.yul\":26296:26321   */\n      swap3\n      pop\n        /* \"#utility.yul\":26356:26357   */\n      dup3\n        /* \"#utility.yul\":26353:26354   */\n      dup3\n        /* \"#utility.yul\":26349:26358   */\n      mul\n        /* \"#utility.yul\":26378:26408   */\n      tag_612\n        /* \"#utility.yul\":26396:26407   */\n      dup2\n        /* \"#utility.yul\":26378:26408   */\n      tag_321\n      jump\t// in\n    tag_612:\n        /* \"#utility.yul\":26367:26408   */\n      swap2\n      pop\n        /* \"#utility.yul\":26557:26558   */\n      dup3\n        /* \"#utility.yul\":26548:26555   */\n      dup3\n        /* \"#utility.yul\":26544:26559   */\n      div\n        /* \"#utility.yul\":26541:26542   */\n      dup5\n        /* \"#utility.yul\":26538:26560   */\n      eq\n        /* \"#utility.yul\":26518:26519   */\n      dup4\n        /* \"#utility.yul\":26511:26520   */\n      iszero\n        /* \"#utility.yul\":26491:26574   */\n      or\n        /* \"#utility.yul\":26468:26607   */\n      tag_613\n      jumpi\n        /* \"#utility.yul\":26587:26605   */\n      tag_614\n      tag_366\n      jump\t// in\n    tag_614:\n        /* \"#utility.yul\":26468:26607   */\n    tag_613:\n        /* \"#utility.yul\":26252:26614   */\n      pop\n        /* \"#utility.yul\":26204:26614   */\n      swap3\n      swap2\n      pop\n      pop\n      jump\t// out\n        /* \"#utility.yul\":26620:26800   */\n    tag_375:\n        /* \"#utility.yul\":26668:26745   */\n      0x4e487b7100000000000000000000000000000000000000000000000000000000\n        /* \"#utility.yul\":26665:26666   */\n      0x00\n        /* \"#utility.yul\":26658:26746   */\n      mstore\n        /* \"#utility.yul\":26765:26769   */\n      0x12\n        /* \"#utility.yul\":26762:26763   */\n      0x04\n        /* \"#utility.yul\":26755:26770   */\n      mstore\n        /* \"#utility.yul\":26789:26793   */\n      0x24\n        /* \"#utility.yul\":26786:26787   */\n      0x00\n        /* \"#utility.yul\":26779:26794   */\n      revert\n        /* \"#utility.yul\":26806:26991   */\n    tag_256:\n        /* \"#utility.yul\":26846:26847   */\n      0x00\n        /* \"#utility.yul\":26863:26883   */\n      tag_617\n        /* \"#utility.yul\":26881:26882   */\n      dup3\n        /* \"#utility.yul\":26863:26883   */\n      tag_321\n      jump\t// in\n    tag_617:\n        /* \"#utility.yul\":26858:26883   */\n      swap2\n      pop\n        /* \"#utility.yul\":26897:26917   */\n      tag_618\n        /* \"#utility.yul\":26915:26916   */\n      dup4\n        /* \"#utility.yul\":26897:26917   */\n      tag_321\n      jump\t// in\n    tag_618:\n        /* \"#utility.yul\":26892:26917   */\n      swap3\n      pop\n        /* \"#utility.yul\":26936:26937   */\n      dup3\n        /* \"#utility.yul\":26926:26961   */\n      tag_619\n      jumpi\n        /* \"#utility.yul\":26941:26959   */\n      tag_620\n      tag_375\n      jump\t// in\n    tag_620:\n        /* \"#utility.yul\":26926:26961   */\n    tag_619:\n        /* \"#utility.yul\":26983:26984   */\n      dup3\n        /* \"#utility.yul\":26980:26981   */\n      dup3\n        /* \"#utility.yul\":26976:26985   */\n      div\n        /* \"#utility.yul\":26971:26985   */\n      swap1\n      pop\n        /* \"#utility.yul\":26806:26991   */\n      swap3\n      swap2\n      pop\n      pop\n      jump\t// out\n        /* \"#utility.yul\":26997:27191   */\n    tag_258:\n        /* \"#utility.yul\":27037:27041   */\n      0x00\n        /* \"#utility.yul\":27057:27077   */\n      tag_622\n        /* \"#utility.yul\":27075:27076   */\n      dup3\n        /* \"#utility.yul\":27057:27077   */\n      tag_321\n      jump\t// in\n    tag_622:\n        /* \"#utility.yul\":27052:27077   */\n      swap2\n      pop\n        /* \"#utility.yul\":27091:27111   */\n      tag_623\n        /* \"#utility.yul\":27109:27110   */\n      dup4\n        /* \"#utility.yul\":27091:27111   */\n      tag_321\n      jump\t// in\n    tag_623:\n        /* \"#utility.yul\":27086:27111   */\n      swap3\n      pop\n        /* \"#utility.yul\":27135:27136   */\n      dup3\n        /* \"#utility.yul\":27132:27133   */\n      dup3\n        /* \"#utility.yul\":27128:27137   */\n      sub\n        /* \"#utility.yul\":27120:27137   */\n      swap1\n      pop\n        /* \"#utility.yul\":27159:27160   */\n      dup2\n        /* \"#utility.yul\":27153:27157   */\n      dup2\n        /* \"#utility.yul\":27150:27161   */\n      gt\n        /* \"#utility.yul\":27147:27184   */\n      iszero\n      tag_624\n      jumpi\n        /* \"#utility.yul\":27164:27182   */\n      tag_625\n      tag_366\n      jump\t// in\n    tag_625:\n        /* \"#utility.yul\":27147:27184   */\n    tag_624:\n        /* \"#utility.yul\":26997:27191   */\n      swap3\n      swap2\n      pop\n      pop\n      jump\t// out\n        /* \"#utility.yul\":27197:27370   */\n    tag_376:\n        /* \"#utility.yul\":27337:27362   */\n      0x726f79616c7479207472616e73666572206661696c6564000000000000000000\n        /* \"#utility.yul\":27333:27334   */\n      0x00\n        /* \"#utility.yul\":27325:27331   */\n      dup3\n        /* \"#utility.yul\":27321:27335   */\n      add\n        /* \"#utility.yul\":27314:27363   */\n      mstore\n        /* \"#utility.yul\":27197:27370   */\n      pop\n      jump\t// out\n        /* \"#utility.yul\":27376:27742   */\n    tag_377:\n        /* \"#utility.yul\":27518:27521   */\n      0x00\n        /* \"#utility.yul\":27539:27606   */\n      tag_628\n        /* \"#utility.yul\":27603:27605   */\n      0x17\n        /* \"#utility.yul\":27598:27601   */\n      dup4\n        /* \"#utility.yul\":27539:27606   */\n      tag_340\n      jump\t// in\n    tag_628:\n        /* \"#utility.yul\":27532:27606   */\n      swap2\n      pop\n        /* \"#utility.yul\":27615:27708   */\n      tag_629\n        /* \"#utility.yul\":27704:27707   */\n      dup3\n        /* \"#utility.yul\":27615:27708   */\n      tag_376\n      jump\t// in\n    tag_629:\n        /* \"#utility.yul\":27733:27735   */\n      0x20\n        /* \"#utility.yul\":27728:27731   */\n      dup3\n        /* \"#utility.yul\":27724:27736   */\n      add\n        /* \"#utility.yul\":27717:27736   */\n      swap1\n      pop\n        /* \"#utility.yul\":27376:27742   */\n      swap2\n      swap1\n      pop\n      jump\t// out\n        /* \"#utility.yul\":27748:28167   */\n    tag_284:\n        /* \"#utility.yul\":27914:27918   */\n      0x00\n        /* \"#utility.yul\":27952:27954   */\n      0x20\n        /* \"#utility.yul\":27941:27950   */\n      dup3\n        /* \"#utility.yul\":27937:27955   */\n      add\n        /* \"#utility.yul\":27929:27955   */\n      swap1\n      pop\n        /* \"#utility.yul\":28001:28010   */\n      dup2\n        /* \"#utility.yul\":27995:27999   */\n      dup2\n        /* \"#utility.yul\":27991:28011   */\n      sub\n        /* \"#utility.yul\":27987:27988   */\n      0x00\n        /* \"#utility.yul\":27976:27985   */\n      dup4\n        /* \"#utility.yul\":27972:27989   */\n      add\n        /* \"#utility.yul\":27965:28012   */\n      mstore\n        /* \"#utility.yul\":28029:28160   */\n      tag_631\n        /* \"#utility.yul\":28155:28159   */\n      dup2\n        /* \"#utility.yul\":28029:28160   */\n      tag_377\n      jump\t// in\n    tag_631:\n        /* \"#utility.yul\":28021:28160   */\n      swap1\n      pop\n        /* \"#utility.yul\":27748:28167   */\n      swap2\n      swap1\n      pop\n      jump\t// out\n        /* \"#utility.yul\":28173:28345   */\n    tag_378:\n        /* \"#utility.yul\":28313:28337   */\n      0x73656c6c6572207472616e73666572206661696c656400000000000000000000\n        /* \"#utility.yul\":28309:28310   */\n      0x00\n        /* \"#utility.yul\":28301:28307   */\n      dup3\n        /* \"#utility.yul\":28297:28311   */\n      add\n        /* \"#utility.yul\":28290:28338   */\n      mstore\n        /* \"#utility.yul\":28173:28345   */\n      pop\n      jump\t// out\n        /* \"#utility.yul\":28351:28717   */\n    tag_379:\n        /* \"#utility.yul\":28493:28496   */\n      0x00\n        /* \"#utility.yul\":28514:28581   */\n      tag_634\n        /* \"#utility.yul\":28578:28580   */\n      0x16\n        /* \"#utility.yul\":28573:28576   */\n      dup4\n        /* \"#utility.yul\":28514:28581   */\n      tag_340\n      jump\t// in\n    tag_634:\n        /* \"#utility.yul\":28507:28581   */\n      swap2\n      pop\n        /* \"#utility.yul\":28590:28683   */\n      tag_635\n        /* \"#utility.yul\":28679:28682   */\n      dup3\n        /* \"#utility.yul\":28590:28683   */\n      tag_378\n      jump\t// in\n    tag_635:\n        /* \"#utility.yul\":28708:28710   */\n      0x20\n        /* \"#utility.yul\":28703:28706   */\n      dup3\n        /* \"#utility.yul\":28699:28711   */\n      add\n        /* \"#utility.yul\":28692:28711   */\n      swap1\n      pop\n        /* \"#utility.yul\":28351:28717   */\n      swap2\n      swap1\n      pop\n      jump\t// out\n        /* \"#utility.yul\":28723:29142   */\n    tag_291:\n        /* \"#utility.yul\":28889:28893   */\n      0x00\n        /* \"#utility.yul\":28927:28929   */\n      0x20\n        /* \"#utility.yul\":28916:28925   */\n      dup3\n        /* \"#utility.yul\":28912:28930   */\n      add\n        /* \"#utility.yul\":28904:28930   */\n      swap1\n      pop\n        /* \"#utility.yul\":28976:28985   */\n      dup2\n        /* \"#utility.yul\":28970:28974   */\n      dup2\n        /* \"#utility.yul\":28966:28986   */\n      sub\n        /* \"#utility.yul\":28962:28963   */\n      0x00\n        /* \"#utility.yul\":28951:28960   */\n      dup4\n        /* \"#utility.yul\":28947:28964   */\n      add\n        /* \"#utility.yul\":28940:28987   */\n      mstore\n        /* \"#utility.yul\":29004:29135   */\n      tag_637\n        /* \"#utility.yul\":29130:29134   */\n      dup2\n        /* \"#utility.yul\":29004:29135   */\n      tag_379\n      jump\t// in\n    tag_637:\n        /* \"#utility.yul\":28996:29135   */\n      swap1\n      pop\n        /* \"#utility.yul\":28723:29142   */\n      swap2\n      swap1\n      pop\n      jump\t// out\n        /* \"#utility.yul\":29148:29317   */\n    tag_380:\n        /* \"#utility.yul\":29288:29309   */\n      0x666565207472616e73666572206661696c656400000000000000000000000000\n        /* \"#utility.yul\":29284:29285   */\n      0x00\n        /* \"#utility.yul\":29276:29282   */\n      dup3\n        /* \"#utility.yul\":29272:29286   */\n      add\n        /* \"#utility.yul\":29265:29310   */\n      mstore\n        /* \"#utility.yul\":29148:29317   */\n      pop\n      jump\t// out\n        /* \"#utility.yul\":29323:29689   */\n    tag_381:\n        /* \"#utility.yul\":29465:29468   */\n      0x00\n        /* \"#utility.yul\":29486:29553   */\n      tag_640\n        /* \"#utility.yul\":29550:29552   */\n      0x13\n        /* \"#utility.yul\":29545:29548   */\n      dup4\n        /* \"#utility.yul\":29486:29553   */\n      tag_340\n      jump\t// in\n    tag_640:\n        /* \"#utility.yul\":29479:29553   */\n      swap2\n      pop\n        /* \"#utility.yul\":29562:29655   */\n      tag_641\n        /* \"#utility.yul\":29651:29654   */\n      dup3\n        /* \"#utility.yul\":29562:29655   */\n      tag_380\n      jump\t// in\n    tag_641:\n        /* \"#utility.yul\":29680:29682   */\n      0x20\n        /* \"#utility.yul\":29675:29678   */\n      dup3\n        /* \"#utility.yul\":29671:29683   */\n      add\n        /* \"#utility.yul\":29664:29683   */\n      swap1\n      pop\n        /* \"#utility.yul\":29323:29689   */\n      swap2\n      swap1\n      pop\n      jump\t// out\n        /* \"#utility.yul\":29695:30114   */\n    tag_300:\n        /* \"#utility.yul\":29861:29865   */\n      0x00\n        /* \"#utility.yul\":29899:29901   */\n      0x20\n        /* \"#utility.yul\":29888:29897   */\n      dup3\n        /* \"#utility.yul\":29884:29902   */\n      add\n        /* \"#utility.yul\":29876:29902   */\n      swap1\n      pop\n        /* \"#utility.yul\":29948:29957   */\n      dup2\n        /* \"#utility.yul\":29942:29946   */\n      dup2\n        /* \"#utility.yul\":29938:29958   */\n      sub\n        /* \"#utility.yul\":29934:29935   */\n      0x00\n        /* \"#utility.yul\":29923:29932   */\n      dup4\n        /* \"#utility.yul\":29919:29936   */\n      add\n        /* \"#utility.yul\":29912:29959   */\n      mstore\n        /* \"#utility.yul\":29976:30107   */\n      tag_643\n        /* \"#utility.yul\":30102:30106   */\n      dup2\n        /* \"#utility.yul\":29976:30107   */\n      tag_381\n      jump\t// in\n    tag_643:\n        /* \"#utility.yul\":29968:30107   */\n      swap1\n      pop\n        /* \"#utility.yul\":29695:30114   */\n      swap2\n      swap1\n      pop\n      jump\t// out\n        /* \"#utility.yul\":30120:31113   */\n    tag_302:\n        /* \"#utility.yul\":30407:30411   */\n      0x00\n        /* \"#utility.yul\":30445:30448   */\n      0x0100\n        /* \"#utility.yul\":30434:30443   */\n      dup3\n        /* \"#utility.yul\":30430:30449   */\n      add\n        /* \"#utility.yul\":30422:30449   */\n      swap1\n      pop\n        /* \"#utility.yul\":30459:30530   */\n      tag_645\n        /* \"#utility.yul\":30527:30528   */\n      0x00\n        /* \"#utility.yul\":30516:30525   */\n      dup4\n        /* \"#utility.yul\":30512:30529   */\n      add\n        /* \"#utility.yul\":30503:30509   */\n      dup12\n        /* \"#utility.yul\":30459:30530   */\n      tag_337\n      jump\t// in\n    tag_645:\n        /* \"#utility.yul\":30540:30612   */\n      tag_646\n        /* \"#utility.yul\":30608:30610   */\n      0x20\n        /* \"#utility.yul\":30597:30606   */\n      dup4\n        /* \"#utility.yul\":30593:30611   */\n      add\n        /* \"#utility.yul\":30584:30590   */\n      dup11\n        /* \"#utility.yul\":30540:30612   */\n      tag_330\n      jump\t// in\n    tag_646:\n        /* \"#utility.yul\":30622:30692   */\n      tag_647\n        /* \"#utility.yul\":30688:30690   */\n      0x40\n        /* \"#utility.yul\":30677:30686   */\n      dup4\n        /* \"#utility.yul\":30673:30691   */\n      add\n        /* \"#utility.yul\":30664:30670   */\n      dup10\n        /* \"#utility.yul\":30622:30692   */\n      tag_329\n      jump\t// in\n    tag_647:\n        /* \"#utility.yul\":30702:30774   */\n      tag_648\n        /* \"#utility.yul\":30770:30772   */\n      0x60\n        /* \"#utility.yul\":30759:30768   */\n      dup4\n        /* \"#utility.yul\":30755:30773   */\n      add\n        /* \"#utility.yul\":30746:30752   */\n      dup9\n        /* \"#utility.yul\":30702:30774   */\n      tag_337\n      jump\t// in\n    tag_648:\n        /* \"#utility.yul\":30784:30857   */\n      tag_649\n        /* \"#utility.yul\":30852:30855   */\n      0x80\n        /* \"#utility.yul\":30841:30850   */\n      dup4\n        /* \"#utility.yul\":30837:30856   */\n      add\n        /* \"#utility.yul\":30828:30834   */\n      dup8\n        /* \"#utility.yul\":30784:30857   */\n      tag_330\n      jump\t// in\n    tag_649:\n        /* \"#utility.yul\":30867:30940   */\n      tag_650\n        /* \"#utility.yul\":30935:30938   */\n      0xa0\n        /* \"#utility.yul\":30924:30933   */\n      dup4\n        /* \"#utility.yul\":30920:30939   */\n      add\n        /* \"#utility.yul\":30911:30917   */\n      dup7\n        /* \"#utility.yul\":30867:30940   */\n      tag_330\n      jump\t// in\n    tag_650:\n        /* \"#utility.yul\":30950:31023   */\n      tag_651\n        /* \"#utility.yul\":31018:31021   */\n      0xc0\n        /* \"#utility.yul\":31007:31016   */\n      dup4\n        /* \"#utility.yul\":31003:31022   */\n      add\n        /* \"#utility.yul\":30994:31000   */\n      dup6\n        /* \"#utility.yul\":30950:31023   */\n      tag_337\n      jump\t// in\n    tag_651:\n        /* \"#utility.yul\":31033:31106   */\n      tag_652\n        /* \"#utility.yul\":31101:31104   */\n      0xe0\n        /* \"#utility.yul\":31090:31099   */\n      dup4\n        /* \"#utility.yul\":31086:31105   */\n      add\n        /* \"#utility.yul\":31077:31083   */\n      dup5\n        /* \"#utility.yul\":31033:31106   */\n      tag_337\n      jump\t// in\n    tag_652:\n        /* \"#utility.yul\":30120:31113   */\n      swap10\n      swap9\n      pop\n      pop\n      pop\n      pop\n      pop\n      pop\n      pop\n      pop\n      pop\n      jump\t// out\n        /* \"#utility.yul\":31119:31262   */\n    tag_382:\n        /* \"#utility.yul\":31176:31181   */\n      0x00\n        /* \"#utility.yul\":31207:31213   */\n      dup2\n        /* \"#utility.yul\":31201:31214   */\n      mload\n        /* \"#utility.yul\":31192:31214   */\n      swap1\n      pop\n        /* \"#utility.yul\":31223:31256   */\n      tag_654\n        /* \"#utility.yul\":31250:31255   */\n      dup2\n        /* \"#utility.yul\":31223:31256   */\n      tag_322\n      jump\t// in\n    tag_654:\n        /* \"#utility.yul\":31119:31262   */\n      swap3\n      swap2\n      pop\n      pop\n      jump\t// out\n        /* \"#utility.yul\":31268:31775   */\n    tag_312:\n        /* \"#utility.yul\":31347:31353   */\n      0x00\n        /* \"#utility.yul\":31355:31361   */\n      0x00\n        /* \"#utility.yul\":31404:31406   */\n      0x40\n        /* \"#utility.yul\":31392:31401   */\n      dup4\n        /* \"#utility.yul\":31383:31390   */\n      dup6\n        /* \"#utility.yul\":31379:31402   */\n      sub\n        /* \"#utility.yul\":31375:31407   */\n      slt\n        /* \"#utility.yul\":31372:31491   */\n      iszero\n      tag_656\n      jumpi\n        /* \"#utility.yul\":31410:31489   */\n      tag_657\n      tag_319\n      jump\t// in\n    tag_657:\n        /* \"#utility.yul\":31372:31491   */\n    tag_656:\n        /* \"#utility.yul\":31530:31531   */\n      0x00\n        /* \"#utility.yul\":31555:31619   */\n      tag_658\n        /* \"#utility.yul\":31611:31618   */\n      dup6\n        /* \"#utility.yul\":31602:31608   */\n      dup3\n        /* \"#utility.yul\":31591:31600   */\n      dup7\n        /* \"#utility.yul\":31587:31609   */\n      add\n        /* \"#utility.yul\":31555:31619   */\n      tag_359\n      jump\t// in\n    tag_658:\n        /* \"#utility.yul\":31545:31619   */\n      swap3\n      pop\n        /* \"#utility.yul\":31501:31629   */\n      pop\n        /* \"#utility.yul\":31668:31670   */\n      0x20\n        /* \"#utility.yul\":31694:31758   */\n      tag_659\n        /* \"#utility.yul\":31750:31757   */\n      dup6\n        /* \"#utility.yul\":31741:31747   */\n      dup3\n        /* \"#utility.yul\":31730:31739   */\n      dup7\n        /* \"#utility.yul\":31726:31748   */\n      add\n        /* \"#utility.yul\":31694:31758   */\n      tag_382\n      jump\t// in\n    tag_659:\n        /* \"#utility.yul\":31684:31758   */\n      swap2\n      pop\n        /* \"#utility.yul\":31639:31768   */\n      pop\n        /* \"#utility.yul\":31268:31775   */\n      swap3\n      pop\n      swap3\n      swap1\n      pop\n      jump\t// out\n\n    auxdata: 0xa26469706673582212207a32e6b413d4e211f7b8cd4f2dde0a4f8bd8bab50c58fa4b439f88444183c24d64736f6c634300081e0033\n}\n",
				"bytecode": {
					"linkReferences": {},
					"object": "608060405260fa600160146101000a8154816bffffffffffffffffffffffff02191690836bffffffffffffffffffffffff160217905550348015610041575f5ffd5b50604051612fca380380612fca83398181016040528101906100639190610252565b3360015f819055505f73ffffffffffffffffffffffffffffffffffffffff168173ffffffffffffffffffffffffffffffffffffffff16036100db575f6040517f1e4fbdf70000000000000000000000000000000000000000000000000000000081526004016100d2919061028c565b60405180910390fd5b6100ea8161013160201b60201c565b508060025f6101000a81548173ffffffffffffffffffffffffffffffffffffffff021916908373ffffffffffffffffffffffffffffffffffffffff160217905550506102a5565b5f60015f9054906101000a900473ffffffffffffffffffffffffffffffffffffffff1690508160015f6101000a81548173ffffffffffffffffffffffffffffffffffffffff021916908373ffffffffffffffffffffffffffffffffffffffff1602179055508173ffffffffffffffffffffffffffffffffffffffff168173ffffffffffffffffffffffffffffffffffffffff167f8be0079c531659141344cd1fd0a4f28419497f9722a3daafe3b4186f6b6457e060405160405180910390a35050565b5f5ffd5b5f73ffffffffffffffffffffffffffffffffffffffff82169050919050565b5f610221826101f8565b9050919050565b61023181610217565b811461023b575f5ffd5b50565b5f8151905061024c81610228565b92915050565b5f60208284031215610267576102666101f4565b5b5f6102748482850161023e565b91505092915050565b61028681610217565b82525050565b5f60208201905061029f5f83018461027d565b92915050565b612d18806102b25f395ff3fe6080604052600436106100f6575f3560e01c806373851d4611610089578063e74b981b11610058578063e74b981b146102e9578063e7fb74c714610311578063f2fde38b1461032d578063fad86b6914610355576100f7565b806373851d461461022b5780638da5cb5b14610253578063b915bf421461027d578063de74e57b146102a8576100f7565b806346904840116100c5578063469048401461019b5780635e9bf9ad146101c55780635fc3ea0b146101ed578063715018a614610215576100f7565b8063305a67a8146100f957806336118b52146101215780633f5c3e871461014957806341cccad514610173576100f7565b5b005b348015610104575f5ffd5b5061011f600480360381019061011a9190611e5d565b610391565b005b34801561012c575f5ffd5b5061014760048036038101906101429190611ee2565b6105af565b005b348015610154575f5ffd5b5061015d6105e4565b60405161016a9190611f46565b60405180910390f35b34801561017e575f5ffd5b5061019960048036038101906101949190611f5f565b610602565b005b3480156101a6575f5ffd5b506101af610866565b6040516101bc9190611fac565b60405180910390f35b3480156101d0575f5ffd5b506101eb60048036038101906101e69190611fef565b61088b565b005b3480156101f8575f5ffd5b50610213600480360381019061020e919061201a565b61091a565b005b348015610220575f5ffd5b506102296109e6565b005b348015610236575f5ffd5b50610251600480360381019061024c91906120cb565b6109f9565b005b34801561025e575f5ffd5b50610267610f9d565b6040516102749190611fac565b60405180910390f35b348015610288575f5ffd5b50610291610fc5565b60405161029f929190612161565b60405180910390f35b3480156102b3575f5ffd5b506102ce60048036038101906102c99190611e5d565b611014565b6040516102e0969594939291906121b1565b60405180910390f35b3480156102f4575f5ffd5b5061030f600480360381019061030a9190612210565b6110b6565b005b61032b60048036038101906103269190611e5d565b611101565b005b348015610338575f5ffd5b50610353600480360381019061034e9190612210565b611261565b005b348015610360575f5ffd5b5061037b6004803603810190610376919061223b565b6112e5565b6040516103889190612279565b60405180910390f35b610399611305565b5f60045f8381526020019081526020015f2090508060040160149054906101000a900460ff166103fe576040517f08c379a00000000000000000000000000000000000000000000000000000000081526004016103f5906122ec565b60405180910390fd5b3373ffffffffffffffffffffffffffffffffffffffff16815f015f9054906101000a900473ffffffffffffffffffffffffffffffffffffffff1673ffffffffffffffffffffffffffffffffffffffff16148061048c57503373ffffffffffffffffffffffffffffffffffffffff16610474610f9d565b73ffffffffffffffffffffffffffffffffffffffff16145b6104cb576040517f08c379a00000000000000000000000000000000000000000000000000000000081526004016104c290612354565b60405180910390fd5b5f8160040160146101000a81548160ff0219169083151502179055505f60055f836001015f9054906101000a900473ffffffffffffffffffffffffffffffffffffffff1673ffffffffffffffffffffffffffffffffffffffff1673ffffffffffffffffffffffffffffffffffffffff1681526020019081526020015f205f836002015481526020019081526020015f20819055503373ffffffffffffffffffffffffffffffffffffffff16827f26deca31ff8139a06c52453ce8985d34f7648a6d9af1d283c4063d052c355a0f60405160405180910390a3506105ac611349565b50565b6105b7611352565b6105e0828273ffffffffffffffffffffffffffffffffffffffff166113d990919063ffffffff16565b5050565b600160149054906101000a90046bffffffffffffffffffffffff1681565b61060a611305565b5f60045f8481526020019081526020015f2090508060040160149054906101000a900460ff1661066f576040517f08c379a0000000000000000000000000000000000000000000000000000000008152600401610666906122ec565b60405180910390fd5b5f73ffffffffffffffffffffffffffffffffffffffff16816004015f9054906101000a900473ffffffffffffffffffffffffffffffffffffffff1673ffffffffffffffffffffffffffffffffffffffff1603610700576040517f08c379a00000000000000000000000000000000000000000000000000000000081526004016106f7906123bc565b60405180910390fd5b80600301548214610746576040517f08c379a000000000000000000000000000000000000000000000000000000000815260040161073d90612424565b60405180910390fd5b5f816004015f9054906101000a900473ffffffffffffffffffffffffffffffffffffffff1690508073ffffffffffffffffffffffffffffffffffffffff166323b872dd3330866040518463ffffffff1660e01b81526004016107aa93929190612442565b6020604051808303815f875af11580156107c6573d5f5f3e3d5ffd5b505050506040513d601f19601f820116820180604052508101906107ea91906124a1565b610829576040517f08c379a000000000000000000000000000000000000000000000000000000000815260040161082090612516565b60405180910390fd5b610858843385856004015f9054906101000a900473ffffffffffffffffffffffffffffffffffffffff1661149f565b5050610862611349565b5050565b60025f9054906101000a900473ffffffffffffffffffffffffffffffffffffffff1681565b610893611352565b612710816bffffffffffffffffffffffff1611156108e6576040517f08c379a00000000000000000000000000000000000000000000000000000000081526004016108dd9061257e565b60405180910390fd5b80600160146101000a8154816bffffffffffffffffffffffff02191690836bffffffffffffffffffffffff16021790555050565b610922611352565b5f8390508073ffffffffffffffffffffffffffffffffffffffff1663a9059cbb83856040518363ffffffff1660e01b815260040161096192919061259c565b6020604051808303815f875af115801561097d573d5f5f3e3d5ffd5b505050506040513d601f19601f820116820180604052508101906109a191906124a1565b6109e0576040517f08c379a00000000000000000000000000000000000000000000000000000000081526004016109d79061260d565b60405180910390fd5b50505050565b6109ee611352565b6109f75f611c7f565b565b610a01611305565b5f8411610a43576040517f08c379a0000000000000000000000000000000000000000000000000000000008152600401610a3a90612675565b60405180910390fd5b5f8690505f8173ffffffffffffffffffffffffffffffffffffffff16636352211e886040518263ffffffff1660e01b8152600401610a819190612279565b602060405180830381865afa158015610a9c573d5f5f3e3d5ffd5b505050506040513d601f19601f82011682018060405250810190610ac091906126a7565b90503373ffffffffffffffffffffffffffffffffffffffff168173ffffffffffffffffffffffffffffffffffffffff1614610b30576040517f08c379a0000000000000000000000000000000000000000000000000000000008152600401610b279061271c565b60405180910390fd5b3073ffffffffffffffffffffffffffffffffffffffff168273ffffffffffffffffffffffffffffffffffffffff1663081812fc896040518263ffffffff1660e01b8152600401610b809190612279565b602060405180830381865afa158015610b9b573d5f5f3e3d5ffd5b505050506040513d601f19601f82011682018060405250810190610bbf91906126a7565b73ffffffffffffffffffffffffffffffffffffffff161480610c5757508173ffffffffffffffffffffffffffffffffffffffff1663e985e9c533306040518363ffffffff1660e01b8152600401610c1792919061273a565b602060405180830381865afa158015610c32573d5f5f3e3d5ffd5b505050506040513d601f19601f82011682018060405250810190610c5691906124a1565b5b610c96576040517f08c379a0000000000000000000000000000000000000000000000000000000008152600401610c8d906127ab565b60405180910390fd5b5f60055f8a73ffffffffffffffffffffffffffffffffffffffff1673ffffffffffffffffffffffffffffffffffffffff1681526020019081526020015f205f8981526020019081526020015f205414610d24576040517f08c379a0000000000000000000000000000000000000000000000000000000008152600401610d1b90612813565b60405180910390fd5b60035f815480929190610d369061285e565b91905055505f60035490506040518060c001604052803373ffffffffffffffffffffffffffffffffffffffff1681526020018a73ffffffffffffffffffffffffffffffffffffffff1681526020018981526020018881526020018773ffffffffffffffffffffffffffffffffffffffff1681526020016001151581525060045f8381526020019081526020015f205f820151815f015f6101000a81548173ffffffffffffffffffffffffffffffffffffffff021916908373ffffffffffffffffffffffffffffffffffffffff1602179055506020820151816001015f6101000a81548173ffffffffffffffffffffffffffffffffffffffff021916908373ffffffffffffffffffffffffffffffffffffffff16021790555060408201518160020155606082015181600301556080820151816004015f6101000a81548173ffffffffffffffffffffffffffffffffffffffff021916908373ffffffffffffffffffffffffffffffffffffffff16021790555060a08201518160040160146101000a81548160ff0219169083151502179055509050508060055f8b73ffffffffffffffffffffffffffffffffffffffff1673ffffffffffffffffffffffffffffffffffffffff1681526020019081526020015f205f8a81526020019081526020015f20819055508873ffffffffffffffffffffffffffffffffffffffff163373ffffffffffffffffffffffffffffffffffffffff16827f22d936527e415743fc8ea2031ba3768b0118924bc8aab73baa57178a4e19dddf8b8b8b8b8b604051610f829594939291906128ef565b60405180910390a4505050610f95611349565b505050505050565b5f60015f9054906101000a900473ffffffffffffffffffffffffffffffffffffffff16905090565b5f5f610fcf611352565b600160149054906101000a90046bffffffffffffffffffffffff1660025f9054906101000a900473ffffffffffffffffffffffffffffffffffffffff16915091509091565b6004602052805f5260405f205f91509050805f015f9054906101000a900473ffffffffffffffffffffffffffffffffffffffff1690806001015f9054906101000a900473ffffffffffffffffffffffffffffffffffffffff1690806002015490806003015490806004015f9054906101000a900473ffffffffffffffffffffffffffffffffffffffff16908060040160149054906101000a900460ff16905086565b6110be611352565b8060025f6101000a81548173ffffffffffffffffffffffffffffffffffffffff021916908373ffffffffffffffffffffffffffffffffffffffff16021790555050565b611109611305565b5f60045f8381526020019081526020015f2090508060040160149054906101000a900460ff1661116e576040517f08c379a0000000000000000000000000000000000000000000000000000000008152600401611165906122ec565b60405180910390fd5b5f73ffffffffffffffffffffffffffffffffffffffff16816004015f9054906101000a900473ffffffffffffffffffffffffffffffffffffffff1673ffffffffffffffffffffffffffffffffffffffff16146111ff576040517f08c379a00000000000000000000000000000000000000000000000000000000081526004016111f690612985565b60405180910390fd5b80600301543414611245576040517f08c379a000000000000000000000000000000000000000000000000000000000815260040161123c90612424565b60405180910390fd5b611255823383600301545f61149f565b5061125e611349565b50565b611269611352565b5f73ffffffffffffffffffffffffffffffffffffffff168173ffffffffffffffffffffffffffffffffffffffff16036112d9575f6040517f1e4fbdf70000000000000000000000000000000000000000000000000000000081526004016112d09190611fac565b60405180910390fd5b6112e281611c7f565b50565b6005602052815f5260405f20602052805f5260405f205f91509150505481565b60025f5403611340576040517f3ee5aeb500000000000000000000000000000000000000000000000000000000815260040160405180910390fd5b60025f81905550565b60015f81905550565b61135a611d42565b73ffffffffffffffffffffffffffffffffffffffff16611378610f9d565b73ffffffffffffffffffffffffffffffffffffffff16146113d75761139b611d42565b6040517f118cdaa70000000000000000000000000000000000000000000000000000000081526004016113ce9190611fac565b60405180910390fd5b565b804710156114205747816040517fcf4791810000000000000000000000000000000000000000000000000000000081526004016114179291906129a3565b60405180910390fd5b5f5f8373ffffffffffffffffffffffffffffffffffffffff1683604051611446906129f7565b5f6040518083038185875af1925050503d805f8114611480576040519150601f19603f3d011682016040523d82523d5f602084013e611485565b606091505b5091509150816114995761149881611d49565b5b50505050565b5f60045f8681526020019081526020015f2090508060040160149054906101000a900460ff16611504576040517f08c379a00000000000000000000000000000000000000000000000000000000081526004016114fb906122ec565b60405180910390fd5b5f8160040160146101000a81548160ff0219169083151502179055505f60055f836001015f9054906101000a900473ffffffffffffffffffffffffffffffffffffffff1673ffffffffffffffffffffffffffffffffffffffff1673ffffffffffffffffffffffffffffffffffffffff1681526020019081526020015f205f836002015481526020019081526020015f20819055505f612710600160149054906101000a90046bffffffffffffffffffffffff166bffffffffffffffffffffffff16856115d09190612a0b565b6115da9190612a79565b90505f81856115e99190612aa9565b90505f5f61161f856001015f9054906101000a900473ffffffffffffffffffffffffffffffffffffffff16866002015489611d8c565b915091508281111561162f578290505b808361163b9190612aa9565b9250846001015f9054906101000a900473ffffffffffffffffffffffffffffffffffffffff1673ffffffffffffffffffffffffffffffffffffffff166342842e0e865f015f9054906101000a900473ffffffffffffffffffffffffffffffffffffffff168a88600201546040518463ffffffff1660e01b81526004016116c393929190612442565b5f604051808303815f87803b1580156116da575f5ffd5b505af11580156116ec573d5f5f3e3d5ffd5b505050505f73ffffffffffffffffffffffffffffffffffffffff168673ffffffffffffffffffffffffffffffffffffffff1603611889575f8111801561175e57505f73ffffffffffffffffffffffffffffffffffffffff168273ffffffffffffffffffffffffffffffffffffffff1614155b1561178d5761178c818373ffffffffffffffffffffffffffffffffffffffff166113d990919063ffffffff16565b5b6117d883865f015f9054906101000a900473ffffffffffffffffffffffffffffffffffffffff1673ffffffffffffffffffffffffffffffffffffffff166113d990919063ffffffff16565b5f8411801561183457505f73ffffffffffffffffffffffffffffffffffffffff1660025f9054906101000a900473ffffffffffffffffffffffffffffffffffffffff1673ffffffffffffffffffffffffffffffffffffffff1614155b15611884576118838460025f9054906101000a900473ffffffffffffffffffffffffffffffffffffffff1673ffffffffffffffffffffffffffffffffffffffff166113d990919063ffffffff16565b5b611ba3565b5f8690505f821180156118c857505f73ffffffffffffffffffffffffffffffffffffffff168373ffffffffffffffffffffffffffffffffffffffff1614155b15611988578073ffffffffffffffffffffffffffffffffffffffff1663a9059cbb84846040518363ffffffff1660e01b815260040161190892919061259c565b6020604051808303815f875af1158015611924573d5f5f3e3d5ffd5b505050506040513d601f19601f8201168201806040525081019061194891906124a1565b611987576040517f08c379a000000000000000000000000000000000000000000000000000000000815260040161197e90612b26565b60405180910390fd5b5b8073ffffffffffffffffffffffffffffffffffffffff1663a9059cbb875f015f9054906101000a900473ffffffffffffffffffffffffffffffffffffffff16866040518363ffffffff1660e01b81526004016119e592919061259c565b6020604051808303815f875af1158015611a01573d5f5f3e3d5ffd5b505050506040513d601f19601f82011682018060405250810190611a2591906124a1565b611a64576040517f08c379a0000000000000000000000000000000000000000000000000000000008152600401611a5b90612b8e565b60405180910390fd5b5f85118015611ac057505f73ffffffffffffffffffffffffffffffffffffffff1660025f9054906101000a900473ffffffffffffffffffffffffffffffffffffffff1673ffffffffffffffffffffffffffffffffffffffff1614155b15611ba1578073ffffffffffffffffffffffffffffffffffffffff1663a9059cbb60025f9054906101000a900473ffffffffffffffffffffffffffffffffffffffff16876040518363ffffffff1660e01b8152600401611b2192919061259c565b6020604051808303815f875af1158015611b3d573d5f5f3e3d5ffd5b505050506040513d601f19601f82011682018060405250810190611b6191906124a1565b611ba0576040517f08c379a0000000000000000000000000000000000000000000000000000000008152600401611b9790612bf6565b60405180910390fd5b5b505b845f015f9054906101000a900473ffffffffffffffffffffffffffffffffffffffff1673ffffffffffffffffffffffffffffffffffffffff168873ffffffffffffffffffffffffffffffffffffffff168a7f5bb3415cb84063f8788ad18a4ef07c2d1fa95be951775726de10ca439bdaaada8a8a600160149054906101000a90046bffffffffffffffffffffffff168a60025f9054906101000a900473ffffffffffffffffffffffffffffffffffffffff168a8a8d604051611c6c989796959493929190612c14565b60405180910390a4505050505050505050565b5f60015f9054906101000a900473ffffffffffffffffffffffffffffffffffffffff1690508160015f6101000a81548173ffffffffffffffffffffffffffffffffffffffff021916908373ffffffffffffffffffffffffffffffffffffffff1602179055508173ffffffffffffffffffffffffffffffffffffffff168173ffffffffffffffffffffffffffffffffffffffff167f8be0079c531659141344cd1fd0a4f28419497f9722a3daafe3b4186f6b6457e060405160405180910390a35050565b5f33905090565b5f81511115611d5a57805160208201fd5b6040517fd6bda27500000000000000000000000000000000000000000000000000000000815260040160405180910390fd5b5f5f8473ffffffffffffffffffffffffffffffffffffffff16632a55205a85856040518363ffffffff1660e01b8152600401611dc99291906129a3565b6040805180830381865afa925050508015611e0257506040513d601f19601f82011682018060405250810190611dff9190612ca4565b60015b611e11575f5f91509150611e1a565b81819350935050505b935093915050565b5f5ffd5b5f5ffd5b5f819050919050565b611e3c81611e2a565b8114611e46575f5ffd5b50565b5f81359050611e5781611e33565b92915050565b5f60208284031215611e7257611e71611e22565b5b5f611e7f84828501611e49565b91505092915050565b5f73ffffffffffffffffffffffffffffffffffffffff82169050919050565b5f611eb182611e88565b9050919050565b611ec181611ea7565b8114611ecb575f5ffd5b50565b5f81359050611edc81611eb8565b92915050565b5f5f60408385031215611ef857611ef7611e22565b5b5f611f0585828601611e49565b9250506020611f1685828601611ece565b9150509250929050565b5f6bffffffffffffffffffffffff82169050919050565b611f4081611f20565b82525050565b5f602082019050611f595f830184611f37565b92915050565b5f5f60408385031215611f7557611f74611e22565b5b5f611f8285828601611e49565b9250506020611f9385828601611e49565b9150509250929050565b611fa681611ea7565b82525050565b5f602082019050611fbf5f830184611f9d565b92915050565b611fce81611f20565b8114611fd8575f5ffd5b50565b5f81359050611fe981611fc5565b92915050565b5f6020828403121561200457612003611e22565b5b5f61201184828501611fdb565b91505092915050565b5f5f5f6060848603121561203157612030611e22565b5b5f61203e86828701611ece565b935050602061204f86828701611e49565b925050604061206086828701611ece565b9150509250925092565b5f5ffd5b5f5ffd5b5f5ffd5b5f5f83601f84011261208b5761208a61206a565b5b8235905067ffffffffffffffff8111156120a8576120a761206e565b5b6020830191508360018202830111156120c4576120c3612072565b5b9250929050565b5f5f5f5f5f5f60a087890312156120e5576120e4611e22565b5b5f6120f289828a01611ece565b965050602061210389828a01611e49565b955050604061211489828a01611e49565b945050606061212589828a01611ece565b935050608087013567ffffffffffffffff81111561214657612145611e26565b5b61215289828a01612076565b92509250509295509295509295565b5f6040820190506121745f830185611f37565b6121816020830184611f9d565b9392505050565b61219181611e2a565b82525050565b5f8115159050919050565b6121ab81612197565b82525050565b5f60c0820190506121c45f830189611f9d565b6121d16020830188611f9d565b6121de6040830187612188565b6121eb6060830186612188565b6121f86080830185611f9d565b61220560a08301846121a2565b979650505050505050565b5f6020828403121561222557612224611e22565b5b5f61223284828501611ece565b91505092915050565b5f5f6040838503121561225157612250611e22565b5b5f61225e85828601611ece565b925050602061226f85828601611e49565b9150509250929050565b5f60208201905061228c5f830184612188565b92915050565b5f82825260208201905092915050565b7f6e6f7420616374697665000000000000000000000000000000000000000000005f82015250565b5f6122d6600a83612292565b91506122e1826122a2565b602082019050919050565b5f6020820190508181035f830152612303816122ca565b9050919050565b7f6e6f7420616c6c6f7765640000000000000000000000000000000000000000005f82015250565b5f61233e600b83612292565b91506123498261230a565b602082019050919050565b5f6020820190508181035f83015261236b81612332565b9050919050565b7f7061796d656e74546f6b656e20697320455448000000000000000000000000005f82015250565b5f6123a6601383612292565b91506123b182612372565b602082019050919050565b5f6020820190508181035f8301526123d38161239a565b9050919050565b7f77726f6e6720616d6f756e7400000000000000000000000000000000000000005f82015250565b5f61240e600c83612292565b9150612419826123da565b602082019050919050565b5f6020820190508181035f83015261243b81612402565b9050919050565b5f6060820190506124555f830186611f9d565b6124626020830185611f9d565b61246f6040830184612188565b949350505050565b61248081612197565b811461248a575f5ffd5b50565b5f8151905061249b81612477565b92915050565b5f602082840312156124b6576124b5611e22565b5b5f6124c38482850161248d565b91505092915050565b7f7472616e7366657246726f6d206661696c6564000000000000000000000000005f82015250565b5f612500601383612292565b915061250b826124cc565b602082019050919050565b5f6020820190508181035f83015261252d816124f4565b9050919050565b7f696e76616c6964206270730000000000000000000000000000000000000000005f82015250565b5f612568600b83612292565b915061257382612534565b602082019050919050565b5f6020820190508181035f8301526125958161255c565b9050919050565b5f6040820190506125af5f830185611f9d565b6125bc6020830184612188565b9392505050565b7f4552433230207472616e73666572206661696c656400000000000000000000005f82015250565b5f6125f7601583612292565b9150612602826125c3565b602082019050919050565b5f6020820190508181035f830152612624816125eb565b9050919050565b7f7072696365203e203000000000000000000000000000000000000000000000005f82015250565b5f61265f600983612292565b915061266a8261262b565b602082019050919050565b5f6020820190508181035f83015261268c81612653565b9050919050565b5f815190506126a181611eb8565b92915050565b5f602082840312156126bc576126bb611e22565b5b5f6126c984828501612693565b91505092915050565b7f6e6f74206f776e657200000000000000000000000000000000000000000000005f82015250565b5f612706600983612292565b9150612711826126d2565b602082019050919050565b5f6020820190508181035f830152612733816126fa565b9050919050565b5f60408201905061274d5f830185611f9d565b61275a6020830184611f9d565b9392505050565b7f6d61726b6574706c616365206e6f7420617070726f76656400000000000000005f82015250565b5f612795601883612292565b91506127a082612761565b602082019050919050565b5f6020820190508181035f8301526127c281612789565b9050919050565b7f616c7265616479206c69737465640000000000000000000000000000000000005f82015250565b5f6127fd600e83612292565b9150612808826127c9565b602082019050919050565b5f6020820190508181035f83015261282a816127f1565b9050919050565b7f4e487b71000000000000000000000000000000000000000000000000000000005f52601160045260245ffd5b5f61286882611e2a565b91507fffffffffffffffffffffffffffffffffffffffffffffffffffffffffffffffff820361289a57612899612831565b5b600182019050919050565b828183375f83830152505050565b5f601f19601f8301169050919050565b5f6128ce8385612292565b93506128db8385846128a5565b6128e4836128b3565b840190509392505050565b5f6080820190506129025f830188612188565b61290f6020830187612188565b61291c6040830186611f9d565b818103606083015261292f8184866128c3565b90509695505050505050565b7f6e6f7420455448207061796d656e7400000000000000000000000000000000005f82015250565b5f61296f600f83612292565b915061297a8261293b565b602082019050919050565b5f6020820190508181035f83015261299c81612963565b9050919050565b5f6040820190506129b65f830185612188565b6129c36020830184612188565b9392505050565b5f81905092915050565b50565b5f6129e25f836129ca565b91506129ed826129d4565b5f82019050919050565b5f612a01826129d7565b9150819050919050565b5f612a1582611e2a565b9150612a2083611e2a565b9250828202612a2e81611e2a565b91508282048414831517612a4557612a44612831565b5b5092915050565b7f4e487b71000000000000000000000000000000000000000000000000000000005f52601260045260245ffd5b5f612a8382611e2a565b9150612a8e83611e2a565b925082612a9e57612a9d612a4c565b5b828204905092915050565b5f612ab382611e2a565b9150612abe83611e2a565b9250828203905081811115612ad657612ad5612831565b5b92915050565b7f726f79616c7479207472616e73666572206661696c65640000000000000000005f82015250565b5f612b10601783612292565b9150612b1b82612adc565b602082019050919050565b5f6020820190508181035f830152612b3d81612b04565b9050919050565b7f73656c6c6572207472616e73666572206661696c6564000000000000000000005f82015250565b5f612b78601683612292565b9150612b8382612b44565b602082019050919050565b5f6020820190508181035f830152612ba581612b6c565b9050919050565b7f666565207472616e73666572206661696c6564000000000000000000000000005f82015250565b5f612be0601383612292565b9150612beb82612bac565b602082019050919050565b5f6020820190508181035f830152612c0d81612bd4565b9050919050565b5f61010082019050612c285f83018b612188565b612c35602083018a611f9d565b612c426040830189611f37565b612c4f6060830188612188565b612c5c6080830187611f9d565b612c6960a0830186611f9d565b612c7660c0830185612188565b612c8360e0830184612188565b9998505050505050505050565b5f81519050612c9e81611e33565b92915050565b5f5f60408385031215612cba57612cb9611e22565b5b5f612cc785828601612693565b9250506020612cd885828601612c90565b915050925092905056fea26469706673582212207a32e6b413d4e211f7b8cd4f2dde0a4f8bd8bab50c58fa4b439f88444183c24d64736f6c634300081e0033",
					"opcodes": "PUSH1 0x80 PUSH1 0x40 MSTORE PUSH1 0xFA PUSH1 0x1 PUSH1 0x14 PUSH2 0x100 EXP DUP2 SLOAD DUP2 PUSH12 0xFFFFFFFFFFFFFFFFFFFFFFFF MUL NOT AND SWAP1 DUP4 PUSH12 0xFFFFFFFFFFFFFFFFFFFFFFFF AND MUL OR SWAP1 SSTORE POP CALLVALUE DUP1 ISZERO PUSH2 0x41 JUMPI PUSH0 PUSH0 REVERT JUMPDEST POP PUSH1 0x40 MLOAD PUSH2 0x2FCA CODESIZE SUB DUP1 PUSH2 0x2FCA DUP4 CODECOPY DUP2 DUP2 ADD PUSH1 0x40 MSTORE DUP2 ADD SWAP1 PUSH2 0x63 SWAP2 SWAP1 PUSH2 0x252 JUMP JUMPDEST CALLER PUSH1 0x1 PUSH0 DUP2 SWAP1 SSTORE POP PUSH0 PUSH20 0xFFFFFFFFFFFFFFFFFFFFFFFFFFFFFFFFFFFFFFFF AND DUP2 PUSH20 0xFFFFFFFFFFFFFFFFFFFFFFFFFFFFFFFFFFFFFFFF AND SUB PUSH2 0xDB JUMPI PUSH0 PUSH1 0x40 MLOAD PUSH32 0x1E4FBDF700000000000000000000000000000000000000000000000000000000 DUP2 MSTORE PUSH1 0x4 ADD PUSH2 0xD2 SWAP2 SWAP1 PUSH2 0x28C JUMP JUMPDEST PUSH1 0x40 MLOAD DUP1 SWAP2 SUB SWAP1 REVERT JUMPDEST PUSH2 0xEA DUP2 PUSH2 0x131 PUSH1 0x20 SHL PUSH1 0x20 SHR JUMP JUMPDEST POP DUP1 PUSH1 0x2 PUSH0 PUSH2 0x100 EXP DUP2 SLOAD DUP2 PUSH20 0xFFFFFFFFFFFFFFFFFFFFFFFFFFFFFFFFFFFFFFFF MUL NOT AND SWAP1 DUP4 PUSH20 0xFFFFFFFFFFFFFFFFFFFFFFFFFFFFFFFFFFFFFFFF AND MUL OR SWAP1 SSTORE POP POP PUSH2 0x2A5 JUMP JUMPDEST PUSH0 PUSH1 0x1 PUSH0 SWAP1 SLOAD SWAP1 PUSH2 0x100 EXP SWAP1 DIV PUSH20 0xFFFFFFFFFFFFFFFFFFFFFFFFFFFFFFFFFFFFFFFF AND SWAP1 POP DUP2 PUSH1 0x1 PUSH0 PUSH2 0x100 EXP DUP2 SLOAD DUP2 PUSH20 0xFFFFFFFFFFFFFFFFFFFFFFFFFFFFFFFFFFFFFFFF MUL NOT AND SWAP1 DUP4 PUSH20 0xFFFFFFFFFFFFFFFFFFFFFFFFFFFFFFFFFFFFFFFF AND MUL OR SWAP1 SSTORE POP DUP2 PUSH20 0xFFFFFFFFFFFFFFFFFFFFFFFFFFFFFFFFFFFFFFFF AND DUP2 PUSH20 0xFFFFFFFFFFFFFFFFFFFFFFFFFFFFFFFFFFFFFFFF AND PUSH32 0x8BE0079C531659141344CD1FD0A4F28419497F9722A3DAAFE3B4186F6B6457E0 PUSH1 0x40 MLOAD PUSH1 0x40 MLOAD DUP1 SWAP2 SUB SWAP1 LOG3 POP POP JUMP JUMPDEST PUSH0 PUSH0 REVERT JUMPDEST PUSH0 PUSH20 0xFFFFFFFFFFFFFFFFFFFFFFFFFFFFFFFFFFFFFFFF DUP3 AND SWAP1 POP SWAP2 SWAP1 POP JUMP JUMPDEST PUSH0 PUSH2 0x221 DUP3 PUSH2 0x1F8 JUMP JUMPDEST SWAP1 POP SWAP2 SWAP1 POP JUMP JUMPDEST PUSH2 0x231 DUP2 PUSH2 0x217 JUMP JUMPDEST DUP2 EQ PUSH2 0x23B JUMPI PUSH0 PUSH0 REVERT JUMPDEST POP JUMP JUMPDEST PUSH0 DUP2 MLOAD SWAP1 POP PUSH2 0x24C DUP2 PUSH2 0x228 JUMP JUMPDEST SWAP3 SWAP2 POP POP JUMP JUMPDEST PUSH0 PUSH1 0x20 DUP3 DUP5 SUB SLT ISZERO PUSH2 0x267 JUMPI PUSH2 0x266 PUSH2 0x1F4 JUMP JUMPDEST JUMPDEST PUSH0 PUSH2 0x274 DUP5 DUP3 DUP6 ADD PUSH2 0x23E JUMP JUMPDEST SWAP2 POP POP SWAP3 SWAP2 POP POP JUMP JUMPDEST PUSH2 0x286 DUP2 PUSH2 0x217 JUMP JUMPDEST DUP3 MSTORE POP POP JUMP JUMPDEST PUSH0 PUSH1 0x20 DUP3 ADD SWAP1 POP PUSH2 0x29F PUSH0 DUP4 ADD DUP5 PUSH2 0x27D JUMP JUMPDEST SWAP3 SWAP2 POP POP JUMP JUMPDEST PUSH2 0x2D18 DUP1 PUSH2 0x2B2 PUSH0 CODECOPY PUSH0 RETURN INVALID PUSH1 0x80 PUSH1 0x40 MSTORE PUSH1 0x4 CALLDATASIZE LT PUSH2 0xF6 JUMPI PUSH0 CALLDATALOAD PUSH1 0xE0 SHR DUP1 PUSH4 0x73851D46 GT PUSH2 0x89 JUMPI DUP1 PUSH4 0xE74B981B GT PUSH2 0x58 JUMPI DUP1 PUSH4 0xE74B981B EQ PUSH2 0x2E9 JUMPI DUP1 PUSH4 0xE7FB74C7 EQ PUSH2 0x311 JUMPI DUP1 PUSH4 0xF2FDE38B EQ PUSH2 0x32D JUMPI DUP1 PUSH4 0xFAD86B69 EQ PUSH2 0x355 JUMPI PUSH2 0xF7 JUMP JUMPDEST DUP1 PUSH4 0x73851D46 EQ PUSH2 0x22B JUMPI DUP1 PUSH4 0x8DA5CB5B EQ PUSH2 0x253 JUMPI DUP1 PUSH4 0xB915BF42 EQ PUSH2 0x27D JUMPI DUP1 PUSH4 0xDE74E57B EQ PUSH2 0x2A8 JUMPI PUSH2 0xF7 JUMP JUMPDEST DUP1 PUSH4 0x46904840 GT PUSH2 0xC5 JUMPI DUP1 PUSH4 0x46904840 EQ PUSH2 0x19B JUMPI DUP1 PUSH4 0x5E9BF9AD EQ PUSH2 0x1C5 JUMPI DUP1 PUSH4 0x5FC3EA0B EQ PUSH2 0x1ED JUMPI DUP1 PUSH4 0x715018A6 EQ PUSH2 0x215 JUMPI PUSH2 0xF7 JUMP JUMPDEST DUP1 PUSH4 0x305A67A8 EQ PUSH2 0xF9 JUMPI DUP1 PUSH4 0x36118B52 EQ PUSH2 0x121 JUMPI DUP1 PUSH4 0x3F5C3E87 EQ PUSH2 0x149 JUMPI DUP1 PUSH4 0x41CCCAD5 EQ PUSH2 0x173 JUMPI PUSH2 0xF7 JUMP JUMPDEST JUMPDEST STOP JUMPDEST CALLVALUE DUP1 ISZERO PUSH2 0x104 JUMPI PUSH0 PUSH0 REVERT JUMPDEST POP PUSH2 0x11F PUSH1 0x4 DUP1 CALLDATASIZE SUB DUP2 ADD SWAP1 PUSH2 0x11A SWAP2 SWAP1 PUSH2 0x1E5D JUMP JUMPDEST PUSH2 0x391 JUMP JUMPDEST STOP JUMPDEST CALLVALUE DUP1 ISZERO PUSH2 0x12C JUMPI PUSH0 PUSH0 REVERT JUMPDEST POP PUSH2 0x147 PUSH1 0x4 DUP1 CALLDATASIZE SUB DUP2 ADD SWAP1 PUSH2 0x142 SWAP2 SWAP1 PUSH2 0x1EE2 JUMP JUMPDEST PUSH2 0x5AF JUMP JUMPDEST STOP JUMPDEST CALLVALUE DUP1 ISZERO PUSH2 0x154 JUMPI PUSH0 PUSH0 REVERT JUMPDEST POP PUSH2 0x15D PUSH2 0x5E4 JUMP JUMPDEST PUSH1 0x40 MLOAD PUSH2 0x16A SWAP2 SWAP1 PUSH2 0x1F46 JUMP JUMPDEST PUSH1 0x40 MLOAD DUP1 SWAP2 SUB SWAP1 RETURN JUMPDEST CALLVALUE DUP1 ISZERO PUSH2 0x17E JUMPI PUSH0 PUSH0 REVERT JUMPDEST POP PUSH2 0x199 PUSH1 0x4 DUP1 CALLDATASIZE SUB DUP2 ADD SWAP1 PUSH2 0x194 SWAP2 SWAP1 PUSH2 0x1F5F JUMP JUMPDEST PUSH2 0x602 JUMP JUMPDEST STOP JUMPDEST CALLVALUE DUP1 ISZERO PUSH2 0x1A6 JUMPI PUSH0 PUSH0 REVERT JUMPDEST POP PUSH2 0x1AF PUSH2 0x866 JUMP JUMPDEST PUSH1 0x40 MLOAD PUSH2 0x1BC SWAP2 SWAP1 PUSH2 0x1FAC JUMP JUMPDEST PUSH1 0x40 MLOAD DUP1 SWAP2 SUB SWAP1 RETURN JUMPDEST CALLVALUE DUP1 ISZERO PUSH2 0x1D0 JUMPI PUSH0 PUSH0 REVERT JUMPDEST POP PUSH2 0x1EB PUSH1 0x4 DUP1 CALLDATASIZE SUB DUP2 ADD SWAP1 PUSH2 0x1E6 SWAP2 SWAP1 PUSH2 0x1FEF JUMP JUMPDEST PUSH2 0x88B JUMP JUMPDEST STOP JUMPDEST CALLVALUE DUP1 ISZERO PUSH2 0x1F8 JUMPI PUSH0 PUSH0 REVERT JUMPDEST POP PUSH2 0x213 PUSH1 0x4 DUP1 CALLDATASIZE SUB DUP2 ADD SWAP1 PUSH2 0x20E SWAP2 SWAP1 PUSH2 0x201A JUMP JUMPDEST PUSH2 0x91A JUMP JUMPDEST STOP JUMPDEST CALLVALUE DUP1 ISZERO PUSH2 0x220 JUMPI PUSH0 PUSH0 REVERT JUMPDEST POP PUSH2 0x229 PUSH2 0x9E6 JUMP JUMPDEST STOP JUMPDEST CALLVALUE DUP1 ISZERO PUSH2 0x236 JUMPI PUSH0 PUSH0 REVERT JUMPDEST POP PUSH2 0x251 PUSH1 0x4 DUP1 CALLDATASIZE SUB DUP2 ADD SWAP1 PUSH2 0x24C SWAP2 SWAP1 PUSH2 0x20CB JUMP JUMPDEST PUSH2 0x9F9 JUMP JUMPDEST STOP JUMPDEST CALLVALUE DUP1 ISZERO PUSH2 0x25E JUMPI PUSH0 PUSH0 REVERT JUMPDEST POP PUSH2 0x267 PUSH2 0xF9D JUMP JUMPDEST PUSH1 0x40 MLOAD PUSH2 0x274 SWAP2 SWAP1 PUSH2 0x1FAC JUMP JUMPDEST PUSH1 0x40 MLOAD DUP1 SWAP2 SUB SWAP1 RETURN JUMPDEST CALLVALUE DUP1 ISZERO PUSH2 0x288 JUMPI PUSH0 PUSH0 REVERT JUMPDEST POP PUSH2 0x291 PUSH2 0xFC5 JUMP JUMPDEST PUSH1 0x40 MLOAD PUSH2 0x29F SWAP3 SWAP2 SWAP1 PUSH2 0x2161 JUMP JUMPDEST PUSH1 0x40 MLOAD DUP1 SWAP2 SUB SWAP1 RETURN JUMPDEST CALLVALUE DUP1 ISZERO PUSH2 0x2B3 JUMPI PUSH0 PUSH0 REVERT JUMPDEST POP PUSH2 0x2CE PUSH1 0x4 DUP1 CALLDATASIZE SUB DUP2 ADD SWAP1 PUSH2 0x2C9 SWAP2 SWAP1 PUSH2 0x1E5D JUMP JUMPDEST PUSH2 0x1014 JUMP JUMPDEST PUSH1 0x40 MLOAD PUSH2 0x2E0 SWAP7 SWAP6 SWAP5 SWAP4 SWAP3 SWAP2 SWAP1 PUSH2 0x21B1 JUMP JUMPDEST PUSH1 0x40 MLOAD DUP1 SWAP2 SUB SWAP1 RETURN JUMPDEST CALLVALUE DUP1 ISZERO PUSH2 0x2F4 JUMPI PUSH0 PUSH0 REVERT JUMPDEST POP PUSH2 0x30F PUSH1 0x4 DUP1 CALLDATASIZE SUB DUP2 ADD SWAP1 PUSH2 0x30A SWAP2 SWAP1 PUSH2 0x2210 JUMP JUMPDEST PUSH2 0x10B6 JUMP JUMPDEST STOP JUMPDEST PUSH2 0x32B PUSH1 0x4 DUP1 CALLDATASIZE SUB DUP2 ADD SWAP1 PUSH2 0x326 SWAP2 SWAP1 PUSH2 0x1E5D JUMP JUMPDEST PUSH2 0x1101 JUMP JUMPDEST STOP JUMPDEST CALLVALUE DUP1 ISZERO PUSH2 0x338 JUMPI PUSH0 PUSH0 REVERT JUMPDEST POP PUSH2 0x353 PUSH1 0x4 DUP1 CALLDATASIZE SUB DUP2 ADD SWAP1 PUSH2 0x34E SWAP2 SWAP1 PUSH2 0x2210 JUMP JUMPDEST PUSH2 0x1261 JUMP JUMPDEST STOP JUMPDEST CALLVALUE DUP1 ISZERO PUSH2 0x360 JUMPI PUSH0 PUSH0 REVERT JUMPDEST POP PUSH2 0x37B PUSH1 0x4 DUP1 CALLDATASIZE SUB DUP2 ADD SWAP1 PUSH2 0x376 SWAP2 SWAP1 PUSH2 0x223B JUMP JUMPDEST PUSH2 0x12E5 JUMP JUMPDEST PUSH1 0x40 MLOAD PUSH2 0x388 SWAP2 SWAP1 PUSH2 0x2279 JUMP JUMPDEST PUSH1 0x40 MLOAD DUP1 SWAP2 SUB SWAP1 RETURN JUMPDEST PUSH2 0x399 PUSH2 0x1305 JUMP JUMPDEST PUSH0 PUSH1 0x4 PUSH0 DUP4 DUP2 MSTORE PUSH1 0x20 ADD SWAP1 DUP2 MSTORE PUSH1 0x20 ADD PUSH0 KECCAK256 SWAP1 POP DUP1 PUSH1 0x4 ADD PUSH1 0x14 SWAP1 SLOAD SWAP1 PUSH2 0x100 EXP SWAP1 DIV PUSH1 0xFF AND PUSH2 0x3FE JUMPI PUSH1 0x40 MLOAD PUSH32 0x8C379A000000000000000000000000000000000000000000000000000000000 DUP2 MSTORE PUSH1 0x4 ADD PUSH2 0x3F5 SWAP1 PUSH2 0x22EC JUMP JUMPDEST PUSH1 0x40 MLOAD DUP1 SWAP2 SUB SWAP1 REVERT JUMPDEST CALLER PUSH20 0xFFFFFFFFFFFFFFFFFFFFFFFFFFFFFFFFFFFFFFFF AND DUP2 PUSH0 ADD PUSH0 SWAP1 SLOAD SWAP1 PUSH2 0x100 EXP SWAP1 DIV PUSH20 0xFFFFFFFFFFFFFFFFFFFFFFFFFFFFFFFFFFFFFFFF AND PUSH20 0xFFFFFFFFFFFFFFFFFFFFFFFFFFFFFFFFFFFFFFFF AND EQ DUP1 PUSH2 0x48C JUMPI POP CALLER PUSH20 0xFFFFFFFFFFFFFFFFFFFFFFFFFFFFFFFFFFFFFFFF AND PUSH2 0x474 PUSH2 0xF9D JUMP JUMPDEST PUSH20 0xFFFFFFFFFFFFFFFFFFFFFFFFFFFFFFFFFFFFFFFF AND EQ JUMPDEST PUSH2 0x4CB JUMPI PUSH1 0x40 MLOAD PUSH32 0x8C379A000000000000000000000000000000000000000000000000000000000 DUP2 MSTORE PUSH1 0x4 ADD PUSH2 0x4C2 SWAP1 PUSH2 0x2354 JUMP JUMPDEST PUSH1 0x40 MLOAD DUP1 SWAP2 SUB SWAP1 REVERT JUMPDEST PUSH0 DUP2 PUSH1 0x4 ADD PUSH1 0x14 PUSH2 0x100 EXP DUP2 SLOAD DUP2 PUSH1 0xFF MUL NOT AND SWAP1 DUP4 ISZERO ISZERO MUL OR SWAP1 SSTORE POP PUSH0 PUSH1 0x5 PUSH0 DUP4 PUSH1 0x1 ADD PUSH0 SWAP1 SLOAD SWAP1 PUSH2 0x100 EXP SWAP1 DIV PUSH20 0xFFFFFFFFFFFFFFFFFFFFFFFFFFFFFFFFFFFFFFFF AND PUSH20 0xFFFFFFFFFFFFFFFFFFFFFFFFFFFFFFFFFFFFFFFF AND PUSH20 0xFFFFFFFFFFFFFFFFFFFFFFFFFFFFFFFFFFFFFFFF AND DUP2 MSTORE PUSH1 0x20 ADD SWAP1 DUP2 MSTORE PUSH1 0x20 ADD PUSH0 KECCAK256 PUSH0 DUP4 PUSH1 0x2 ADD SLOAD DUP2 MSTORE PUSH1 0x20 ADD SWAP1 DUP2 MSTORE PUSH1 0x20 ADD PUSH0 KECCAK256 DUP2 SWAP1 SSTORE POP CALLER PUSH20 0xFFFFFFFFFFFFFFFFFFFFFFFFFFFFFFFFFFFFFFFF AND DUP3 PUSH32 0x26DECA31FF8139A06C52453CE8985D34F7648A6D9AF1D283C4063D052C355A0F PUSH1 0x40 MLOAD PUSH1 0x40 MLOAD DUP1 SWAP2 SUB SWAP1 LOG3 POP PUSH2 0x5AC PUSH2 0x1349 JUMP JUMPDEST POP JUMP JUMPDEST PUSH2 0x5B7 PUSH2 0x1352 JUMP JUMPDEST PUSH2 0x5E0 DUP3 DUP3 PUSH20 0xFFFFFFFFFFFFFFFFFFFFFFFFFFFFFFFFFFFFFFFF AND PUSH2 0x13D9 SWAP1 SWAP2 SWAP1 PUSH4 0xFFFFFFFF AND JUMP JUMPDEST POP POP JUMP JUMPDEST PUSH1 0x1 PUSH1 0x14 SWAP1 SLOAD SWAP1 PUSH2 0x100 EXP SWAP1 DIV PUSH12 0xFFFFFFFFFFFFFFFFFFFFFFFF AND DUP2 JUMP JUMPDEST PUSH2 0x60A PUSH2 0x1305 JUMP JUMPDEST PUSH0 PUSH1 0x4 PUSH0 DUP5 DUP2 MSTORE PUSH1 0x20 ADD SWAP1 DUP2 MSTORE PUSH1 0x20 ADD PUSH0 KECCAK256 SWAP1 POP DUP1 PUSH1 0x4 ADD PUSH1 0x14 SWAP1 SLOAD SWAP1 PUSH2 0x100 EXP SWAP1 DIV PUSH1 0xFF AND PUSH2 0x66F JUMPI PUSH1 0x40 MLOAD PUSH32 0x8C379A000000000000000000000000000000000000000000000000000000000 DUP2 MSTORE PUSH1 0x4 ADD PUSH2 0x666 SWAP1 PUSH2 0x22EC JUMP JUMPDEST PUSH1 0x40 MLOAD DUP1 SWAP2 SUB SWAP1 REVERT JUMPDEST PUSH0 PUSH20 0xFFFFFFFFFFFFFFFFFFFFFFFFFFFFFFFFFFFFFFFF AND DUP2 PUSH1 0x4 ADD PUSH0 SWAP1 SLOAD SWAP1 PUSH2 0x100 EXP SWAP1 DIV PUSH20 0xFFFFFFFFFFFFFFFFFFFFFFFFFFFFFFFFFFFFFFFF AND PUSH20 0xFFFFFFFFFFFFFFFFFFFFFFFFFFFFFFFFFFFFFFFF AND SUB PUSH2 0x700 JUMPI PUSH1 0x40 MLOAD PUSH32 0x8C379A000000000000000000000000000000000000000000000000000000000 DUP2 MSTORE PUSH1 0x4 ADD PUSH2 0x6F7 SWAP1 PUSH2 0x23BC JUMP JUMPDEST PUSH1 0x40 MLOAD DUP1 SWAP2 SUB SWAP1 REVERT JUMPDEST DUP1 PUSH1 0x3 ADD SLOAD DUP3 EQ PUSH2 0x746 JUMPI PUSH1 0x40 MLOAD PUSH32 0x8C379A000000000000000000000000000000000000000000000000000000000 DUP2 MSTORE PUSH1 0x4 ADD PUSH2 0x73D SWAP1 PUSH2 0x2424 JUMP JUMPDEST PUSH1 0x40 MLOAD DUP1 SWAP2 SUB SWAP1 REVERT JUMPDEST PUSH0 DUP2 PUSH1 0x4 ADD PUSH0 SWAP1 SLOAD SWAP1 PUSH2 0x100 EXP SWAP1 DIV PUSH20 0xFFFFFFFFFFFFFFFFFFFFFFFFFFFFFFFFFFFFFFFF AND SWAP1 POP DUP1 PUSH20 0xFFFFFFFFFFFFFFFFFFFFFFFFFFFFFFFFFFFFFFFF AND PUSH4 0x23B872DD CALLER ADDRESS DUP7 PUSH1 0x40 MLOAD DUP5 PUSH4 0xFFFFFFFF AND PUSH1 0xE0 SHL DUP2 MSTORE PUSH1 0x4 ADD PUSH2 0x7AA SWAP4 SWAP3 SWAP2 SWAP1 PUSH2 0x2442 JUMP JUMPDEST PUSH1 0x20 PUSH1 0x40 MLOAD DUP1 DUP4 SUB DUP2 PUSH0 DUP8 GAS CALL ISZERO DUP1 ISZERO PUSH2 0x7C6 JUMPI RETURNDATASIZE PUSH0 PUSH0 RETURNDATACOPY RETURNDATASIZE PUSH0 REVERT JUMPDEST POP POP POP POP PUSH1 0x40 MLOAD RETURNDATASIZE PUSH1 0x1F NOT PUSH1 0x1F DUP3 ADD AND DUP3 ADD DUP1 PUSH1 0x40 MSTORE POP DUP2 ADD SWAP1 PUSH2 0x7EA SWAP2 SWAP1 PUSH2 0x24A1 JUMP JUMPDEST PUSH2 0x829 JUMPI PUSH1 0x40 MLOAD PUSH32 0x8C379A000000000000000000000000000000000000000000000000000000000 DUP2 MSTORE PUSH1 0x4 ADD PUSH2 0x820 SWAP1 PUSH2 0x2516 JUMP JUMPDEST PUSH1 0x40 MLOAD DUP1 SWAP2 SUB SWAP1 REVERT JUMPDEST PUSH2 0x858 DUP5 CALLER DUP6 DUP6 PUSH1 0x4 ADD PUSH0 SWAP1 SLOAD SWAP1 PUSH2 0x100 EXP SWAP1 DIV PUSH20 0xFFFFFFFFFFFFFFFFFFFFFFFFFFFFFFFFFFFFFFFF AND PUSH2 0x149F JUMP JUMPDEST POP POP PUSH2 0x862 PUSH2 0x1349 JUMP JUMPDEST POP POP JUMP JUMPDEST PUSH1 0x2 PUSH0 SWAP1 SLOAD SWAP1 PUSH2 0x100 EXP SWAP1 DIV PUSH20 0xFFFFFFFFFFFFFFFFFFFFFFFFFFFFFFFFFFFFFFFF AND DUP2 JUMP JUMPDEST PUSH2 0x893 PUSH2 0x1352 JUMP JUMPDEST PUSH2 0x2710 DUP2 PUSH12 0xFFFFFFFFFFFFFFFFFFFFFFFF AND GT ISZERO PUSH2 0x8E6 JUMPI PUSH1 0x40 MLOAD PUSH32 0x8C379A000000000000000000000000000000000000000000000000000000000 DUP2 MSTORE PUSH1 0x4 ADD PUSH2 0x8DD SWAP1 PUSH2 0x257E JUMP JUMPDEST PUSH1 0x40 MLOAD DUP1 SWAP2 SUB SWAP1 REVERT JUMPDEST DUP1 PUSH1 0x1 PUSH1 0x14 PUSH2 0x100 EXP DUP2 SLOAD DUP2 PUSH12 0xFFFFFFFFFFFFFFFFFFFFFFFF MUL NOT AND SWAP1 DUP4 PUSH12 0xFFFFFFFFFFFFFFFFFFFFFFFF AND MUL OR SWAP1 SSTORE POP POP JUMP JUMPDEST PUSH2 0x922 PUSH2 0x1352 JUMP JUMPDEST PUSH0 DUP4 SWAP1 POP DUP1 PUSH20 0xFFFFFFFFFFFFFFFFFFFFFFFFFFFFFFFFFFFFFFFF AND PUSH4 0xA9059CBB DUP4 DUP6 PUSH1 0x40 MLOAD DUP4 PUSH4 0xFFFFFFFF AND PUSH1 0xE0 SHL DUP2 MSTORE PUSH1 0x4 ADD PUSH2 0x961 SWAP3 SWAP2 SWAP1 PUSH2 0x259C JUMP JUMPDEST PUSH1 0x20 PUSH1 0x40 MLOAD DUP1 DUP4 SUB DUP2 PUSH0 DUP8 GAS CALL ISZERO DUP1 ISZERO PUSH2 0x97D JUMPI RETURNDATASIZE PUSH0 PUSH0 RETURNDATACOPY RETURNDATASIZE PUSH0 REVERT JUMPDEST POP POP POP POP PUSH1 0x40 MLOAD RETURNDATASIZE PUSH1 0x1F NOT PUSH1 0x1F DUP3 ADD AND DUP3 ADD DUP1 PUSH1 0x40 MSTORE POP DUP2 ADD SWAP1 PUSH2 0x9A1 SWAP2 SWAP1 PUSH2 0x24A1 JUMP JUMPDEST PUSH2 0x9E0 JUMPI PUSH1 0x40 MLOAD PUSH32 0x8C379A000000000000000000000000000000000000000000000000000000000 DUP2 MSTORE PUSH1 0x4 ADD PUSH2 0x9D7 SWAP1 PUSH2 0x260D JUMP JUMPDEST PUSH1 0x40 MLOAD DUP1 SWAP2 SUB SWAP1 REVERT JUMPDEST POP POP POP POP JUMP JUMPDEST PUSH2 0x9EE PUSH2 0x1352 JUMP JUMPDEST PUSH2 0x9F7 PUSH0 PUSH2 0x1C7F JUMP JUMPDEST JUMP JUMPDEST PUSH2 0xA01 PUSH2 0x1305 JUMP JUMPDEST PUSH0 DUP5 GT PUSH2 0xA43 JUMPI PUSH1 0x40 MLOAD PUSH32 0x8C379A000000000000000000000000000000000000000000000000000000000 DUP2 MSTORE PUSH1 0x4 ADD PUSH2 0xA3A SWAP1 PUSH2 0x2675 JUMP JUMPDEST PUSH1 0x40 MLOAD DUP1 SWAP2 SUB SWAP1 REVERT JUMPDEST PUSH0 DUP7 SWAP1 POP PUSH0 DUP2 PUSH20 0xFFFFFFFFFFFFFFFFFFFFFFFFFFFFFFFFFFFFFFFF AND PUSH4 0x6352211E DUP9 PUSH1 0x40 MLOAD DUP3 PUSH4 0xFFFFFFFF AND PUSH1 0xE0 SHL DUP2 MSTORE PUSH1 0x4 ADD PUSH2 0xA81 SWAP2 SWAP1 PUSH2 0x2279 JUMP JUMPDEST PUSH1 0x20 PUSH1 0x40 MLOAD DUP1 DUP4 SUB DUP2 DUP7 GAS STATICCALL ISZERO DUP1 ISZERO PUSH2 0xA9C JUMPI RETURNDATASIZE PUSH0 PUSH0 RETURNDATACOPY RETURNDATASIZE PUSH0 REVERT JUMPDEST POP POP POP POP PUSH1 0x40 MLOAD RETURNDATASIZE PUSH1 0x1F NOT PUSH1 0x1F DUP3 ADD AND DUP3 ADD DUP1 PUSH1 0x40 MSTORE POP DUP2 ADD SWAP1 PUSH2 0xAC0 SWAP2 SWAP1 PUSH2 0x26A7 JUMP JUMPDEST SWAP1 POP CALLER PUSH20 0xFFFFFFFFFFFFFFFFFFFFFFFFFFFFFFFFFFFFFFFF AND DUP2 PUSH20 0xFFFFFFFFFFFFFFFFFFFFFFFFFFFFFFFFFFFFFFFF AND EQ PUSH2 0xB30 JUMPI PUSH1 0x40 MLOAD PUSH32 0x8C379A000000000000000000000000000000000000000000000000000000000 DUP2 MSTORE PUSH1 0x4 ADD PUSH2 0xB27 SWAP1 PUSH2 0x271C JUMP JUMPDEST PUSH1 0x40 MLOAD DUP1 SWAP2 SUB SWAP1 REVERT JUMPDEST ADDRESS PUSH20 0xFFFFFFFFFFFFFFFFFFFFFFFFFFFFFFFFFFFFFFFF AND DUP3 PUSH20 0xFFFFFFFFFFFFFFFFFFFFFFFFFFFFFFFFFFFFFFFF AND PUSH4 0x81812FC DUP10 PUSH1 0x40 MLOAD DUP3 PUSH4 0xFFFFFFFF AND PUSH1 0xE0 SHL DUP2 MSTORE PUSH1 0x4 ADD PUSH2 0xB80 SWAP2 SWAP1 PUSH2 0x2279 JUMP JUMPDEST PUSH1 0x20 PUSH1 0x40 MLOAD DUP1 DUP4 SUB DUP2 DUP7 GAS STATICCALL ISZERO DUP1 ISZERO PUSH2 0xB9B JUMPI RETURNDATASIZE PUSH0 PUSH0 RETURNDATACOPY RETURNDATASIZE PUSH0 REVERT JUMPDEST POP POP POP POP PUSH1 0x40 MLOAD RETURNDATASIZE PUSH1 0x1F NOT PUSH1 0x1F DUP3 ADD AND DUP3 ADD DUP1 PUSH1 0x40 MSTORE POP DUP2 ADD SWAP1 PUSH2 0xBBF SWAP2 SWAP1 PUSH2 0x26A7 JUMP JUMPDEST PUSH20 0xFFFFFFFFFFFFFFFFFFFFFFFFFFFFFFFFFFFFFFFF AND EQ DUP1 PUSH2 0xC57 JUMPI POP DUP2 PUSH20 0xFFFFFFFFFFFFFFFFFFFFFFFFFFFFFFFFFFFFFFFF AND PUSH4 0xE985E9C5 CALLER ADDRESS PUSH1 0x40 MLOAD DUP4 PUSH4 0xFFFFFFFF AND PUSH1 0xE0 SHL DUP2 MSTORE PUSH1 0x4 ADD PUSH2 0xC17 SWAP3 SWAP2 SWAP1 PUSH2 0x273A JUMP JUMPDEST PUSH1 0x20 PUSH1 0x40 MLOAD DUP1 DUP4 SUB DUP2 DUP7 GAS STATICCALL ISZERO DUP1 ISZERO PUSH2 0xC32 JUMPI RETURNDATASIZE PUSH0 PUSH0 RETURNDATACOPY RETURNDATASIZE PUSH0 REVERT JUMPDEST POP POP POP POP PUSH1 0x40 MLOAD RETURNDATASIZE PUSH1 0x1F NOT PUSH1 0x1F DUP3 ADD AND DUP3 ADD DUP1 PUSH1 0x40 MSTORE POP DUP2 ADD SWAP1 PUSH2 0xC56 SWAP2 SWAP1 PUSH2 0x24A1 JUMP JUMPDEST JUMPDEST PUSH2 0xC96 JUMPI PUSH1 0x40 MLOAD PUSH32 0x8C379A000000000000000000000000000000000000000000000000000000000 DUP2 MSTORE PUSH1 0x4 ADD PUSH2 0xC8D SWAP1 PUSH2 0x27AB JUMP JUMPDEST PUSH1 0x40 MLOAD DUP1 SWAP2 SUB SWAP1 REVERT JUMPDEST PUSH0 PUSH1 0x5 PUSH0 DUP11 PUSH20 0xFFFFFFFFFFFFFFFFFFFFFFFFFFFFFFFFFFFFFFFF AND PUSH20 0xFFFFFFFFFFFFFFFFFFFFFFFFFFFFFFFFFFFFFFFF AND DUP2 MSTORE PUSH1 0x20 ADD SWAP1 DUP2 MSTORE PUSH1 0x20 ADD PUSH0 KECCAK256 PUSH0 DUP10 DUP2 MSTORE PUSH1 0x20 ADD SWAP1 DUP2 MSTORE PUSH1 0x20 ADD PUSH0 KECCAK256 SLOAD EQ PUSH2 0xD24 JUMPI PUSH1 0x40 MLOAD PUSH32 0x8C379A000000000000000000000000000000000000000000000000000000000 DUP2 MSTORE PUSH1 0x4 ADD PUSH2 0xD1B SWAP1 PUSH2 0x2813 JUMP JUMPDEST PUSH1 0x40 MLOAD DUP1 SWAP2 SUB SWAP1 REVERT JUMPDEST PUSH1 0x3 PUSH0 DUP2 SLOAD DUP1 SWAP3 SWAP2 SWAP1 PUSH2 0xD36 SWAP1 PUSH2 0x285E JUMP JUMPDEST SWAP2 SWAP1 POP SSTORE POP PUSH0 PUSH1 0x3 SLOAD SWAP1 POP PUSH1 0x40 MLOAD DUP1 PUSH1 0xC0 ADD PUSH1 0x40 MSTORE DUP1 CALLER PUSH20 0xFFFFFFFFFFFFFFFFFFFFFFFFFFFFFFFFFFFFFFFF AND DUP2 MSTORE PUSH1 0x20 ADD DUP11 PUSH20 0xFFFFFFFFFFFFFFFFFFFFFFFFFFFFFFFFFFFFFFFF AND DUP2 MSTORE PUSH1 0x20 ADD DUP10 DUP2 MSTORE PUSH1 0x20 ADD DUP9 DUP2 MSTORE PUSH1 0x20 ADD DUP8 PUSH20 0xFFFFFFFFFFFFFFFFFFFFFFFFFFFFFFFFFFFFFFFF AND DUP2 MSTORE PUSH1 0x20 ADD PUSH1 0x1 ISZERO ISZERO DUP2 MSTORE POP PUSH1 0x4 PUSH0 DUP4 DUP2 MSTORE PUSH1 0x20 ADD SWAP1 DUP2 MSTORE PUSH1 0x20 ADD PUSH0 KECCAK256 PUSH0 DUP3 ADD MLOAD DUP2 PUSH0 ADD PUSH0 PUSH2 0x100 EXP DUP2 SLOAD DUP2 PUSH20 0xFFFFFFFFFFFFFFFFFFFFFFFFFFFFFFFFFFFFFFFF MUL NOT AND SWAP1 DUP4 PUSH20 0xFFFFFFFFFFFFFFFFFFFFFFFFFFFFFFFFFFFFFFFF AND MUL OR SWAP1 SSTORE POP PUSH1 0x20 DUP3 ADD MLOAD DUP2 PUSH1 0x1 ADD PUSH0 PUSH2 0x100 EXP DUP2 SLOAD DUP2 PUSH20 0xFFFFFFFFFFFFFFFFFFFFFFFFFFFFFFFFFFFFFFFF MUL NOT AND SWAP1 DUP4 PUSH20 0xFFFFFFFFFFFFFFFFFFFFFFFFFFFFFFFFFFFFFFFF AND MUL OR SWAP1 SSTORE POP PUSH1 0x40 DUP3 ADD MLOAD DUP2 PUSH1 0x2 ADD SSTORE PUSH1 0x60 DUP3 ADD MLOAD DUP2 PUSH1 0x3 ADD SSTORE PUSH1 0x80 DUP3 ADD MLOAD DUP2 PUSH1 0x4 ADD PUSH0 PUSH2 0x100 EXP DUP2 SLOAD DUP2 PUSH20 0xFFFFFFFFFFFFFFFFFFFFFFFFFFFFFFFFFFFFFFFF MUL NOT AND SWAP1 DUP4 PUSH20 0xFFFFFFFFFFFFFFFFFFFFFFFFFFFFFFFFFFFFFFFF AND MUL OR SWAP1 SSTORE POP PUSH1 0xA0 DUP3 ADD MLOAD DUP2 PUSH1 0x4 ADD PUSH1 0x14 PUSH2 0x100 EXP DUP2 SLOAD DUP2 PUSH1 0xFF MUL NOT AND SWAP1 DUP4 ISZERO ISZERO MUL OR SWAP1 SSTORE POP SWAP1 POP POP DUP1 PUSH1 0x5 PUSH0 DUP12 PUSH20 0xFFFFFFFFFFFFFFFFFFFFFFFFFFFFFFFFFFFFFFFF AND PUSH20 0xFFFFFFFFFFFFFFFFFFFFFFFFFFFFFFFFFFFFFFFF AND DUP2 MSTORE PUSH1 0x20 ADD SWAP1 DUP2 MSTORE PUSH1 0x20 ADD PUSH0 KECCAK256 PUSH0 DUP11 DUP2 MSTORE PUSH1 0x20 ADD SWAP1 DUP2 MSTORE PUSH1 0x20 ADD PUSH0 KECCAK256 DUP2 SWAP1 SSTORE POP DUP9 PUSH20 0xFFFFFFFFFFFFFFFFFFFFFFFFFFFFFFFFFFFFFFFF AND CALLER PUSH20 0xFFFFFFFFFFFFFFFFFFFFFFFFFFFFFFFFFFFFFFFF AND DUP3 PUSH32 0x22D936527E415743FC8EA2031BA3768B0118924BC8AAB73BAA57178A4E19DDDF DUP12 DUP12 DUP12 DUP12 DUP12 PUSH1 0x40 MLOAD PUSH2 0xF82 SWAP6 SWAP5 SWAP4 SWAP3 SWAP2 SWAP1 PUSH2 0x28EF JUMP JUMPDEST PUSH1 0x40 MLOAD DUP1 SWAP2 SUB SWAP1 LOG4 POP POP POP PUSH2 0xF95 PUSH2 0x1349 JUMP JUMPDEST POP POP POP POP POP POP JUMP JUMPDEST PUSH0 PUSH1 0x1 PUSH0 SWAP1 SLOAD SWAP1 PUSH2 0x100 EXP SWAP1 DIV PUSH20 0xFFFFFFFFFFFFFFFFFFFFFFFFFFFFFFFFFFFFFFFF AND SWAP1 POP SWAP1 JUMP JUMPDEST PUSH0 PUSH0 PUSH2 0xFCF PUSH2 0x1352 JUMP JUMPDEST PUSH1 0x1 PUSH1 0x14 SWAP1 SLOAD SWAP1 PUSH2 0x100 EXP SWAP1 DIV PUSH12 0xFFFFFFFFFFFFFFFFFFFFFFFF AND PUSH1 0x2 PUSH0 SWAP1 SLOAD SWAP1 PUSH2 0x100 EXP SWAP1 DIV PUSH20 0xFFFFFFFFFFFFFFFFFFFFFFFFFFFFFFFFFFFFFFFF AND SWAP2 POP SWAP2 POP SWAP1 SWAP2 JUMP JUMPDEST PUSH1 0x4 PUSH1 0x20 MSTORE DUP1 PUSH0 MSTORE PUSH1 0x40 PUSH0 KECCAK256 PUSH0 SWAP2 POP SWAP1 POP DUP1 PUSH0 ADD PUSH0 SWAP1 SLOAD SWAP1 PUSH2 0x100 EXP SWAP1 DIV PUSH20 0xFFFFFFFFFFFFFFFFFFFFFFFFFFFFFFFFFFFFFFFF AND SWAP1 DUP1 PUSH1 0x1 ADD PUSH0 SWAP1 SLOAD SWAP1 PUSH2 0x100 EXP SWAP1 DIV PUSH20 0xFFFFFFFFFFFFFFFFFFFFFFFFFFFFFFFFFFFFFFFF AND SWAP1 DUP1 PUSH1 0x2 ADD SLOAD SWAP1 DUP1 PUSH1 0x3 ADD SLOAD SWAP1 DUP1 PUSH1 0x4 ADD PUSH0 SWAP1 SLOAD SWAP1 PUSH2 0x100 EXP SWAP1 DIV PUSH20 0xFFFFFFFFFFFFFFFFFFFFFFFFFFFFFFFFFFFFFFFF AND SWAP1 DUP1 PUSH1 0x4 ADD PUSH1 0x14 SWAP1 SLOAD SWAP1 PUSH2 0x100 EXP SWAP1 DIV PUSH1 0xFF AND SWAP1 POP DUP7 JUMP JUMPDEST PUSH2 0x10BE PUSH2 0x1352 JUMP JUMPDEST DUP1 PUSH1 0x2 PUSH0 PUSH2 0x100 EXP DUP2 SLOAD DUP2 PUSH20 0xFFFFFFFFFFFFFFFFFFFFFFFFFFFFFFFFFFFFFFFF MUL NOT AND SWAP1 DUP4 PUSH20 0xFFFFFFFFFFFFFFFFFFFFFFFFFFFFFFFFFFFFFFFF AND MUL OR SWAP1 SSTORE POP POP JUMP JUMPDEST PUSH2 0x1109 PUSH2 0x1305 JUMP JUMPDEST PUSH0 PUSH1 0x4 PUSH0 DUP4 DUP2 MSTORE PUSH1 0x20 ADD SWAP1 DUP2 MSTORE PUSH1 0x20 ADD PUSH0 KECCAK256 SWAP1 POP DUP1 PUSH1 0x4 ADD PUSH1 0x14 SWAP1 SLOAD SWAP1 PUSH2 0x100 EXP SWAP1 DIV PUSH1 0xFF AND PUSH2 0x116E JUMPI PUSH1 0x40 MLOAD PUSH32 0x8C379A000000000000000000000000000000000000000000000000000000000 DUP2 MSTORE PUSH1 0x4 ADD PUSH2 0x1165 SWAP1 PUSH2 0x22EC JUMP JUMPDEST PUSH1 0x40 MLOAD DUP1 SWAP2 SUB SWAP1 REVERT JUMPDEST PUSH0 PUSH20 0xFFFFFFFFFFFFFFFFFFFFFFFFFFFFFFFFFFFFFFFF AND DUP2 PUSH1 0x4 ADD PUSH0 SWAP1 SLOAD SWAP1 PUSH2 0x100 EXP SWAP1 DIV PUSH20 0xFFFFFFFFFFFFFFFFFFFFFFFFFFFFFFFFFFFFFFFF AND PUSH20 0xFFFFFFFFFFFFFFFFFFFFFFFFFFFFFFFFFFFFFFFF AND EQ PUSH2 0x11FF JUMPI PUSH1 0x40 MLOAD PUSH32 0x8C379A000000000000000000000000000000000000000000000000000000000 DUP2 MSTORE PUSH1 0x4 ADD PUSH2 0x11F6 SWAP1 PUSH2 0x2985 JUMP JUMPDEST PUSH1 0x40 MLOAD DUP1 SWAP2 SUB SWAP1 REVERT JUMPDEST DUP1 PUSH1 0x3 ADD SLOAD CALLVALUE EQ PUSH2 0x1245 JUMPI PUSH1 0x40 MLOAD PUSH32 0x8C379A000000000000000000000000000000000000000000000000000000000 DUP2 MSTORE PUSH1 0x4 ADD PUSH2 0x123C SWAP1 PUSH2 0x2424 JUMP JUMPDEST PUSH1 0x40 MLOAD DUP1 SWAP2 SUB SWAP1 REVERT JUMPDEST PUSH2 0x1255 DUP3 CALLER DUP4 PUSH1 0x3 ADD SLOAD PUSH0 PUSH2 0x149F JUMP JUMPDEST POP PUSH2 0x125E PUSH2 0x1349 JUMP JUMPDEST POP JUMP JUMPDEST PUSH2 0x1269 PUSH2 0x1352 JUMP JUMPDEST PUSH0 PUSH20 0xFFFFFFFFFFFFFFFFFFFFFFFFFFFFFFFFFFFFFFFF AND DUP2 PUSH20 0xFFFFFFFFFFFFFFFFFFFFFFFFFFFFFFFFFFFFFFFF AND SUB PUSH2 0x12D9 JUMPI PUSH0 PUSH1 0x40 MLOAD PUSH32 0x1E4FBDF700000000000000000000000000000000000000000000000000000000 DUP2 MSTORE PUSH1 0x4 ADD PUSH2 0x12D0 SWAP2 SWAP1 PUSH2 0x1FAC JUMP JUMPDEST PUSH1 0x40 MLOAD DUP1 SWAP2 SUB SWAP1 REVERT JUMPDEST PUSH2 0x12E2 DUP2 PUSH2 0x1C7F JUMP JUMPDEST POP JUMP JUMPDEST PUSH1 0x5 PUSH1 0x20 MSTORE DUP2 PUSH0 MSTORE PUSH1 0x40 PUSH0 KECCAK256 PUSH1 0x20 MSTORE DUP1 PUSH0 MSTORE PUSH1 0x40 PUSH0 KECCAK256 PUSH0 SWAP2 POP SWAP2 POP POP SLOAD DUP2 JUMP JUMPDEST PUSH1 0x2 PUSH0 SLOAD SUB PUSH2 0x1340 JUMPI PUSH1 0x40 MLOAD PUSH32 0x3EE5AEB500000000000000000000000000000000000000000000000000000000 DUP2 MSTORE PUSH1 0x4 ADD PUSH1 0x40 MLOAD DUP1 SWAP2 SUB SWAP1 REVERT JUMPDEST PUSH1 0x2 PUSH0 DUP2 SWAP1 SSTORE POP JUMP JUMPDEST PUSH1 0x1 PUSH0 DUP2 SWAP1 SSTORE POP JUMP JUMPDEST PUSH2 0x135A PUSH2 0x1D42 JUMP JUMPDEST PUSH20 0xFFFFFFFFFFFFFFFFFFFFFFFFFFFFFFFFFFFFFFFF AND PUSH2 0x1378 PUSH2 0xF9D JUMP JUMPDEST PUSH20 0xFFFFFFFFFFFFFFFFFFFFFFFFFFFFFFFFFFFFFFFF AND EQ PUSH2 0x13D7 JUMPI PUSH2 0x139B PUSH2 0x1D42 JUMP JUMPDEST PUSH1 0x40 MLOAD PUSH32 0x118CDAA700000000000000000000000000000000000000000000000000000000 DUP2 MSTORE PUSH1 0x4 ADD PUSH2 0x13CE SWAP2 SWAP1 PUSH2 0x1FAC JUMP JUMPDEST PUSH1 0x40 MLOAD DUP1 SWAP2 SUB SWAP1 REVERT JUMPDEST JUMP JUMPDEST DUP1 SELFBALANCE LT ISZERO PUSH2 0x1420 JUMPI SELFBALANCE DUP2 PUSH1 0x40 MLOAD PUSH32 0xCF47918100000000000000000000000000000000000000000000000000000000 DUP2 MSTORE PUSH1 0x4 ADD PUSH2 0x1417 SWAP3 SWAP2 SWAP1 PUSH2 0x29A3 JUMP JUMPDEST PUSH1 0x40 MLOAD DUP1 SWAP2 SUB SWAP1 REVERT JUMPDEST PUSH0 PUSH0 DUP4 PUSH20 0xFFFFFFFFFFFFFFFFFFFFFFFFFFFFFFFFFFFFFFFF AND DUP4 PUSH1 0x40 MLOAD PUSH2 0x1446 SWAP1 PUSH2 0x29F7 JUMP JUMPDEST PUSH0 PUSH1 0x40 MLOAD DUP1 DUP4 SUB DUP2 DUP6 DUP8 GAS CALL SWAP3 POP POP POP RETURNDATASIZE DUP1 PUSH0 DUP2 EQ PUSH2 0x1480 JUMPI PUSH1 0x40 MLOAD SWAP2 POP PUSH1 0x1F NOT PUSH1 0x3F RETURNDATASIZE ADD AND DUP3 ADD PUSH1 0x40 MSTORE RETURNDATASIZE DUP3 MSTORE RETURNDATASIZE PUSH0 PUSH1 0x20 DUP5 ADD RETURNDATACOPY PUSH2 0x1485 JUMP JUMPDEST PUSH1 0x60 SWAP2 POP JUMPDEST POP SWAP2 POP SWAP2 POP DUP2 PUSH2 0x1499 JUMPI PUSH2 0x1498 DUP2 PUSH2 0x1D49 JUMP JUMPDEST JUMPDEST POP POP POP POP JUMP JUMPDEST PUSH0 PUSH1 0x4 PUSH0 DUP7 DUP2 MSTORE PUSH1 0x20 ADD SWAP1 DUP2 MSTORE PUSH1 0x20 ADD PUSH0 KECCAK256 SWAP1 POP DUP1 PUSH1 0x4 ADD PUSH1 0x14 SWAP1 SLOAD SWAP1 PUSH2 0x100 EXP SWAP1 DIV PUSH1 0xFF AND PUSH2 0x1504 JUMPI PUSH1 0x40 MLOAD PUSH32 0x8C379A000000000000000000000000000000000000000000000000000000000 DUP2 MSTORE PUSH1 0x4 ADD PUSH2 0x14FB SWAP1 PUSH2 0x22EC JUMP JUMPDEST PUSH1 0x40 MLOAD DUP1 SWAP2 SUB SWAP1 REVERT JUMPDEST PUSH0 DUP2 PUSH1 0x4 ADD PUSH1 0x14 PUSH2 0x100 EXP DUP2 SLOAD DUP2 PUSH1 0xFF MUL NOT AND SWAP1 DUP4 ISZERO ISZERO MUL OR SWAP1 SSTORE POP PUSH0 PUSH1 0x5 PUSH0 DUP4 PUSH1 0x1 ADD PUSH0 SWAP1 SLOAD SWAP1 PUSH2 0x100 EXP SWAP1 DIV PUSH20 0xFFFFFFFFFFFFFFFFFFFFFFFFFFFFFFFFFFFFFFFF AND PUSH20 0xFFFFFFFFFFFFFFFFFFFFFFFFFFFFFFFFFFFFFFFF AND PUSH20 0xFFFFFFFFFFFFFFFFFFFFFFFFFFFFFFFFFFFFFFFF AND DUP2 MSTORE PUSH1 0x20 ADD SWAP1 DUP2 MSTORE PUSH1 0x20 ADD PUSH0 KECCAK256 PUSH0 DUP4 PUSH1 0x2 ADD SLOAD DUP2 MSTORE PUSH1 0x20 ADD SWAP1 DUP2 MSTORE PUSH1 0x20 ADD PUSH0 KECCAK256 DUP2 SWAP1 SSTORE POP PUSH0 PUSH2 0x2710 PUSH1 0x1 PUSH1 0x14 SWAP1 SLOAD SWAP1 PUSH2 0x100 EXP SWAP1 DIV PUSH12 0xFFFFFFFFFFFFFFFFFFFFFFFF AND PUSH12 0xFFFFFFFFFFFFFFFFFFFFFFFF AND DUP6 PUSH2 0x15D0 SWAP2 SWAP1 PUSH2 0x2A0B JUMP JUMPDEST PUSH2 0x15DA SWAP2 SWAP1 PUSH2 0x2A79 JUMP JUMPDEST SWAP1 POP PUSH0 DUP2 DUP6 PUSH2 0x15E9 SWAP2 SWAP1 PUSH2 0x2AA9 JUMP JUMPDEST SWAP1 POP PUSH0 PUSH0 PUSH2 0x161F DUP6 PUSH1 0x1 ADD PUSH0 SWAP1 SLOAD SWAP1 PUSH2 0x100 EXP SWAP1 DIV PUSH20 0xFFFFFFFFFFFFFFFFFFFFFFFFFFFFFFFFFFFFFFFF AND DUP7 PUSH1 0x2 ADD SLOAD DUP10 PUSH2 0x1D8C JUMP JUMPDEST SWAP2 POP SWAP2 POP DUP3 DUP2 GT ISZERO PUSH2 0x162F JUMPI DUP3 SWAP1 POP JUMPDEST DUP1 DUP4 PUSH2 0x163B SWAP2 SWAP1 PUSH2 0x2AA9 JUMP JUMPDEST SWAP3 POP DUP5 PUSH1 0x1 ADD PUSH0 SWAP1 SLOAD SWAP1 PUSH2 0x100 EXP SWAP1 DIV PUSH20 0xFFFFFFFFFFFFFFFFFFFFFFFFFFFFFFFFFFFFFFFF AND PUSH20 0xFFFFFFFFFFFFFFFFFFFFFFFFFFFFFFFFFFFFFFFF AND PUSH4 0x42842E0E DUP7 PUSH0 ADD PUSH0 SWAP1 SLOAD SWAP1 PUSH2 0x100 EXP SWAP1 DIV PUSH20 0xFFFFFFFFFFFFFFFFFFFFFFFFFFFFFFFFFFFFFFFF AND DUP11 DUP9 PUSH1 0x2 ADD SLOAD PUSH1 0x40 MLOAD DUP5 PUSH4 0xFFFFFFFF AND PUSH1 0xE0 SHL DUP2 MSTORE PUSH1 0x4 ADD PUSH2 0x16C3 SWAP4 SWAP3 SWAP2 SWAP1 PUSH2 0x2442 JUMP JUMPDEST PUSH0 PUSH1 0x40 MLOAD DUP1 DUP4 SUB DUP2 PUSH0 DUP8 DUP1 EXTCODESIZE ISZERO DUP1 ISZERO PUSH2 0x16DA JUMPI PUSH0 PUSH0 REVERT JUMPDEST POP GAS CALL ISZERO DUP1 ISZERO PUSH2 0x16EC JUMPI RETURNDATASIZE PUSH0 PUSH0 RETURNDATACOPY RETURNDATASIZE PUSH0 REVERT JUMPDEST POP POP POP POP PUSH0 PUSH20 0xFFFFFFFFFFFFFFFFFFFFFFFFFFFFFFFFFFFFFFFF AND DUP7 PUSH20 0xFFFFFFFFFFFFFFFFFFFFFFFFFFFFFFFFFFFFFFFF AND SUB PUSH2 0x1889 JUMPI PUSH0 DUP2 GT DUP1 ISZERO PUSH2 0x175E JUMPI POP PUSH0 PUSH20 0xFFFFFFFFFFFFFFFFFFFFFFFFFFFFFFFFFFFFFFFF AND DUP3 PUSH20 0xFFFFFFFFFFFFFFFFFFFFFFFFFFFFFFFFFFFFFFFF AND EQ ISZERO JUMPDEST ISZERO PUSH2 0x178D JUMPI PUSH2 0x178C DUP2 DUP4 PUSH20 0xFFFFFFFFFFFFFFFFFFFFFFFFFFFFFFFFFFFFFFFF AND PUSH2 0x13D9 SWAP1 SWAP2 SWAP1 PUSH4 0xFFFFFFFF AND JUMP JUMPDEST JUMPDEST PUSH2 0x17D8 DUP4 DUP7 PUSH0 ADD PUSH0 SWAP1 SLOAD SWAP1 PUSH2 0x100 EXP SWAP1 DIV PUSH20 0xFFFFFFFFFFFFFFFFFFFFFFFFFFFFFFFFFFFFFFFF AND PUSH20 0xFFFFFFFFFFFFFFFFFFFFFFFFFFFFFFFFFFFFFFFF AND PUSH2 0x13D9 SWAP1 SWAP2 SWAP1 PUSH4 0xFFFFFFFF AND JUMP JUMPDEST PUSH0 DUP5 GT DUP1 ISZERO PUSH2 0x1834 JUMPI POP PUSH0 PUSH20 0xFFFFFFFFFFFFFFFFFFFFFFFFFFFFFFFFFFFFFFFF AND PUSH1 0x2 PUSH0 SWAP1 SLOAD SWAP1 PUSH2 0x100 EXP SWAP1 DIV PUSH20 0xFFFFFFFFFFFFFFFFFFFFFFFFFFFFFFFFFFFFFFFF AND PUSH20 0xFFFFFFFFFFFFFFFFFFFFFFFFFFFFFFFFFFFFFFFF AND EQ ISZERO JUMPDEST ISZERO PUSH2 0x1884 JUMPI PUSH2 0x1883 DUP5 PUSH1 0x2 PUSH0 SWAP1 SLOAD SWAP1 PUSH2 0x100 EXP SWAP1 DIV PUSH20 0xFFFFFFFFFFFFFFFFFFFFFFFFFFFFFFFFFFFFFFFF AND PUSH20 0xFFFFFFFFFFFFFFFFFFFFFFFFFFFFFFFFFFFFFFFF AND PUSH2 0x13D9 SWAP1 SWAP2 SWAP1 PUSH4 0xFFFFFFFF AND JUMP JUMPDEST JUMPDEST PUSH2 0x1BA3 JUMP JUMPDEST PUSH0 DUP7 SWAP1 POP PUSH0 DUP3 GT DUP1 ISZERO PUSH2 0x18C8 JUMPI POP PUSH0 PUSH20 0xFFFFFFFFFFFFFFFFFFFFFFFFFFFFFFFFFFFFFFFF AND DUP4 PUSH20 0xFFFFFFFFFFFFFFFFFFFFFFFFFFFFFFFFFFFFFFFF AND EQ ISZERO JUMPDEST ISZERO PUSH2 0x1988 JUMPI DUP1 PUSH20 0xFFFFFFFFFFFFFFFFFFFFFFFFFFFFFFFFFFFFFFFF AND PUSH4 0xA9059CBB DUP5 DUP5 PUSH1 0x40 MLOAD DUP4 PUSH4 0xFFFFFFFF AND PUSH1 0xE0 SHL DUP2 MSTORE PUSH1 0x4 ADD PUSH2 0x1908 SWAP3 SWAP2 SWAP1 PUSH2 0x259C JUMP JUMPDEST PUSH1 0x20 PUSH1 0x40 MLOAD DUP1 DUP4 SUB DUP2 PUSH0 DUP8 GAS CALL ISZERO DUP1 ISZERO PUSH2 0x1924 JUMPI RETURNDATASIZE PUSH0 PUSH0 RETURNDATACOPY RETURNDATASIZE PUSH0 REVERT JUMPDEST POP POP POP POP PUSH1 0x40 MLOAD RETURNDATASIZE PUSH1 0x1F NOT PUSH1 0x1F DUP3 ADD AND DUP3 ADD DUP1 PUSH1 0x40 MSTORE POP DUP2 ADD SWAP1 PUSH2 0x1948 SWAP2 SWAP1 PUSH2 0x24A1 JUMP JUMPDEST PUSH2 0x1987 JUMPI PUSH1 0x40 MLOAD PUSH32 0x8C379A000000000000000000000000000000000000000000000000000000000 DUP2 MSTORE PUSH1 0x4 ADD PUSH2 0x197E SWAP1 PUSH2 0x2B26 JUMP JUMPDEST PUSH1 0x40 MLOAD DUP1 SWAP2 SUB SWAP1 REVERT JUMPDEST JUMPDEST DUP1 PUSH20 0xFFFFFFFFFFFFFFFFFFFFFFFFFFFFFFFFFFFFFFFF AND PUSH4 0xA9059CBB DUP8 PUSH0 ADD PUSH0 SWAP1 SLOAD SWAP1 PUSH2 0x100 EXP SWAP1 DIV PUSH20 0xFFFFFFFFFFFFFFFFFFFFFFFFFFFFFFFFFFFFFFFF AND DUP7 PUSH1 0x40 MLOAD DUP4 PUSH4 0xFFFFFFFF AND PUSH1 0xE0 SHL DUP2 MSTORE PUSH1 0x4 ADD PUSH2 0x19E5 SWAP3 SWAP2 SWAP1 PUSH2 0x259C JUMP JUMPDEST PUSH1 0x20 PUSH1 0x40 MLOAD DUP1 DUP4 SUB DUP2 PUSH0 DUP8 GAS CALL ISZERO DUP1 ISZERO PUSH2 0x1A01 JUMPI RETURNDATASIZE PUSH0 PUSH0 RETURNDATACOPY RETURNDATASIZE PUSH0 REVERT JUMPDEST POP POP POP POP PUSH1 0x40 MLOAD RETURNDATASIZE PUSH1 0x1F NOT PUSH1 0x1F DUP3 ADD AND DUP3 ADD DUP1 PUSH1 0x40 MSTORE POP DUP2 ADD SWAP1 PUSH2 0x1A25 SWAP2 SWAP1 PUSH2 0x24A1 JUMP JUMPDEST PUSH2 0x1A64 JUMPI PUSH1 0x40 MLOAD PUSH32 0x8C379A000000000000000000000000000000000000000000000000000000000 DUP2 MSTORE PUSH1 0x4 ADD PUSH2 0x1A5B SWAP1 PUSH2 0x2B8E JUMP JUMPDEST PUSH1 0x40 MLOAD DUP1 SWAP2 SUB SWAP1 REVERT JUMPDEST PUSH0 DUP6 GT DUP1 ISZERO PUSH2 0x1AC0 JUMPI POP PUSH0 PUSH20 0xFFFFFFFFFFFFFFFFFFFFFFFFFFFFFFFFFFFFFFFF AND PUSH1 0x2 PUSH0 SWAP1 SLOAD SWAP1 PUSH2 0x100 EXP SWAP1 DIV PUSH20 0xFFFFFFFFFFFFFFFFFFFFFFFFFFFFFFFFFFFFFFFF AND PUSH20 0xFFFFFFFFFFFFFFFFFFFFFFFFFFFFFFFFFFFFFFFF AND EQ ISZERO JUMPDEST ISZERO PUSH2 0x1BA1 JUMPI DUP1 PUSH20 0xFFFFFFFFFFFFFFFFFFFFFFFFFFFFFFFFFFFFFFFF AND PUSH4 0xA9059CBB PUSH1 0x2 PUSH0 SWAP1 SLOAD SWAP1 PUSH2 0x100 EXP SWAP1 DIV PUSH20 0xFFFFFFFFFFFFFFFFFFFFFFFFFFFFFFFFFFFFFFFF AND DUP8 PUSH1 0x40 MLOAD DUP4 PUSH4 0xFFFFFFFF AND PUSH1 0xE0 SHL DUP2 MSTORE PUSH1 0x4 ADD PUSH2 0x1B21 SWAP3 SWAP2 SWAP1 PUSH2 0x259C JUMP JUMPDEST PUSH1 0x20 PUSH1 0x40 MLOAD DUP1 DUP4 SUB DUP2 PUSH0 DUP8 GAS CALL ISZERO DUP1 ISZERO PUSH2 0x1B3D JUMPI RETURNDATASIZE PUSH0 PUSH0 RETURNDATACOPY RETURNDATASIZE PUSH0 REVERT JUMPDEST POP POP POP POP PUSH1 0x40 MLOAD RETURNDATASIZE PUSH1 0x1F NOT PUSH1 0x1F DUP3 ADD AND DUP3 ADD DUP1 PUSH1 0x40 MSTORE POP DUP2 ADD SWAP1 PUSH2 0x1B61 SWAP2 SWAP1 PUSH2 0x24A1 JUMP JUMPDEST PUSH2 0x1BA0 JUMPI PUSH1 0x40 MLOAD PUSH32 0x8C379A000000000000000000000000000000000000000000000000000000000 DUP2 MSTORE PUSH1 0x4 ADD PUSH2 0x1B97 SWAP1 PUSH2 0x2BF6 JUMP JUMPDEST PUSH1 0x40 MLOAD DUP1 SWAP2 SUB SWAP1 REVERT JUMPDEST JUMPDEST POP JUMPDEST DUP5 PUSH0 ADD PUSH0 SWAP1 SLOAD SWAP1 PUSH2 0x100 EXP SWAP1 DIV PUSH20 0xFFFFFFFFFFFFFFFFFFFFFFFFFFFFFFFFFFFFFFFF AND PUSH20 0xFFFFFFFFFFFFFFFFFFFFFFFFFFFFFFFFFFFFFFFF AND DUP9 PUSH20 0xFFFFFFFFFFFFFFFFFFFFFFFFFFFFFFFFFFFFFFFF AND DUP11 PUSH32 0x5BB3415CB84063F8788AD18A4EF07C2D1FA95BE951775726DE10CA439BDAAADA DUP11 DUP11 PUSH1 0x1 PUSH1 0x14 SWAP1 SLOAD SWAP1 PUSH2 0x100 EXP SWAP1 DIV PUSH12 0xFFFFFFFFFFFFFFFFFFFFFFFF AND DUP11 PUSH1 0x2 PUSH0 SWAP1 SLOAD SWAP1 PUSH2 0x100 EXP SWAP1 DIV PUSH20 0xFFFFFFFFFFFFFFFFFFFFFFFFFFFFFFFFFFFFFFFF AND DUP11 DUP11 DUP14 PUSH1 0x40 MLOAD PUSH2 0x1C6C SWAP9 SWAP8 SWAP7 SWAP6 SWAP5 SWAP4 SWAP3 SWAP2 SWAP1 PUSH2 0x2C14 JUMP JUMPDEST PUSH1 0x40 MLOAD DUP1 SWAP2 SUB SWAP1 LOG4 POP POP POP POP POP POP POP POP POP JUMP JUMPDEST PUSH0 PUSH1 0x1 PUSH0 SWAP1 SLOAD SWAP1 PUSH2 0x100 EXP SWAP1 DIV PUSH20 0xFFFFFFFFFFFFFFFFFFFFFFFFFFFFFFFFFFFFFFFF AND SWAP1 POP DUP2 PUSH1 0x1 PUSH0 PUSH2 0x100 EXP DUP2 SLOAD DUP2 PUSH20 0xFFFFFFFFFFFFFFFFFFFFFFFFFFFFFFFFFFFFFFFF MUL NOT AND SWAP1 DUP4 PUSH20 0xFFFFFFFFFFFFFFFFFFFFFFFFFFFFFFFFFFFFFFFF AND MUL OR SWAP1 SSTORE POP DUP2 PUSH20 0xFFFFFFFFFFFFFFFFFFFFFFFFFFFFFFFFFFFFFFFF AND DUP2 PUSH20 0xFFFFFFFFFFFFFFFFFFFFFFFFFFFFFFFFFFFFFFFF AND PUSH32 0x8BE0079C531659141344CD1FD0A4F28419497F9722A3DAAFE3B4186F6B6457E0 PUSH1 0x40 MLOAD PUSH1 0x40 MLOAD DUP1 SWAP2 SUB SWAP1 LOG3 POP POP JUMP JUMPDEST PUSH0 CALLER SWAP1 POP SWAP1 JUMP JUMPDEST PUSH0 DUP2 MLOAD GT ISZERO PUSH2 0x1D5A JUMPI DUP1 MLOAD PUSH1 0x20 DUP3 ADD REVERT JUMPDEST PUSH1 0x40 MLOAD PUSH32 0xD6BDA27500000000000000000000000000000000000000000000000000000000 DUP2 MSTORE PUSH1 0x4 ADD PUSH1 0x40 MLOAD DUP1 SWAP2 SUB SWAP1 REVERT JUMPDEST PUSH0 PUSH0 DUP5 PUSH20 0xFFFFFFFFFFFFFFFFFFFFFFFFFFFFFFFFFFFFFFFF AND PUSH4 0x2A55205A DUP6 DUP6 PUSH1 0x40 MLOAD DUP4 PUSH4 0xFFFFFFFF AND PUSH1 0xE0 SHL DUP2 MSTORE PUSH1 0x4 ADD PUSH2 0x1DC9 SWAP3 SWAP2 SWAP1 PUSH2 0x29A3 JUMP JUMPDEST PUSH1 0x40 DUP1 MLOAD DUP1 DUP4 SUB DUP2 DUP7 GAS STATICCALL SWAP3 POP POP POP DUP1 ISZERO PUSH2 0x1E02 JUMPI POP PUSH1 0x40 MLOAD RETURNDATASIZE PUSH1 0x1F NOT PUSH1 0x1F DUP3 ADD AND DUP3 ADD DUP1 PUSH1 0x40 MSTORE POP DUP2 ADD SWAP1 PUSH2 0x1DFF SWAP2 SWAP1 PUSH2 0x2CA4 JUMP JUMPDEST PUSH1 0x1 JUMPDEST PUSH2 0x1E11 JUMPI PUSH0 PUSH0 SWAP2 POP SWAP2 POP PUSH2 0x1E1A JUMP JUMPDEST DUP2 DUP2 SWAP4 POP SWAP4 POP POP POP JUMPDEST SWAP4 POP SWAP4 SWAP2 POP POP JUMP JUMPDEST PUSH0 PUSH0 REVERT JUMPDEST PUSH0 PUSH0 REVERT JUMPDEST PUSH0 DUP2 SWAP1 POP SWAP2 SWAP1 POP JUMP JUMPDEST PUSH2 0x1E3C DUP2 PUSH2 0x1E2A JUMP JUMPDEST DUP2 EQ PUSH2 0x1E46 JUMPI PUSH0 PUSH0 REVERT JUMPDEST POP JUMP JUMPDEST PUSH0 DUP2 CALLDATALOAD SWAP1 POP PUSH2 0x1E57 DUP2 PUSH2 0x1E33 JUMP JUMPDEST SWAP3 SWAP2 POP POP JUMP JUMPDEST PUSH0 PUSH1 0x20 DUP3 DUP5 SUB SLT ISZERO PUSH2 0x1E72 JUMPI PUSH2 0x1E71 PUSH2 0x1E22 JUMP JUMPDEST JUMPDEST PUSH0 PUSH2 0x1E7F DUP5 DUP3 DUP6 ADD PUSH2 0x1E49 JUMP JUMPDEST SWAP2 POP POP SWAP3 SWAP2 POP POP JUMP JUMPDEST PUSH0 PUSH20 0xFFFFFFFFFFFFFFFFFFFFFFFFFFFFFFFFFFFFFFFF DUP3 AND SWAP1 POP SWAP2 SWAP1 POP JUMP JUMPDEST PUSH0 PUSH2 0x1EB1 DUP3 PUSH2 0x1E88 JUMP JUMPDEST SWAP1 POP SWAP2 SWAP1 POP JUMP JUMPDEST PUSH2 0x1EC1 DUP2 PUSH2 0x1EA7 JUMP JUMPDEST DUP2 EQ PUSH2 0x1ECB JUMPI PUSH0 PUSH0 REVERT JUMPDEST POP JUMP JUMPDEST PUSH0 DUP2 CALLDATALOAD SWAP1 POP PUSH2 0x1EDC DUP2 PUSH2 0x1EB8 JUMP JUMPDEST SWAP3 SWAP2 POP POP JUMP JUMPDEST PUSH0 PUSH0 PUSH1 0x40 DUP4 DUP6 SUB SLT ISZERO PUSH2 0x1EF8 JUMPI PUSH2 0x1EF7 PUSH2 0x1E22 JUMP JUMPDEST JUMPDEST PUSH0 PUSH2 0x1F05 DUP6 DUP3 DUP7 ADD PUSH2 0x1E49 JUMP JUMPDEST SWAP3 POP POP PUSH1 0x20 PUSH2 0x1F16 DUP6 DUP3 DUP7 ADD PUSH2 0x1ECE JUMP JUMPDEST SWAP2 POP POP SWAP3 POP SWAP3 SWAP1 POP JUMP JUMPDEST PUSH0 PUSH12 0xFFFFFFFFFFFFFFFFFFFFFFFF DUP3 AND SWAP1 POP SWAP2 SWAP1 POP JUMP JUMPDEST PUSH2 0x1F40 DUP2 PUSH2 0x1F20 JUMP JUMPDEST DUP3 MSTORE POP POP JUMP JUMPDEST PUSH0 PUSH1 0x20 DUP3 ADD SWAP1 POP PUSH2 0x1F59 PUSH0 DUP4 ADD DUP5 PUSH2 0x1F37 JUMP JUMPDEST SWAP3 SWAP2 POP POP JUMP JUMPDEST PUSH0 PUSH0 PUSH1 0x40 DUP4 DUP6 SUB SLT ISZERO PUSH2 0x1F75 JUMPI PUSH2 0x1F74 PUSH2 0x1E22 JUMP JUMPDEST JUMPDEST PUSH0 PUSH2 0x1F82 DUP6 DUP3 DUP7 ADD PUSH2 0x1E49 JUMP JUMPDEST SWAP3 POP POP PUSH1 0x20 PUSH2 0x1F93 DUP6 DUP3 DUP7 ADD PUSH2 0x1E49 JUMP JUMPDEST SWAP2 POP POP SWAP3 POP SWAP3 SWAP1 POP JUMP JUMPDEST PUSH2 0x1FA6 DUP2 PUSH2 0x1EA7 JUMP JUMPDEST DUP3 MSTORE POP POP JUMP JUMPDEST PUSH0 PUSH1 0x20 DUP3 ADD SWAP1 POP PUSH2 0x1FBF PUSH0 DUP4 ADD DUP5 PUSH2 0x1F9D JUMP JUMPDEST SWAP3 SWAP2 POP POP JUMP JUMPDEST PUSH2 0x1FCE DUP2 PUSH2 0x1F20 JUMP JUMPDEST DUP2 EQ PUSH2 0x1FD8 JUMPI PUSH0 PUSH0 REVERT JUMPDEST POP JUMP JUMPDEST PUSH0 DUP2 CALLDATALOAD SWAP1 POP PUSH2 0x1FE9 DUP2 PUSH2 0x1FC5 JUMP JUMPDEST SWAP3 SWAP2 POP POP JUMP JUMPDEST PUSH0 PUSH1 0x20 DUP3 DUP5 SUB SLT ISZERO PUSH2 0x2004 JUMPI PUSH2 0x2003 PUSH2 0x1E22 JUMP JUMPDEST JUMPDEST PUSH0 PUSH2 0x2011 DUP5 DUP3 DUP6 ADD PUSH2 0x1FDB JUMP JUMPDEST SWAP2 POP POP SWAP3 SWAP2 POP POP JUMP JUMPDEST PUSH0 PUSH0 PUSH0 PUSH1 0x60 DUP5 DUP7 SUB SLT ISZERO PUSH2 0x2031 JUMPI PUSH2 0x2030 PUSH2 0x1E22 JUMP JUMPDEST JUMPDEST PUSH0 PUSH2 0x203E DUP7 DUP3 DUP8 ADD PUSH2 0x1ECE JUMP JUMPDEST SWAP4 POP POP PUSH1 0x20 PUSH2 0x204F DUP7 DUP3 DUP8 ADD PUSH2 0x1E49 JUMP JUMPDEST SWAP3 POP POP PUSH1 0x40 PUSH2 0x2060 DUP7 DUP3 DUP8 ADD PUSH2 0x1ECE JUMP JUMPDEST SWAP2 POP POP SWAP3 POP SWAP3 POP SWAP3 JUMP JUMPDEST PUSH0 PUSH0 REVERT JUMPDEST PUSH0 PUSH0 REVERT JUMPDEST PUSH0 PUSH0 REVERT JUMPDEST PUSH0 PUSH0 DUP4 PUSH1 0x1F DUP5 ADD SLT PUSH2 0x208B JUMPI PUSH2 0x208A PUSH2 0x206A JUMP JUMPDEST JUMPDEST DUP3 CALLDATALOAD SWAP1 POP PUSH8 0xFFFFFFFFFFFFFFFF DUP2 GT ISZERO PUSH2 0x20A8 JUMPI PUSH2 0x20A7 PUSH2 0x206E JUMP JUMPDEST JUMPDEST PUSH1 0x20 DUP4 ADD SWAP2 POP DUP4 PUSH1 0x1 DUP3 MUL DUP4 ADD GT ISZERO PUSH2 0x20C4 JUMPI PUSH2 0x20C3 PUSH2 0x2072 JUMP JUMPDEST JUMPDEST SWAP3 POP SWAP3 SWAP1 POP JUMP JUMPDEST PUSH0 PUSH0 PUSH0 PUSH0 PUSH0 PUSH0 PUSH1 0xA0 DUP8 DUP10 SUB SLT ISZERO PUSH2 0x20E5 JUMPI PUSH2 0x20E4 PUSH2 0x1E22 JUMP JUMPDEST JUMPDEST PUSH0 PUSH2 0x20F2 DUP10 DUP3 DUP11 ADD PUSH2 0x1ECE JUMP JUMPDEST SWAP7 POP POP PUSH1 0x20 PUSH2 0x2103 DUP10 DUP3 DUP11 ADD PUSH2 0x1E49 JUMP JUMPDEST SWAP6 POP POP PUSH1 0x40 PUSH2 0x2114 DUP10 DUP3 DUP11 ADD PUSH2 0x1E49 JUMP JUMPDEST SWAP5 POP POP PUSH1 0x60 PUSH2 0x2125 DUP10 DUP3 DUP11 ADD PUSH2 0x1ECE JUMP JUMPDEST SWAP4 POP POP PUSH1 0x80 DUP8 ADD CALLDATALOAD PUSH8 0xFFFFFFFFFFFFFFFF DUP2 GT ISZERO PUSH2 0x2146 JUMPI PUSH2 0x2145 PUSH2 0x1E26 JUMP JUMPDEST JUMPDEST PUSH2 0x2152 DUP10 DUP3 DUP11 ADD PUSH2 0x2076 JUMP JUMPDEST SWAP3 POP SWAP3 POP POP SWAP3 SWAP6 POP SWAP3 SWAP6 POP SWAP3 SWAP6 JUMP JUMPDEST PUSH0 PUSH1 0x40 DUP3 ADD SWAP1 POP PUSH2 0x2174 PUSH0 DUP4 ADD DUP6 PUSH2 0x1F37 JUMP JUMPDEST PUSH2 0x2181 PUSH1 0x20 DUP4 ADD DUP5 PUSH2 0x1F9D JUMP JUMPDEST SWAP4 SWAP3 POP POP POP JUMP JUMPDEST PUSH2 0x2191 DUP2 PUSH2 0x1E2A JUMP JUMPDEST DUP3 MSTORE POP POP JUMP JUMPDEST PUSH0 DUP2 ISZERO ISZERO SWAP1 POP SWAP2 SWAP1 POP JUMP JUMPDEST PUSH2 0x21AB DUP2 PUSH2 0x2197 JUMP JUMPDEST DUP3 MSTORE POP POP JUMP JUMPDEST PUSH0 PUSH1 0xC0 DUP3 ADD SWAP1 POP PUSH2 0x21C4 PUSH0 DUP4 ADD DUP10 PUSH2 0x1F9D JUMP JUMPDEST PUSH2 0x21D1 PUSH1 0x20 DUP4 ADD DUP9 PUSH2 0x1F9D JUMP JUMPDEST PUSH2 0x21DE PUSH1 0x40 DUP4 ADD DUP8 PUSH2 0x2188 JUMP JUMPDEST PUSH2 0x21EB PUSH1 0x60 DUP4 ADD DUP7 PUSH2 0x2188 JUMP JUMPDEST PUSH2 0x21F8 PUSH1 0x80 DUP4 ADD DUP6 PUSH2 0x1F9D JUMP JUMPDEST PUSH2 0x2205 PUSH1 0xA0 DUP4 ADD DUP5 PUSH2 0x21A2 JUMP JUMPDEST SWAP8 SWAP7 POP POP POP POP POP POP POP JUMP JUMPDEST PUSH0 PUSH1 0x20 DUP3 DUP5 SUB SLT ISZERO PUSH2 0x2225 JUMPI PUSH2 0x2224 PUSH2 0x1E22 JUMP JUMPDEST JUMPDEST PUSH0 PUSH2 0x2232 DUP5 DUP3 DUP6 ADD PUSH2 0x1ECE JUMP JUMPDEST SWAP2 POP POP SWAP3 SWAP2 POP POP JUMP JUMPDEST PUSH0 PUSH0 PUSH1 0x40 DUP4 DUP6 SUB SLT ISZERO PUSH2 0x2251 JUMPI PUSH2 0x2250 PUSH2 0x1E22 JUMP JUMPDEST JUMPDEST PUSH0 PUSH2 0x225E DUP6 DUP3 DUP7 ADD PUSH2 0x1ECE JUMP JUMPDEST SWAP3 POP POP PUSH1 0x20 PUSH2 0x226F DUP6 DUP3 DUP7 ADD PUSH2 0x1E49 JUMP JUMPDEST SWAP2 POP POP SWAP3 POP SWAP3 SWAP1 POP JUMP JUMPDEST PUSH0 PUSH1 0x20 DUP3 ADD SWAP1 POP PUSH2 0x228C PUSH0 DUP4 ADD DUP5 PUSH2 0x2188 JUMP JUMPDEST SWAP3 SWAP2 POP POP JUMP JUMPDEST PUSH0 DUP3 DUP3 MSTORE PUSH1 0x20 DUP3 ADD SWAP1 POP SWAP3 SWAP2 POP POP JUMP JUMPDEST PUSH32 0x6E6F742061637469766500000000000000000000000000000000000000000000 PUSH0 DUP3 ADD MSTORE POP JUMP JUMPDEST PUSH0 PUSH2 0x22D6 PUSH1 0xA DUP4 PUSH2 0x2292 JUMP JUMPDEST SWAP2 POP PUSH2 0x22E1 DUP3 PUSH2 0x22A2 JUMP JUMPDEST PUSH1 0x20 DUP3 ADD SWAP1 POP SWAP2 SWAP1 POP JUMP JUMPDEST PUSH0 PUSH1 0x20 DUP3 ADD SWAP1 POP DUP2 DUP2 SUB PUSH0 DUP4 ADD MSTORE PUSH2 0x2303 DUP2 PUSH2 0x22CA JUMP JUMPDEST SWAP1 POP SWAP2 SWAP1 POP JUMP JUMPDEST PUSH32 0x6E6F7420616C6C6F776564000000000000000000000000000000000000000000 PUSH0 DUP3 ADD MSTORE POP JUMP JUMPDEST PUSH0 PUSH2 0x233E PUSH1 0xB DUP4 PUSH2 0x2292 JUMP JUMPDEST SWAP2 POP PUSH2 0x2349 DUP3 PUSH2 0x230A JUMP JUMPDEST PUSH1 0x20 DUP3 ADD SWAP1 POP SWAP2 SWAP1 POP JUMP JUMPDEST PUSH0 PUSH1 0x20 DUP3 ADD SWAP1 POP DUP2 DUP2 SUB PUSH0 DUP4 ADD MSTORE PUSH2 0x236B DUP2 PUSH2 0x2332 JUMP JUMPDEST SWAP1 POP SWAP2 SWAP1 POP JUMP JUMPDEST PUSH32 0x7061796D656E74546F6B656E2069732045544800000000000000000000000000 PUSH0 DUP3 ADD MSTORE POP JUMP JUMPDEST PUSH0 PUSH2 0x23A6 PUSH1 0x13 DUP4 PUSH2 0x2292 JUMP JUMPDEST SWAP2 POP PUSH2 0x23B1 DUP3 PUSH2 0x2372 JUMP JUMPDEST PUSH1 0x20 DUP3 ADD SWAP1 POP SWAP2 SWAP1 POP JUMP JUMPDEST PUSH0 PUSH1 0x20 DUP3 ADD SWAP1 POP DUP2 DUP2 SUB PUSH0 DUP4 ADD MSTORE PUSH2 0x23D3 DUP2 PUSH2 0x239A JUMP JUMPDEST SWAP1 POP SWAP2 SWAP1 POP JUMP JUMPDEST PUSH32 0x77726F6E6720616D6F756E740000000000000000000000000000000000000000 PUSH0 DUP3 ADD MSTORE POP JUMP JUMPDEST PUSH0 PUSH2 0x240E PUSH1 0xC DUP4 PUSH2 0x2292 JUMP JUMPDEST SWAP2 POP PUSH2 0x2419 DUP3 PUSH2 0x23DA JUMP JUMPDEST PUSH1 0x20 DUP3 ADD SWAP1 POP SWAP2 SWAP1 POP JUMP JUMPDEST PUSH0 PUSH1 0x20 DUP3 ADD SWAP1 POP DUP2 DUP2 SUB PUSH0 DUP4 ADD MSTORE PUSH2 0x243B DUP2 PUSH2 0x2402 JUMP JUMPDEST SWAP1 POP SWAP2 SWAP1 POP JUMP JUMPDEST PUSH0 PUSH1 0x60 DUP3 ADD SWAP1 POP PUSH2 0x2455 PUSH0 DUP4 ADD DUP7 PUSH2 0x1F9D JUMP JUMPDEST PUSH2 0x2462 PUSH1 0x20 DUP4 ADD DUP6 PUSH2 0x1F9D JUMP JUMPDEST PUSH2 0x246F PUSH1 0x40 DUP4 ADD DUP5 PUSH2 0x2188 JUMP JUMPDEST SWAP5 SWAP4 POP POP POP POP JUMP JUMPDEST PUSH2 0x2480 DUP2 PUSH2 0x2197 JUMP JUMPDEST DUP2 EQ PUSH2 0x248A JUMPI PUSH0 PUSH0 REVERT JUMPDEST POP JUMP JUMPDEST PUSH0 DUP2 MLOAD SWAP1 POP PUSH2 0x249B DUP2 PUSH2 0x2477 JUMP JUMPDEST SWAP3 SWAP2 POP POP JUMP JUMPDEST PUSH0 PUSH1 0x20 DUP3 DUP5 SUB SLT ISZERO PUSH2 0x24B6 JUMPI PUSH2 0x24B5 PUSH2 0x1E22 JUMP JUMPDEST JUMPDEST PUSH0 PUSH2 0x24C3 DUP5 DUP3 DUP6 ADD PUSH2 0x248D JUMP JUMPDEST SWAP2 POP POP SWAP3 SWAP2 POP POP JUMP JUMPDEST PUSH32 0x7472616E7366657246726F6D206661696C656400000000000000000000000000 PUSH0 DUP3 ADD MSTORE POP JUMP JUMPDEST PUSH0 PUSH2 0x2500 PUSH1 0x13 DUP4 PUSH2 0x2292 JUMP JUMPDEST SWAP2 POP PUSH2 0x250B DUP3 PUSH2 0x24CC JUMP JUMPDEST PUSH1 0x20 DUP3 ADD SWAP1 POP SWAP2 SWAP1 POP JUMP JUMPDEST PUSH0 PUSH1 0x20 DUP3 ADD SWAP1 POP DUP2 DUP2 SUB PUSH0 DUP4 ADD MSTORE PUSH2 0x252D DUP2 PUSH2 0x24F4 JUMP JUMPDEST SWAP1 POP SWAP2 SWAP1 POP JUMP JUMPDEST PUSH32 0x696E76616C696420627073000000000000000000000000000000000000000000 PUSH0 DUP3 ADD MSTORE POP JUMP JUMPDEST PUSH0 PUSH2 0x2568 PUSH1 0xB DUP4 PUSH2 0x2292 JUMP JUMPDEST SWAP2 POP PUSH2 0x2573 DUP3 PUSH2 0x2534 JUMP JUMPDEST PUSH1 0x20 DUP3 ADD SWAP1 POP SWAP2 SWAP1 POP JUMP JUMPDEST PUSH0 PUSH1 0x20 DUP3 ADD SWAP1 POP DUP2 DUP2 SUB PUSH0 DUP4 ADD MSTORE PUSH2 0x2595 DUP2 PUSH2 0x255C JUMP JUMPDEST SWAP1 POP SWAP2 SWAP1 POP JUMP JUMPDEST PUSH0 PUSH1 0x40 DUP3 ADD SWAP1 POP PUSH2 0x25AF PUSH0 DUP4 ADD DUP6 PUSH2 0x1F9D JUMP JUMPDEST PUSH2 0x25BC PUSH1 0x20 DUP4 ADD DUP5 PUSH2 0x2188 JUMP JUMPDEST SWAP4 SWAP3 POP POP POP JUMP JUMPDEST PUSH32 0x4552433230207472616E73666572206661696C65640000000000000000000000 PUSH0 DUP3 ADD MSTORE POP JUMP JUMPDEST PUSH0 PUSH2 0x25F7 PUSH1 0x15 DUP4 PUSH2 0x2292 JUMP JUMPDEST SWAP2 POP PUSH2 0x2602 DUP3 PUSH2 0x25C3 JUMP JUMPDEST PUSH1 0x20 DUP3 ADD SWAP1 POP SWAP2 SWAP1 POP JUMP JUMPDEST PUSH0 PUSH1 0x20 DUP3 ADD SWAP1 POP DUP2 DUP2 SUB PUSH0 DUP4 ADD MSTORE PUSH2 0x2624 DUP2 PUSH2 0x25EB JUMP JUMPDEST SWAP1 POP SWAP2 SWAP1 POP JUMP JUMPDEST PUSH32 0x7072696365203E20300000000000000000000000000000000000000000000000 PUSH0 DUP3 ADD MSTORE POP JUMP JUMPDEST PUSH0 PUSH2 0x265F PUSH1 0x9 DUP4 PUSH2 0x2292 JUMP JUMPDEST SWAP2 POP PUSH2 0x266A DUP3 PUSH2 0x262B JUMP JUMPDEST PUSH1 0x20 DUP3 ADD SWAP1 POP SWAP2 SWAP1 POP JUMP JUMPDEST PUSH0 PUSH1 0x20 DUP3 ADD SWAP1 POP DUP2 DUP2 SUB PUSH0 DUP4 ADD MSTORE PUSH2 0x268C DUP2 PUSH2 0x2653 JUMP JUMPDEST SWAP1 POP SWAP2 SWAP1 POP JUMP JUMPDEST PUSH0 DUP2 MLOAD SWAP1 POP PUSH2 0x26A1 DUP2 PUSH2 0x1EB8 JUMP JUMPDEST SWAP3 SWAP2 POP POP JUMP JUMPDEST PUSH0 PUSH1 0x20 DUP3 DUP5 SUB SLT ISZERO PUSH2 0x26BC JUMPI PUSH2 0x26BB PUSH2 0x1E22 JUMP JUMPDEST JUMPDEST PUSH0 PUSH2 0x26C9 DUP5 DUP3 DUP6 ADD PUSH2 0x2693 JUMP JUMPDEST SWAP2 POP POP SWAP3 SWAP2 POP POP JUMP JUMPDEST PUSH32 0x6E6F74206F776E65720000000000000000000000000000000000000000000000 PUSH0 DUP3 ADD MSTORE POP JUMP JUMPDEST PUSH0 PUSH2 0x2706 PUSH1 0x9 DUP4 PUSH2 0x2292 JUMP JUMPDEST SWAP2 POP PUSH2 0x2711 DUP3 PUSH2 0x26D2 JUMP JUMPDEST PUSH1 0x20 DUP3 ADD SWAP1 POP SWAP2 SWAP1 POP JUMP JUMPDEST PUSH0 PUSH1 0x20 DUP3 ADD SWAP1 POP DUP2 DUP2 SUB PUSH0 DUP4 ADD MSTORE PUSH2 0x2733 DUP2 PUSH2 0x26FA JUMP JUMPDEST SWAP1 POP SWAP2 SWAP1 POP JUMP JUMPDEST PUSH0 PUSH1 0x40 DUP3 ADD SWAP1 POP PUSH2 0x274D PUSH0 DUP4 ADD DUP6 PUSH2 0x1F9D JUMP JUMPDEST PUSH2 0x275A PUSH1 0x20 DUP4 ADD DUP5 PUSH2 0x1F9D JUMP JUMPDEST SWAP4 SWAP3 POP POP POP JUMP JUMPDEST PUSH32 0x6D61726B6574706C616365206E6F7420617070726F7665640000000000000000 PUSH0 DUP3 ADD MSTORE POP JUMP JUMPDEST PUSH0 PUSH2 0x2795 PUSH1 0x18 DUP4 PUSH2 0x2292 JUMP JUMPDEST SWAP2 POP PUSH2 0x27A0 DUP3 PUSH2 0x2761 JUMP JUMPDEST PUSH1 0x20 DUP3 ADD SWAP1 POP SWAP2 SWAP1 POP JUMP JUMPDEST PUSH0 PUSH1 0x20 DUP3 ADD SWAP1 POP DUP2 DUP2 SUB PUSH0 DUP4 ADD MSTORE PUSH2 0x27C2 DUP2 PUSH2 0x2789 JUMP JUMPDEST SWAP1 POP SWAP2 SWAP1 POP JUMP JUMPDEST PUSH32 0x616C7265616479206C6973746564000000000000000000000000000000000000 PUSH0 DUP3 ADD MSTORE POP JUMP JUMPDEST PUSH0 PUSH2 0x27FD PUSH1 0xE DUP4 PUSH2 0x2292 JUMP JUMPDEST SWAP2 POP PUSH2 0x2808 DUP3 PUSH2 0x27C9 JUMP JUMPDEST PUSH1 0x20 DUP3 ADD SWAP1 POP SWAP2 SWAP1 POP JUMP JUMPDEST PUSH0 PUSH1 0x20 DUP3 ADD SWAP1 POP DUP2 DUP2 SUB PUSH0 DUP4 ADD MSTORE PUSH2 0x282A DUP2 PUSH2 0x27F1 JUMP JUMPDEST SWAP1 POP SWAP2 SWAP1 POP JUMP JUMPDEST PUSH32 0x4E487B7100000000000000000000000000000000000000000000000000000000 PUSH0 MSTORE PUSH1 0x11 PUSH1 0x4 MSTORE PUSH1 0x24 PUSH0 REVERT JUMPDEST PUSH0 PUSH2 0x2868 DUP3 PUSH2 0x1E2A JUMP JUMPDEST SWAP2 POP PUSH32 0xFFFFFFFFFFFFFFFFFFFFFFFFFFFFFFFFFFFFFFFFFFFFFFFFFFFFFFFFFFFFFFFF DUP3 SUB PUSH2 0x289A JUMPI PUSH2 0x2899 PUSH2 0x2831 JUMP JUMPDEST JUMPDEST PUSH1 0x1 DUP3 ADD SWAP1 POP SWAP2 SWAP1 POP JUMP JUMPDEST DUP3 DUP2 DUP4 CALLDATACOPY PUSH0 DUP4 DUP4 ADD MSTORE POP POP POP JUMP JUMPDEST PUSH0 PUSH1 0x1F NOT PUSH1 0x1F DUP4 ADD AND SWAP1 POP SWAP2 SWAP1 POP JUMP JUMPDEST PUSH0 PUSH2 0x28CE DUP4 DUP6 PUSH2 0x2292 JUMP JUMPDEST SWAP4 POP PUSH2 0x28DB DUP4 DUP6 DUP5 PUSH2 0x28A5 JUMP JUMPDEST PUSH2 0x28E4 DUP4 PUSH2 0x28B3 JUMP JUMPDEST DUP5 ADD SWAP1 POP SWAP4 SWAP3 POP POP POP JUMP JUMPDEST PUSH0 PUSH1 0x80 DUP3 ADD SWAP1 POP PUSH2 0x2902 PUSH0 DUP4 ADD DUP9 PUSH2 0x2188 JUMP JUMPDEST PUSH2 0x290F PUSH1 0x20 DUP4 ADD DUP8 PUSH2 0x2188 JUMP JUMPDEST PUSH2 0x291C PUSH1 0x40 DUP4 ADD DUP7 PUSH2 0x1F9D JUMP JUMPDEST DUP2 DUP2 SUB PUSH1 0x60 DUP4 ADD MSTORE PUSH2 0x292F DUP2 DUP5 DUP7 PUSH2 0x28C3 JUMP JUMPDEST SWAP1 POP SWAP7 SWAP6 POP POP POP POP POP POP JUMP JUMPDEST PUSH32 0x6E6F7420455448207061796D656E740000000000000000000000000000000000 PUSH0 DUP3 ADD MSTORE POP JUMP JUMPDEST PUSH0 PUSH2 0x296F PUSH1 0xF DUP4 PUSH2 0x2292 JUMP JUMPDEST SWAP2 POP PUSH2 0x297A DUP3 PUSH2 0x293B JUMP JUMPDEST PUSH1 0x20 DUP3 ADD SWAP1 POP SWAP2 SWAP1 POP JUMP JUMPDEST PUSH0 PUSH1 0x20 DUP3 ADD SWAP1 POP DUP2 DUP2 SUB PUSH0 DUP4 ADD MSTORE PUSH2 0x299C DUP2 PUSH2 0x2963 JUMP JUMPDEST SWAP1 POP SWAP2 SWAP1 POP JUMP JUMPDEST PUSH0 PUSH1 0x40 DUP3 ADD SWAP1 POP PUSH2 0x29B6 PUSH0 DUP4 ADD DUP6 PUSH2 0x2188 JUMP JUMPDEST PUSH2 0x29C3 PUSH1 0x20 DUP4 ADD DUP5 PUSH2 0x2188 JUMP JUMPDEST SWAP4 SWAP3 POP POP POP JUMP JUMPDEST PUSH0 DUP2 SWAP1 POP SWAP3 SWAP2 POP POP JUMP JUMPDEST POP JUMP JUMPDEST PUSH0 PUSH2 0x29E2 PUSH0 DUP4 PUSH2 0x29CA JUMP JUMPDEST SWAP2 POP PUSH2 0x29ED DUP3 PUSH2 0x29D4 JUMP JUMPDEST PUSH0 DUP3 ADD SWAP1 POP SWAP2 SWAP1 POP JUMP JUMPDEST PUSH0 PUSH2 0x2A01 DUP3 PUSH2 0x29D7 JUMP JUMPDEST SWAP2 POP DUP2 SWAP1 POP SWAP2 SWAP1 POP JUMP JUMPDEST PUSH0 PUSH2 0x2A15 DUP3 PUSH2 0x1E2A JUMP JUMPDEST SWAP2 POP PUSH2 0x2A20 DUP4 PUSH2 0x1E2A JUMP JUMPDEST SWAP3 POP DUP3 DUP3 MUL PUSH2 0x2A2E DUP2 PUSH2 0x1E2A JUMP JUMPDEST SWAP2 POP DUP3 DUP3 DIV DUP5 EQ DUP4 ISZERO OR PUSH2 0x2A45 JUMPI PUSH2 0x2A44 PUSH2 0x2831 JUMP JUMPDEST JUMPDEST POP SWAP3 SWAP2 POP POP JUMP JUMPDEST PUSH32 0x4E487B7100000000000000000000000000000000000000000000000000000000 PUSH0 MSTORE PUSH1 0x12 PUSH1 0x4 MSTORE PUSH1 0x24 PUSH0 REVERT JUMPDEST PUSH0 PUSH2 0x2A83 DUP3 PUSH2 0x1E2A JUMP JUMPDEST SWAP2 POP PUSH2 0x2A8E DUP4 PUSH2 0x1E2A JUMP JUMPDEST SWAP3 POP DUP3 PUSH2 0x2A9E JUMPI PUSH2 0x2A9D PUSH2 0x2A4C JUMP JUMPDEST JUMPDEST DUP3 DUP3 DIV SWAP1 POP SWAP3 SWAP2 POP POP JUMP JUMPDEST PUSH0 PUSH2 0x2AB3 DUP3 PUSH2 0x1E2A JUMP JUMPDEST SWAP2 POP PUSH2 0x2ABE DUP4 PUSH2 0x1E2A JUMP JUMPDEST SWAP3 POP DUP3 DUP3 SUB SWAP1 POP DUP2 DUP2 GT ISZERO PUSH2 0x2AD6 JUMPI PUSH2 0x2AD5 PUSH2 0x2831 JUMP JUMPDEST JUMPDEST SWAP3 SWAP2 POP POP JUMP JUMPDEST PUSH32 0x726F79616C7479207472616E73666572206661696C6564000000000000000000 PUSH0 DUP3 ADD MSTORE POP JUMP JUMPDEST PUSH0 PUSH2 0x2B10 PUSH1 0x17 DUP4 PUSH2 0x2292 JUMP JUMPDEST SWAP2 POP PUSH2 0x2B1B DUP3 PUSH2 0x2ADC JUMP JUMPDEST PUSH1 0x20 DUP3 ADD SWAP1 POP SWAP2 SWAP1 POP JUMP JUMPDEST PUSH0 PUSH1 0x20 DUP3 ADD SWAP1 POP DUP2 DUP2 SUB PUSH0 DUP4 ADD MSTORE PUSH2 0x2B3D DUP2 PUSH2 0x2B04 JUMP JUMPDEST SWAP1 POP SWAP2 SWAP1 POP JUMP JUMPDEST PUSH32 0x73656C6C6572207472616E73666572206661696C656400000000000000000000 PUSH0 DUP3 ADD MSTORE POP JUMP JUMPDEST PUSH0 PUSH2 0x2B78 PUSH1 0x16 DUP4 PUSH2 0x2292 JUMP JUMPDEST SWAP2 POP PUSH2 0x2B83 DUP3 PUSH2 0x2B44 JUMP JUMPDEST PUSH1 0x20 DUP3 ADD SWAP1 POP SWAP2 SWAP1 POP JUMP JUMPDEST PUSH0 PUSH1 0x20 DUP3 ADD SWAP1 POP DUP2 DUP2 SUB PUSH0 DUP4 ADD MSTORE PUSH2 0x2BA5 DUP2 PUSH2 0x2B6C JUMP JUMPDEST SWAP1 POP SWAP2 SWAP1 POP JUMP JUMPDEST PUSH32 0x666565207472616E73666572206661696C656400000000000000000000000000 PUSH0 DUP3 ADD MSTORE POP JUMP JUMPDEST PUSH0 PUSH2 0x2BE0 PUSH1 0x13 DUP4 PUSH2 0x2292 JUMP JUMPDEST SWAP2 POP PUSH2 0x2BEB DUP3 PUSH2 0x2BAC JUMP JUMPDEST PUSH1 0x20 DUP3 ADD SWAP1 POP SWAP2 SWAP1 POP JUMP JUMPDEST PUSH0 PUSH1 0x20 DUP3 ADD SWAP1 POP DUP2 DUP2 SUB PUSH0 DUP4 ADD MSTORE PUSH2 0x2C0D DUP2 PUSH2 0x2BD4 JUMP JUMPDEST SWAP1 POP SWAP2 SWAP1 POP JUMP JUMPDEST PUSH0 PUSH2 0x100 DUP3 ADD SWAP1 POP PUSH2 0x2C28 PUSH0 DUP4 ADD DUP12 PUSH2 0x2188 JUMP JUMPDEST PUSH2 0x2C35 PUSH1 0x20 DUP4 ADD DUP11 PUSH2 0x1F9D JUMP JUMPDEST PUSH2 0x2C42 PUSH1 0x40 DUP4 ADD DUP10 PUSH2 0x1F37 JUMP JUMPDEST PUSH2 0x2C4F PUSH1 0x60 DUP4 ADD DUP9 PUSH2 0x2188 JUMP JUMPDEST PUSH2 0x2C5C PUSH1 0x80 DUP4 ADD DUP8 PUSH2 0x1F9D JUMP JUMPDEST PUSH2 0x2C69 PUSH1 0xA0 DUP4 ADD DUP7 PUSH2 0x1F9D JUMP JUMPDEST PUSH2 0x2C76 PUSH1 0xC0 DUP4 ADD DUP6 PUSH2 0x2188 JUMP JUMPDEST PUSH2 0x2C83 PUSH1 0xE0 DUP4 ADD DUP5 PUSH2 0x2188 JUMP JUMPDEST SWAP10 SWAP9 POP POP POP POP POP POP POP POP POP JUMP JUMPDEST PUSH0 DUP2 MLOAD SWAP1 POP PUSH2 0x2C9E DUP2 PUSH2 0x1E33 JUMP JUMPDEST SWAP3 SWAP2 POP POP JUMP JUMPDEST PUSH0 PUSH0 PUSH1 0x40 DUP4 DUP6 SUB SLT ISZERO PUSH2 0x2CBA JUMPI PUSH2 0x2CB9 PUSH2 0x1E22 JUMP JUMPDEST JUMPDEST PUSH0 PUSH2 0x2CC7 DUP6 DUP3 DUP7 ADD PUSH2 0x2693 JUMP JUMPDEST SWAP3 POP POP PUSH1 0x20 PUSH2 0x2CD8 DUP6 DUP3 DUP7 ADD PUSH2 0x2C90 JUMP JUMPDEST SWAP2 POP POP SWAP3 POP SWAP3 SWAP1 POP JUMP INVALID LOG2 PUSH5 0x6970667358 0x22 SLT KECCAK256 PUSH27 0x32E6B413D4E211F7B8CD4F2DDE0A4F8BD8BAB50C58FA4B439F8844 COINBASE DUP4 0xC2 0x4D PUSH5 0x736F6C6343 STOP ADDMOD 0x1E STOP CALLER "
				},
				"gasEstimates": {
					"creation": {
						"codeDepositCost": "2308800",
						"executionCost": "infinite",
						"totalCost": "infinite"
					},
					"external": {
						"": "196",
						"activeListingOf(address,uint256)": "infinite",
						"buyItem(uint256)": "infinite",
						"buyItemWithERC20(uint256,uint256)": "infinite",
						"cancelListing(uint256)": "88784",
						"feeRecipient()": "2531",
						"getMarketFeeInfo()": "infinite",
						"listItem(address,uint256,uint256,address,string)": "infinite",
						"listings(uint256)": "infinite",
						"marketFeeBps()": "2585",
						"owner()": "2560",
						"renounceOwnership()": "infinite",
						"setFeeRecipient(address)": "infinite",
						"setMarketFee(uint96)": "infinite",
						"transferOwnership(address)": "infinite",
						"withdrawERC20(address,uint256,address)": "infinite",
						"withdrawETH(uint256,address)": "infinite"
					},
					"internal": {
						"_executeSale(uint256,address,uint256,address)": "infinite",
						"_getRoyaltyInfo(address,uint256,uint256)": "infinite"
					}
				},
				"methodIdentifiers": {
					"activeListingOf(address,uint256)": "fad86b69",
					"buyItem(uint256)": "e7fb74c7",
					"buyItemWithERC20(uint256,uint256)": "41cccad5",
					"cancelListing(uint256)": "305a67a8",
					"feeRecipient()": "46904840",
					"getMarketFeeInfo()": "b915bf42",
					"listItem(address,uint256,uint256,address,string)": "73851d46",
					"listings(uint256)": "de74e57b",
					"marketFeeBps()": "3f5c3e87",
					"owner()": "8da5cb5b",
					"renounceOwnership()": "715018a6",
					"setFeeRecipient(address)": "e74b981b",
					"setMarketFee(uint96)": "5e9bf9ad",
					"transferOwnership(address)": "f2fde38b",
					"withdrawERC20(address,uint256,address)": "5fc3ea0b",
					"withdrawETH(uint256,address)": "36118b52"
				}
			},
			"storageLayout": {
				"storage": [
					{
						"astId": 685,
						"contract": "Marketplace.sol:Marketplace",
						"label": "_status",
						"offset": 0,
						"slot": "0",
						"type": "t_uint256"
					},
					{
						"astId": 8,
						"contract": "Marketplace.sol:Marketplace",
						"label": "_owner",
						"offset": 0,
						"slot": "1",
						"type": "t_address"
					},
					{
						"astId": 792,
						"contract": "Marketplace.sol:Marketplace",
						"label": "marketFeeBps",
						"offset": 20,
						"slot": "1",
						"type": "t_uint96"
					},
					{
						"astId": 794,
						"contract": "Marketplace.sol:Marketplace",
						"label": "feeRecipient",
						"offset": 0,
						"slot": "2",
						"type": "t_address"
					},
					{
						"astId": 796,
						"contract": "Marketplace.sol:Marketplace",
						"label": "_listingIdCounter",
						"offset": 0,
						"slot": "3",
						"type": "t_uint256"
					},
					{
						"astId": 801,
						"contract": "Marketplace.sol:Marketplace",
						"label": "listings",
						"offset": 0,
						"slot": "4",
						"type": "t_mapping(t_uint256,t_struct(Listing)789_storage)"
					},
					{
						"astId": 807,
						"contract": "Marketplace.sol:Marketplace",
						"label": "activeListingOf",
						"offset": 0,
						"slot": "5",
						"type": "t_mapping(t_address,t_mapping(t_uint256,t_uint256))"
					}
				],
				"types": {
					"t_address": {
						"encoding": "inplace",
						"label": "address",
						"numberOfBytes": "20"
					},
					"t_bool": {
						"encoding": "inplace",
						"label": "bool",
						"numberOfBytes": "1"
					},
					"t_mapping(t_address,t_mapping(t_uint256,t_uint256))": {
						"encoding": "mapping",
						"key": "t_address",
						"label": "mapping(address => mapping(uint256 => uint256))",
						"numberOfBytes": "32",
						"value": "t_mapping(t_uint256,t_uint256)"
					},
					"t_mapping(t_uint256,t_struct(Listing)789_storage)": {
						"encoding": "mapping",
						"key": "t_uint256",
						"label": "mapping(uint256 => struct Marketplace.Listing)",
						"numberOfBytes": "32",
						"value": "t_struct(Listing)789_storage"
					},
					"t_mapping(t_uint256,t_uint256)": {
						"encoding": "mapping",
						"key": "t_uint256",
						"label": "mapping(uint256 => uint256)",
						"numberOfBytes": "32",
						"value": "t_uint256"
					},
					"t_struct(Listing)789_storage": {
						"encoding": "inplace",
						"label": "struct Marketplace.Listing",
						"members": [
							{
								"astId": 778,
								"contract": "Marketplace.sol:Marketplace",
								"label": "seller",
								"offset": 0,
								"slot": "0",
								"type": "t_address"
							},
							{
								"astId": 780,
								"contract": "Marketplace.sol:Marketplace",
								"label": "nftAddress",
								"offset": 0,
								"slot": "1",
								"type": "t_address"
							},
							{
								"astId": 782,
								"contract": "Marketplace.sol:Marketplace",
								"label": "tokenId",
								"offset": 0,
								"slot": "2",
								"type": "t_uint256"
							},
							{
								"astId": 784,
								"contract": "Marketplace.sol:Marketplace",
								"label": "price",
								"offset": 0,
								"slot": "3",
								"type": "t_uint256"
							},
							{
								"astId": 786,
								"contract": "Marketplace.sol:Marketplace",
								"label": "paymentToken",
								"offset": 0,
								"slot": "4",
								"type": "t_address"
							},
							{
								"astId": 788,
								"contract": "Marketplace.sol:Marketplace",
								"label": "active",
								"offset": 20,
								"slot": "4",
								"type": "t_bool"
							}
						],
						"numberOfBytes": "160"
					},
					"t_uint256": {
						"encoding": "inplace",
						"label": "uint256",
						"numberOfBytes": "32"
					},
					"t_uint96": {
						"encoding": "inplace",
						"label": "uint96",
						"numberOfBytes": "12"
					}
				}
			},
			"userdoc": {
				"kind": "user",
				"methods": {},
				"version": 1
			}
		}
	}
}